8=FIX.4.4|9=302|35=8|34=10002|49=SYSTEM|52=20211127-11:05:16.040|56=DROPCOPY|128=GATEWAY|1=918237|6=10.08|11=2|14=18500|17=BBAS300001|31=10.08|32=18500|37=2|38=18500|39=2|40=2|44=10.08|54=2|55=BBAS3|60=20211127-11:05:16.040|75=2021-11-27|150=F|151=0|207=BVMF|581=39|1010=186480|1011=DAVIS|453=1|448=DAVIS|447=D|452=36|10=118|
8=FIX.4.4|9=298|35=8|34=10003|49=SYSTEM|52=20211127-13:26:58.131|56=DROPCOPY|128=GATEWAY|1=071264|6=13.75|11=3|14=2500|17=POMO400001|31=13.75|32=2500|37=3|38=2500|39=2|40=2|44=13.75|54=2|55=POMO4|60=20211127-13:26:58.131|75=2021-11-27|150=F|151=0|207=BVMF|581=39|1010=34375|1011=DAVIS|453=1|448=DAVIS|447=D|452=36|10=024|
8=FIX.4.4|9=304|35=8|34=10006|49=SYSTEM|52=20211127-15:00:50.570|56=DROPCOPY|128=GATEWAY|1=164532|6=17.57|11=5|14=3500|17=RAPT400001|31=17.57|32=3500|37=5|38=3500|39=2|40=2|44=17.57|54=2|55=RAPT4|60=20211127-15:00:50.570|75=2021-11-27|150=F|151=0|207=BVMF|581=39|1010=61495|1011=MARTINEZ|453=1|448=MARTINEZ|447=D|452=36|10=246|
8=FIX.4.4|9=291|35=8|34=10007|49=SYSTEM|52=20211127-15:46:06.042|56=DROPCOPY|128=GATEWAY|1=879865|6=20|11=6|14=2500|17=BPAC1100001|31=20|32=2500|37=6|38=2500|39=2|40=2|44=20|54=2|55=BPAC11|60=20211127-15:46:06.042|75=2021-11-27|150=F|151=0|207=BVMF|581=39|1010=50000|1011=DAVIS|453=1|448=DAVIS|447=D|452=36|10=091|
8=FIX.4.4|9=299|35=8|34=10008|49=SYSTEM|52=20211127-17:14:38.834|56=DROPCOPY|128=GATEWAY|1=918239|6=18.8|11=7|14=11500|17=POMO400004|31=18.8|32=11500|37=7|38=11500|39=2|40=2|44=18.8|54=1|55=POMO4|60=20211127-17:14:38.834|75=2021-11-27|150=F|151=0|207=BVMF|581=39|1010=216200|1011=BROWN|453=1|448=BROWN|447=D|452=36|10=144|
8=FIX.4.4|9=308|35=8|34=10009|49=SYSTEM|52=20211127-11:31:49.479|56=DROPCOPY|128=GATEWAY|1=164532|6=16.13|11=8|14=16500|17=RAPT400002|31=16.13|32=16500|37=8|38=16500|39=2|40=2|44=16.13|54=1|55=RAPT4|60=20211127-11:31:49.479|75=2021-11-27|150=F|151=0|207=BVMF|581=39|1010=266145|1011=WILLIAMS|453=1|448=WILLIAMS|447=D|452=36|10=195|
8=FIX.4.4|9=307|35=8|34=10010|49=SYSTEM|52=20211127-12:37:20.339|56=DROPCOPY|128=GATEWAY|1=987453|6=18.21|11=4|14=23500|17=POMO400005|31=18.21|32=4700|37=4|38=23500|39=2|40=2|44=18.21|54=1|55=POMO4|60=20211127-12:37:20.339|75=2021-11-27|150=F|151=0|207=BVMF|581=39|1010=427935|1011=MARTINEZ|453=1|448=MARTINEZ|447=D|452=36|10=158|
8=FIX.4.4|9=312|35=8|34=10012|49=SYSTEM|52=20211127-17:52:36.433|56=DROPCOPY|128=GATEWAY|1=987453|6=11.97|11=10|14=10500|17=ITUB400001|31=11.97|32=10500|37=10|38=10500|39=2|40=2|44=11.97|54=2|55=ITUB4|60=20211127-17:52:36.433|75=2021-11-27|150=F|151=0|207=BVMF|581=39|1010=125685|1011=RODRIGUEZ|453=1|448=RODRIGUEZ|447=D|452=36|10=193|
8=FIX.4.4|9=298|35=8|34=10013|49=SYSTEM|52=20211127-16:16:35.798|56=DROPCOPY|128=GATEWAY|1=981727|6=14.79|11=1|14=5500|17=GOAU400003|31=14.79|32=3600|37=1|38=5500|39=2|40=2|44=14.79|54=2|55=GOAU4|60=20211127-16:16:35.798|75=2021-11-27|150=F|151=0|207=BVMF|581=39|1010=81345|1011=BROWN|453=1|448=BROWN|447=D|452=36|10=095|
8=FIX.4.4|9=304|35=8|34=10014|49=SYSTEM|52=20211127-14:08:05.927|56=DROPCOPY|128=GATEWAY|1=071264|6=17.93|11=11|14=16500|17=GOAU400004|31=17.93|32=16500|37=11|38=16500|39=2|40=2|44=17.93|54=1|55=GOAU4|60=20211127-14:08:05.927|75=2021-11-27|150=F|151=0|207=BVMF|581=39|1010=295845|1011=SMITH|453=1|448=SMITH|447=D|452=36|10=094|
8=FIX.4.4|9=302|35=8|34=10016|49=SYSTEM|52=20211127-17:06:29.016|56=DROPCOPY|128=GATEWAY|1=164532|6=15.7|11=12|14=13500|17=IGTI300002|31=15.7|32=8200|37=12|38=13500|39=2|40=2|44=15.7|54=2|55=IGTI3|60=20211127-17:06:29.016|75=2021-11-27|150=F|151=0|207=BVMF|581=39|1010=211950|1011=MILLER|453=1|448=MILLER|447=D|452=36|10=236|
8=FIX.4.4|9=305|35=8|34=10018|49=SYSTEM|52=20211127-16:36:00.000|56=DROPCOPY|128=GATEWAY|1=164532|6=12.95|11=14|14=8500|17=GOAU400005|31=12.95|32=8500|37=14|38=8500|39=2|40=2|44=12.95|54=1|55=GOAU4|60=20211127-16:36:00.000|75=2021-11-27|150=F|151=0|207=BVMF|581=39|1010=110075|1011=JOHNSON|453=1|448=JOHNSON|447=D|452=36|10=206|
8=FIX.4.4|9=302|35=8|34=10019|49=SYSTEM|52=20211127-17:30:49.578|56=DROPCOPY|128=GATEWAY|1=498213|6=15.47|11=13|14=2500|17=ITUB400003|31=15.47|32=1200|37=13|38=2500|39=2|40=2|44=15.47|54=1|55=ITUB4|60=20211127-17:30:49.578|75=2021-11-27|150=F|151=0|207=BVMF|581=39|1010=38675|1011=GARCIA|453=1|448=GARCIA|447=D|452=36|10=239|
8=FIX.4.4|9=304|35=8|34=10022|49=SYSTEM|52=20211127-10:15:31.676|56=DROPCOPY|128=GATEWAY|1=498213|6=13.07|11=17|14=17500|17=VALE300001|31=13.07|32=17500|37=17|38=17500|39=2|40=2|44=13.07|54=1|55=VALE3|60=20211127-10:15:31.676|75=2021-11-27|150=F|151=0|207=BVMF|581=39|1010=228725|1011=JONES|453=1|448=JONES|447=D|452=36|10=044|
8=FIX.4.4|9=306|35=8|34=10029|49=SYSTEM|52=20211127-14:13:19.050|56=DROPCOPY|128=GATEWAY|1=849651|6=17.29|11=22|14=3500|17=GOAU400007|31=17.29|32=3500|37=22|38=3500|39=2|40=2|44=17.29|54=1|55=GOAU4|60=20211127-14:13:19.050|75=2021-11-27|150=F|151=0|207=BVMF|581=39|1010=60515|1011=WILLIAMS|453=1|448=WILLIAMS|447=D|452=36|10=061|
8=FIX.4.4|9=322|35=8|34=10030|49=SYSTEM|52=20211127-14:40:55.800|56=DROPCOPY|128=GATEWAY|1=918237|6=10.62|11=20|14=22500|17=IGTI300004|31=10.62|32=200|37=20|38=22500|39=2|40=2|44=10.62|54=1|55=IGTI3|60=20211127-14:40:55.800|75=2021-11-27|150=F|151=0|207=BVMF|581=39|1010=238949.99999999997|1011=RODRIGUEZ|453=1|448=RODRIGUEZ|447=D|452=36|10=208|
8=FIX.4.4|9=306|35=8|34=10031|49=SYSTEM|52=20211127-12:03:40.685|56=DROPCOPY|128=GATEWAY|1=071264|6=10.19|11=16|14=3500|17=PETR400003|31=10.19|32=1700|37=16|38=3500|39=2|40=2|44=10.19|54=1|55=PETR4|60=20211127-12:03:40.685|75=2021-11-27|150=F|151=0|207=BVMF|581=39|1010=35665|1011=WILLIAMS|453=1|448=WILLIAMS|447=D|452=36|10=067|
8=FIX.4.4|9=300|35=8|34=10033|49=SYSTEM|52=20211127-17:55:41.112|56=DROPCOPY|128=GATEWAY|1=498213|6=17.3|11=15|14=17500|17=POMO400009|31=17.3|32=8200|37=15|38=17500|39=2|40=2|44=17.3|54=2|55=POMO4|60=20211127-17:55:41.112|75=2021-11-27|150=F|151=0|207=BVMF|581=39|1010=302750|1011=SMITH|453=1|448=SMITH|447=D|452=36|10=145|
8=FIX.4.4|9=301|35=8|34=10034|49=SYSTEM|52=20211127-15:05:20.248|56=DROPCOPY|128=GATEWAY|1=498213|6=15.79|11=18|14=1500|17=PETR400004|31=15.79|32=300|37=18|38=1500|39=2|40=2|44=15.79|54=2|55=PETR4|60=20211127-15:05:20.248|75=2021-11-27|150=F|151=0|207=BVMF|581=39|1010=23685|1011=GARCIA|453=1|448=GARCIA|447=D|452=36|10=187|
8=FIX.4.4|9=307|35=8|34=10037|49=SYSTEM|52=20211127-14:05:52.837|56=DROPCOPY|128=GATEWAY|1=918239|6=19.28|11=21|14=20500|17=POMO400010|31=19.28|32=3900|37=21|38=20500|39=2|40=2|44=19.28|54=1|55=POMO4|60=20211127-14:05:52.837|75=2021-11-27|150=F|151=0|207=BVMF|581=39|1010=395240|1011=JOHNSON|453=1|448=JOHNSON|447=D|452=36|10=125|
8=FIX.4.4|9=311|35=8|34=10039|49=SYSTEM|52=20211127-16:50:35.315|56=DROPCOPY|128=GATEWAY|1=071264|6=15.08|11=19|14=17500|17=SLCE300004|31=15.08|32=1700|37=19|38=17500|39=2|40=2|44=15.08|54=2|55=SLCE3|60=20211127-16:50:35.315|75=2021-11-27|150=F|151=0|207=BVMF|581=39|1010=263900|1011=RODRIGUEZ|453=1|448=RODRIGUEZ|447=D|452=36|10=117|
8=FIX.4.4|9=307|35=8|34=10041|49=SYSTEM|52=20211127-16:56:48.712|56=DROPCOPY|128=GATEWAY|1=918237|6=18.87|11=9|14=11500|17=GOAU400011|31=18.87|32=5000|37=9|38=11500|39=2|40=2|44=18.87|54=1|55=GOAU4|60=20211127-16:56:48.712|75=2021-11-27|150=F|151=0|207=BVMF|581=39|1010=217005|1011=MARTINEZ|453=1|448=MARTINEZ|447=D|452=36|10=162|
8=FIX.4.4|9=319|35=8|34=10042|49=SYSTEM|52=20211127-16:40:27.817|56=DROPCOPY|128=GATEWAY|1=918239|6=17.6|11=25|14=21500|17=POMO400011|31=17.6|32=21500|37=25|38=21500|39=2|40=2|44=17.6|54=1|55=POMO4|60=20211127-16:40:27.817|75=2021-11-27|150=F|151=0|207=BVMF|581=39|1010=378400.00000000006|1011=MARTINEZ|453=1|448=MARTINEZ|447=D|452=36|10=236|
8=FIX.4.4|9=316|35=8|34=10043|49=SYSTEM|52=20211127-17:38:22.220|56=DROPCOPY|128=GATEWAY|1=918239|6=19.58|11=23|14=18500|17=GOAU400012|31=19.58|32=15200|37=23|38=18500|39=2|40=2|44=19.58|54=1|55=GOAU4|60=20211127-17:38:22.220|75=2021-11-27|150=F|151=0|207=BVMF|581=39|1010=362229.99999999994|1011=JONES|453=1|448=JONES|447=D|452=36|10=242|
8=FIX.4.4|9=308|35=8|34=10046|49=SYSTEM|52=20211127-17:23:38.986|56=DROPCOPY|128=GATEWAY|1=879865|6=11.66|11=27|14=1500|17=PETR400006|31=11.66|32=1400|37=27|38=1500|39=2|40=2|44=11.66|54=1|55=PETR4|60=20211127-17:23:38.986|75=2021-11-27|150=F|151=0|207=BVMF|581=39|1010=17490|1011=RODRIGUEZ|453=1|448=RODRIGUEZ|447=D|452=36|10=061|
8=FIX.4.4|9=305|35=8|34=10047|49=SYSTEM|52=20211127-15:49:41.935|56=DROPCOPY|128=GATEWAY|1=981727|6=18.36|11=24|14=2500|17=GOAU400013|31=18.36|32=400|37=24|38=2500|39=2|40=2|44=18.36|54=2|55=GOAU4|60=20211127-15:49:41.935|75=2021-11-27|150=F|151=0|207=BVMF|581=39|1010=45900|1011=MARTINEZ|453=1|448=MARTINEZ|447=D|452=36|10=057|
8=FIX.4.4|9=319|35=8|34=10048|49=SYSTEM|52=20211127-15:16:57.920|56=DROPCOPY|128=GATEWAY|1=987453|6=18.94|11=26|14=11500|17=IGTI300006|31=18.94|32=9100|37=26|38=11500|39=2|40=2|44=18.94|54=1|55=IGTI3|60=20211127-15:16:57.920|75=2021-11-27|150=F|151=0|207=BVMF|581=39|1010=217810.00000000003|1011=JOHNSON|453=1|448=JOHNSON|447=D|452=36|10=186|
8=FIX.4.4|9=304|35=8|34=10050|49=SYSTEM|52=20211127-15:24:40.308|56=DROPCOPY|128=GATEWAY|1=879865|6=17.09|11=28|14=23500|17=POMO400013|31=17.09|32=22900|37=28|38=23500|39=2|40=2|44=17.09|54=1|55=POMO4|60=20211127-15:24:40.308|75=2021-11-27|150=F|151=0|207=BVMF|581=39|1010=401615|1011=JONES|453=1|448=JONES|447=D|452=36|10=105|
8=FIX.4.4|9=305|35=8|34=10052|49=SYSTEM|52=20211127-12:25:46.645|56=DROPCOPY|128=GATEWAY|1=918239|6=12.23|11=29|14=19500|17=GOAU400015|31=12.23|32=1700|37=29|38=19500|39=2|40=2|44=12.23|54=1|55=GOAU4|60=20211127-12:25:46.645|75=2021-11-27|150=F|151=0|207=BVMF|581=39|1010=238485|1011=MILLER|453=1|448=MILLER|447=D|452=36|10=170|
8=FIX.4.4|9=297|35=8|34=10054|49=SYSTEM|52=20211127-17:40:33.754|56=DROPCOPY|128=GATEWAY|1=879865|6=16.1|11=30|14=4500|17=SLCE300006|31=16.1|32=3600|37=30|38=4500|39=2|40=2|44=16.1|54=1|55=SLCE3|60=20211127-17:40:33.754|75=2021-11-27|150=F|151=0|207=BVMF|581=39|1010=72450|1011=SMITH|453=1|448=SMITH|447=D|452=36|10=236|
8=FIX.4.4|9=308|35=8|34=10055|49=SYSTEM|52=20211127-12:10:38.868|56=DROPCOPY|128=GATEWAY|1=981727|6=13.71|11=31|14=6500|17=GOAU400016|31=13.71|32=6500|37=31|38=6500|39=2|40=2|44=13.71|54=1|55=GOAU4|60=20211127-12:10:38.868|75=2021-11-27|150=F|151=0|207=BVMF|581=39|1010=89115|1011=RODRIGUEZ|453=1|448=RODRIGUEZ|447=D|452=36|10=006|
8=FIX.4.4|9=308|35=8|34=10056|49=SYSTEM|52=20211127-13:20:56.237|56=DROPCOPY|128=GATEWAY|1=498213|6=11.43|11=32|14=19500|17=IGTI300007|31=11.43|32=19500|37=32|38=19500|39=2|40=2|44=11.43|54=2|55=IGTI3|60=20211127-13:20:56.237|75=2021-11-27|150=F|151=0|207=BVMF|581=39|1010=222885|1011=JOHNSON|453=1|448=JOHNSON|447=D|452=36|10=129|
8=FIX.4.4|9=308|35=8|34=10057|49=SYSTEM|52=20211127-12:41:09.618|56=DROPCOPY|128=GATEWAY|1=987453|6=19.63|11=33|14=11500|17=GOAU400017|31=19.63|32=11500|37=33|38=11500|39=2|40=2|44=19.63|54=1|55=GOAU4|60=20211127-12:41:09.618|75=2021-11-27|150=F|151=0|207=BVMF|581=39|1010=225745|1011=JOHNSON|453=1|448=JOHNSON|447=D|452=36|10=151|
8=FIX.4.4|9=306|35=8|34=10060|49=SYSTEM|52=20211127-15:22:05.408|56=DROPCOPY|128=GATEWAY|1=987453|6=10.45|11=34|14=17500|17=IGTI300009|31=10.45|32=12200|37=34|38=17500|39=2|40=2|44=10.45|54=1|55=IGTI3|60=20211127-15:22:05.408|75=2021-11-27|150=F|151=0|207=BVMF|581=39|1010=182875|1011=GARCIA|453=1|448=GARCIA|447=D|452=36|10=141|
8=FIX.4.4|9=304|35=8|34=10061|49=SYSTEM|52=20211127-17:58:25.586|56=DROPCOPY|128=GATEWAY|1=164532|6=19.39|11=36|14=18500|17=VALE300002|31=19.39|32=18500|37=36|38=18500|39=2|40=2|44=19.39|54=2|55=VALE3|60=20211127-17:58:25.586|75=2021-11-27|150=F|151=0|207=BVMF|581=39|1010=358715|1011=BROWN|453=1|448=BROWN|447=D|452=36|10=136|
8=FIX.4.4|9=304|35=8|34=10063|49=SYSTEM|52=20211127-11:55:08.789|56=DROPCOPY|128=GATEWAY|1=849651|6=13.38|11=38|14=18500|17=POMO400014|31=13.38|32=18500|37=38|38=18500|39=2|40=2|44=13.38|54=1|55=POMO4|60=20211127-11:55:08.789|75=2021-11-27|150=F|151=0|207=BVMF|581=39|1010=247530|1011=SMITH|453=1|448=SMITH|447=D|452=36|10=155|
8=FIX.4.4|9=321|35=8|34=10064|49=SYSTEM|52=20211127-16:10:21.118|56=DROPCOPY|128=GATEWAY|1=849651|6=10.54|11=37|14=10500|17=IGTI300011|31=10.54|32=4100|37=37|38=10500|39=2|40=2|44=10.54|54=1|55=IGTI3|60=20211127-16:10:21.118|75=2021-11-27|150=F|151=0|207=BVMF|581=39|1010=110669.99999999999|1011=WILLIAMS|453=1|448=WILLIAMS|447=D|452=36|10=079|
8=FIX.4.4|9=308|35=8|34=10069|49=SYSTEM|52=20211127-14:49:51.850|56=DROPCOPY|128=GATEWAY|1=498213|6=11.82|11=43|14=4500|17=BPAC1100002|31=11.82|32=4500|37=43|38=4500|39=2|40=2|44=11.82|54=1|55=BPAC11|60=20211127-14:49:51.850|75=2021-11-27|150=F|151=0|207=BVMF|581=39|1010=53190|1011=MARTINEZ|453=1|448=MARTINEZ|447=D|452=36|10=135|
8=FIX.4.4|9=316|35=8|34=10071|49=SYSTEM|52=20211127-17:13:46.762|56=DROPCOPY|128=GATEWAY|1=849651|6=17.92|11=45|14=18500|17=VALE300004|31=17.92|32=18500|37=45|38=18500|39=2|40=2|44=17.92|54=1|55=VALE3|60=20211127-17:13:46.762|75=2021-11-27|150=F|151=0|207=BVMF|581=39|1010=331520.00000000006|1011=BROWN|453=1|448=BROWN|447=D|452=36|10=177|
8=FIX.4.4|9=304|35=8|34=10072|49=SYSTEM|52=20211127-14:04:53.794|56=DROPCOPY|128=GATEWAY|1=498213|6=11.26|11=44|14=21500|17=VALE300005|31=11.26|32=12900|37=44|38=21500|39=2|40=2|44=11.26|54=1|55=VALE3|60=20211127-14:04:53.794|75=2021-11-27|150=F|151=0|207=BVMF|581=39|1010=242090|1011=BROWN|453=1|448=BROWN|447=D|452=36|10=062|
8=FIX.4.4|9=303|35=8|34=10074|49=SYSTEM|52=20211127-16:41:56.386|56=DROPCOPY|128=GATEWAY|1=498213|6=15.97|11=47|14=9500|17=SLCE300007|31=15.97|32=9500|37=47|38=9500|39=2|40=2|44=15.97|54=1|55=SLCE3|60=20211127-16:41:56.386|75=2021-11-27|150=F|151=0|207=BVMF|581=39|1010=151715|1011=GARCIA|453=1|448=GARCIA|447=D|452=36|10=046|
8=FIX.4.4|9=301|35=8|34=10075|49=SYSTEM|52=20211127-14:29:08.413|56=DROPCOPY|128=GATEWAY|1=918239|6=12.4|11=48|14=18500|17=BBAS300002|31=12.4|32=18500|37=48|38=18500|39=2|40=2|44=12.4|54=2|55=BBAS3|60=20211127-14:29:08.413|75=2021-11-27|150=F|151=0|207=BVMF|581=39|1010=229400|1011=BROWN|453=1|448=BROWN|447=D|452=36|10=148|
8=FIX.4.4|9=304|35=8|34=10076|49=SYSTEM|52=20211127-14:35:54.841|56=DROPCOPY|128=GATEWAY|1=164532|6=14.07|11=49|14=3500|17=POMO400016|31=14.07|32=3500|37=49|38=3500|39=2|40=2|44=14.07|54=2|55=POMO4|60=20211127-14:35:54.841|75=2021-11-27|150=F|151=0|207=BVMF|581=39|1010=49245|1011=JOHNSON|453=1|448=JOHNSON|447=D|452=36|10=228|
8=FIX.4.4|9=318|35=8|34=10080|49=SYSTEM|52=20211127-16:02:32.122|56=DROPCOPY|128=GATEWAY|1=164532|6=18.83|11=40|14=4500|17=POMO400017|31=18.83|32=2000|37=40|38=4500|39=2|40=2|44=18.83|54=1|55=POMO4|60=20211127-16:02:32.122|75=2021-11-27|150=F|151=0|207=BVMF|581=39|1010=84734.99999999999|1011=MARTINEZ|453=1|448=MARTINEZ|447=D|452=36|10=255|
8=FIX.4.4|9=308|35=8|34=10083|49=SYSTEM|52=20211127-16:33:24.706|56=DROPCOPY|128=GATEWAY|1=918237|6=18.57|11=52|14=20500|17=ITUB400005|31=18.57|32=20500|37=52|38=20500|39=2|40=2|44=18.57|54=1|55=ITUB4|60=20211127-16:33:24.706|75=2021-11-27|150=F|151=0|207=BVMF|581=39|1010=380685|1011=JOHNSON|453=1|448=JOHNSON|447=D|452=36|10=170|
8=FIX.4.4|9=303|35=8|34=10085|49=SYSTEM|52=20211127-12:30:08.010|56=DROPCOPY|128=GATEWAY|1=071264|6=14.59|11=42|14=16500|17=ITUB400006|31=14.59|32=6700|37=42|38=16500|39=2|40=2|44=14.59|54=1|55=ITUB4|60=20211127-12:30:08.010|75=2021-11-27|150=F|151=0|207=BVMF|581=39|1010=240735|1011=DAVIS|453=1|448=DAVIS|447=D|452=36|10=251|
8=FIX.4.4|9=305|35=8|34=10087|49=SYSTEM|52=20211127-16:55:03.082|56=DROPCOPY|128=GATEWAY|1=164532|6=18.54|11=55|14=5500|17=POMO400018|31=18.54|32=5500|37=55|38=5500|39=2|40=2|44=18.54|54=1|55=POMO4|60=20211127-16:55:03.082|75=2021-11-27|150=F|151=0|207=BVMF|581=39|1010=101970|1011=JOHNSON|453=1|448=JOHNSON|447=D|452=36|10=026|
8=FIX.4.4|9=302|35=8|34=10089|49=SYSTEM|52=20211127-16:58:39.675|56=DROPCOPY|128=GATEWAY|1=987453|6=14.43|11=46|14=9500|17=VALE300009|31=14.43|32=800|37=46|38=9500|39=2|40=2|44=14.43|54=1|55=VALE3|60=20211127-16:58:39.675|75=2021-11-27|150=F|151=0|207=BVMF|581=39|1010=137085|1011=GARCIA|453=1|448=GARCIA|447=D|452=36|10=002|
8=FIX.4.4|9=305|35=8|34=10090|49=SYSTEM|52=20211127-11:28:39.288|56=DROPCOPY|128=GATEWAY|1=498213|6=17.19|11=57|14=8500|17=IGTI300014|31=17.19|32=8500|37=57|38=8500|39=2|40=2|44=17.19|54=1|55=IGTI3|60=20211127-11:28:39.288|75=2021-11-27|150=F|151=0|207=BVMF|581=39|1010=146115|1011=JOHNSON|453=1|448=JOHNSON|447=D|452=36|10=029|
8=FIX.4.4|9=308|35=8|34=10094|49=SYSTEM|52=20211127-15:02:22.201|56=DROPCOPY|128=GATEWAY|1=918237|6=12.44|11=60|14=14500|17=GOAU400019|31=12.44|32=14500|37=60|38=14500|39=2|40=2|44=12.44|54=2|55=GOAU4|60=20211127-15:02:22.201|75=2021-11-27|150=F|151=0|207=BVMF|581=39|1010=180380|1011=JOHNSON|453=1|448=JOHNSON|447=D|452=36|10=095|
8=FIX.4.4|9=306|35=8|34=10095|49=SYSTEM|52=20211127-15:44:55.716|56=DROPCOPY|128=GATEWAY|1=164532|6=11.97|11=61|14=15500|17=IGTI300016|31=11.97|32=15500|37=61|38=15500|39=2|40=2|44=11.97|54=1|55=IGTI3|60=20211127-15:44:55.716|75=2021-11-27|150=F|151=0|207=BVMF|581=39|1010=185535|1011=MILLER|453=1|448=MILLER|447=D|452=36|10=236|
8=FIX.4.4|9=302|35=8|34=10096|49=SYSTEM|52=20211127-16:40:26.055|56=DROPCOPY|128=GATEWAY|1=879865|6=13.77|11=39|14=11500|17=RAPT400007|31=13.77|32=100|37=39|38=11500|39=2|40=2|44=13.77|54=1|55=RAPT4|60=20211127-16:40:26.055|75=2021-11-27|150=F|151=0|207=BVMF|581=39|1010=158355|1011=SMITH|453=1|448=SMITH|447=D|452=36|10=027|
8=FIX.4.4|9=306|35=8|34=10097|49=SYSTEM|52=20211127-13:32:10.035|56=DROPCOPY|128=GATEWAY|1=987453|6=17.45|11=59|14=3500|17=POMO400020|31=17.45|32=3400|37=59|38=3500|39=2|40=2|44=17.45|54=2|55=POMO4|60=20211127-13:32:10.035|75=2021-11-27|150=F|151=0|207=BVMF|581=39|1010=61075|1011=MARTINEZ|453=1|448=MARTINEZ|447=D|452=36|10=114|
8=FIX.4.4|9=304|35=8|34=10099|49=SYSTEM|52=20211127-17:18:10.479|56=DROPCOPY|128=GATEWAY|1=918237|6=19.44|11=63|14=18500|17=IGTI300017|31=19.44|32=18500|37=63|38=18500|39=2|40=2|44=19.44|54=2|55=IGTI3|60=20211127-17:18:10.479|75=2021-11-27|150=F|151=0|207=BVMF|581=39|1010=359640|1011=DAVIS|453=1|448=DAVIS|447=D|452=36|10=106|
8=FIX.4.4|9=304|35=8|34=10100|49=SYSTEM|52=20211127-16:09:37.992|56=DROPCOPY|128=GATEWAY|1=879865|6=18.47|11=64|14=23500|17=IGTI300018|31=18.47|32=23500|37=64|38=23500|39=2|40=2|44=18.47|54=1|55=IGTI3|60=20211127-16:09:37.992|75=2021-11-27|150=F|151=0|207=BVMF|581=39|1010=434045|1011=JONES|453=1|448=JONES|447=D|452=36|10=123|
8=FIX.4.4|9=303|35=8|34=10101|49=SYSTEM|52=20211127-15:29:43.492|56=DROPCOPY|128=GATEWAY|1=071264|6=14.57|11=65|14=8500|17=BPAC1100003|31=14.57|32=8500|37=65|38=8500|39=2|40=2|44=14.57|54=2|55=BPAC11|60=20211127-15:29:43.492|75=2021-11-27|150=F|151=0|207=BVMF|581=39|1010=123845|1011=SMITH|453=1|448=SMITH|447=D|452=36|10=002|
8=FIX.4.4|9=309|35=8|34=10102|49=SYSTEM|52=20211127-13:45:02.020|56=DROPCOPY|128=GATEWAY|1=918237|6=15.7|11=66|14=18500|17=PETR400008|31=15.7|32=18500|37=66|38=18500|39=2|40=2|44=15.7|54=1|55=PETR4|60=20211127-13:45:02.020|75=2021-11-27|150=F|151=0|207=BVMF|581=39|1010=290450|1011=RODRIGUEZ|453=1|448=RODRIGUEZ|447=D|452=36|10=059|
8=FIX.4.4|9=307|35=8|34=10107|49=SYSTEM|52=20211127-11:51:16.866|56=DROPCOPY|128=GATEWAY|1=987453|6=11.76|11=56|14=12500|17=SLCE300009|31=11.76|32=1400|37=56|38=12500|39=2|40=2|44=11.76|54=2|55=SLCE3|60=20211127-11:51:16.866|75=2021-11-27|150=F|151=0|207=BVMF|581=39|1010=147000|1011=JOHNSON|453=1|448=JOHNSON|447=D|452=36|10=079|
8=FIX.4.4|9=308|35=8|34=10108|49=SYSTEM|52=20211127-15:19:08.493|56=DROPCOPY|128=GATEWAY|1=164532|6=12.26|11=70|14=3500|17=PETR400009|31=12.26|32=3500|37=70|38=3500|39=2|40=2|44=12.26|54=2|55=PETR4|60=20211127-15:19:08.493|75=2021-11-27|150=F|151=0|207=BVMF|581=39|1010=42910|1011=RODRIGUEZ|453=1|448=RODRIGUEZ|447=D|452=36|10=017|
8=FIX.4.4|9=310|35=8|34=10109|49=SYSTEM|52=20211127-12:15:01.369|56=DROPCOPY|128=GATEWAY|1=164532|6=12.75|11=71|14=10500|17=IGTI300019|31=12.75|32=10500|37=71|38=10500|39=2|40=2|44=12.75|54=2|55=IGTI3|60=20211127-12:15:01.369|75=2021-11-27|150=F|151=0|207=BVMF|581=39|1010=133875|1011=MARTINEZ|453=1|448=MARTINEZ|447=D|452=36|10=007|
8=FIX.4.4|9=311|35=8|34=10110|49=SYSTEM|52=20211127-15:04:32.164|56=DROPCOPY|128=GATEWAY|1=849651|6=10.75|11=67|14=23500|17=BPAC1100005|31=10.75|32=9900|37=67|38=23500|39=2|40=2|44=10.75|54=1|55=BPAC11|60=20211127-15:04:32.164|75=2021-11-27|150=F|151=0|207=BVMF|581=39|1010=252625|1011=WILLIAMS|453=1|448=WILLIAMS|447=D|452=36|10=005|
8=FIX.4.4|9=316|35=8|34=10111|49=SYSTEM|52=20211127-11:06:47.687|56=DROPCOPY|128=GATEWAY|1=981727|6=19.85|11=72|14=24500|17=ITUB400007|31=19.85|32=24500|37=72|38=24500|39=2|40=2|44=19.85|54=2|55=ITUB4|60=20211127-11:06:47.687|75=2021-11-27|150=F|151=0|207=BVMF|581=39|1010=486325.00000000006|1011=JONES|453=1|448=JONES|447=D|452=36|10=208|
8=FIX.4.4|9=306|35=8|34=10112|49=SYSTEM|52=20211127-13:47:06.275|56=DROPCOPY|128=GATEWAY|1=849651|6=12.56|11=73|14=6500|17=POMO400021|31=12.56|32=6500|37=73|38=6500|39=2|40=2|44=12.56|54=1|55=POMO4|60=20211127-13:47:06.275|75=2021-11-27|150=F|151=0|207=BVMF|581=39|1010=81640|1011=MARTINEZ|453=1|448=MARTINEZ|447=D|452=36|10=126|
8=FIX.4.4|9=306|35=8|34=10113|49=SYSTEM|52=20211127-15:23:41.662|56=DROPCOPY|128=GATEWAY|1=918237|6=10.12|11=74|14=7500|17=VALE300010|31=10.12|32=7500|37=74|38=7500|39=2|40=2|44=10.12|54=1|55=VALE3|60=20211127-15:23:41.662|75=2021-11-27|150=F|151=0|207=BVMF|581=39|1010=75900|1011=WILLIAMS|453=1|448=WILLIAMS|447=D|452=36|10=033|
8=FIX.4.4|9=305|35=8|34=10114|49=SYSTEM|52=20211127-13:10:07.211|56=DROPCOPY|128=GATEWAY|1=918237|6=18.64|11=50|14=10500|17=GOAU400022|31=18.64|32=2500|37=50|38=10500|39=2|40=2|44=18.64|54=2|55=GOAU4|60=20211127-13:10:07.211|75=2021-11-27|150=F|151=0|207=BVMF|581=39|1010=195720|1011=MILLER|453=1|448=MILLER|447=D|452=36|10=124|
8=FIX.4.4|9=304|35=8|34=10115|49=SYSTEM|52=20211127-16:59:22.399|56=DROPCOPY|128=GATEWAY|1=918239|6=16.64|11=54|14=23500|17=IGTI300020|31=16.64|32=11700|37=54|38=23500|39=2|40=2|44=16.64|54=1|55=IGTI3|60=20211127-16:59:22.399|75=2021-11-27|150=F|151=0|207=BVMF|581=39|1010=391040|1011=SMITH|453=1|448=SMITH|447=D|452=36|10=108|
8=FIX.4.4|9=298|35=8|34=10118|49=SYSTEM|52=20211127-13:48:21.692|56=DROPCOPY|128=GATEWAY|1=498213|6=18.7|11=77|14=9500|17=GOAU400023|31=18.7|32=9500|37=77|38=9500|39=2|40=2|44=18.7|54=2|55=GOAU4|60=20211127-13:48:21.692|75=2021-11-27|150=F|151=0|207=BVMF|581=39|1010=177650|1011=DAVIS|453=1|448=DAVIS|447=D|452=36|10=071|
8=FIX.4.4|9=301|35=8|34=10119|49=SYSTEM|52=20211127-17:37:43.257|56=DROPCOPY|128=GATEWAY|1=987453|6=18.32|11=58|14=6500|17=BBAS300005|31=18.32|32=1800|37=58|38=6500|39=2|40=2|44=18.32|54=2|55=BBAS3|60=20211127-17:37:43.257|75=2021-11-27|150=F|151=0|207=BVMF|581=39|1010=119080|1011=DAVIS|453=1|448=DAVIS|447=D|452=36|10=148|
8=FIX.4.4|9=310|35=8|34=10120|49=SYSTEM|52=20211127-10:08:25.619|56=DROPCOPY|128=GATEWAY|1=918237|6=16.39|11=78|14=11500|17=IGTI300021|31=16.39|32=11500|37=78|38=11500|39=2|40=2|44=16.39|54=2|55=IGTI3|60=20211127-10:08:25.619|75=2021-11-27|150=F|151=0|207=BVMF|581=39|1010=188485|1011=MARTINEZ|453=1|448=MARTINEZ|447=D|452=36|10=046|
8=FIX.4.4|9=309|35=8|34=10123|49=SYSTEM|52=20211127-15:13:36.320|56=DROPCOPY|128=GATEWAY|1=849651|6=11.7|11=62|14=19500|17=RAPT400011|31=11.7|32=13500|37=62|38=19500|39=2|40=2|44=11.7|54=1|55=RAPT4|60=20211127-15:13:36.320|75=2021-11-27|150=F|151=0|207=BVMF|581=39|1010=228150|1011=RODRIGUEZ|453=1|448=RODRIGUEZ|447=D|452=36|10=040|
8=FIX.4.4|9=310|35=8|34=10127|49=SYSTEM|52=20211127-14:35:13.908|56=DROPCOPY|128=GATEWAY|1=849651|6=16.29|11=81|14=17500|17=PETR400010|31=16.29|32=17500|37=81|38=17500|39=2|40=2|44=16.29|54=1|55=PETR4|60=20211127-14:35:13.908|75=2021-11-27|150=F|151=0|207=BVMF|581=39|1010=285075|1011=MARTINEZ|453=1|448=MARTINEZ|447=D|452=36|10=083|
8=FIX.4.4|9=306|35=8|34=10129|49=SYSTEM|52=20211127-12:26:46.993|56=DROPCOPY|128=GATEWAY|1=987453|6=10.31|11=82|14=16500|17=GOAU400024|31=10.31|32=16500|37=82|38=16500|39=2|40=2|44=10.31|54=1|55=GOAU4|60=20211127-12:26:46.993|75=2021-11-27|150=F|151=0|207=BVMF|581=39|1010=170115|1011=MILLER|453=1|448=MILLER|447=D|452=36|10=214|
8=FIX.4.4|9=304|35=8|34=10132|49=SYSTEM|52=20211127-15:28:37.948|56=DROPCOPY|128=GATEWAY|1=987453|6=19.83|11=84|14=3500|17=IGTI300023|31=19.83|32=3500|37=84|38=3500|39=2|40=2|44=19.83|54=2|55=IGTI3|60=20211127-15:28:37.948|75=2021-11-27|150=F|151=0|207=BVMF|581=39|1010=69405|1011=JOHNSON|453=1|448=JOHNSON|447=D|452=36|10=253|
8=FIX.4.4|9=306|35=8|34=10134|49=SYSTEM|52=20211127-14:40:50.367|56=DROPCOPY|128=GATEWAY|1=164532|6=14.23|11=85|14=22500|17=SLCE300010|31=14.23|32=22500|37=85|38=22500|39=2|40=2|44=14.23|54=1|55=SLCE3|60=20211127-14:40:50.367|75=2021-11-27|150=F|151=0|207=BVMF|581=39|1010=320175|1011=GARCIA|453=1|448=GARCIA|447=D|452=36|10=109|
8=FIX.4.4|9=320|35=8|34=10135|49=SYSTEM|52=20211127-10:08:12.227|56=DROPCOPY|128=GATEWAY|1=849651|6=17.08|11=86|14=5500|17=IGTI300024|31=17.08|32=5500|37=86|38=5500|39=2|40=2|44=17.08|54=2|55=IGTI3|60=20211127-10:08:12.227|75=2021-11-27|150=F|151=0|207=BVMF|581=39|1010=93939.99999999999|1011=RODRIGUEZ|453=1|448=RODRIGUEZ|447=D|452=36|10=169|
8=FIX.4.4|9=303|35=8|34=10136|49=SYSTEM|52=20211127-17:01:06.716|56=DROPCOPY|128=GATEWAY|1=981727|6=15.47|11=68|14=14500|17=GOAU400025|31=15.47|32=8400|37=68|38=14500|39=2|40=2|44=15.47|54=2|55=GOAU4|60=20211127-17:01:06.716|75=2021-11-27|150=F|151=0|207=BVMF|581=39|1010=224315|1011=SMITH|453=1|448=SMITH|447=D|452=36|10=049|
8=FIX.4.4|9=308|35=8|34=10137|49=SYSTEM|52=20211127-15:29:34.397|56=DROPCOPY|128=GATEWAY|1=918239|6=14.07|11=87|14=24500|17=PETR400011|31=14.07|32=24500|37=87|38=24500|39=2|40=2|44=14.07|54=2|55=PETR4|60=20211127-15:29:34.397|75=2021-11-27|150=F|151=0|207=BVMF|581=39|1010=344715|1011=JOHNSON|453=1|448=JOHNSON|447=D|452=36|10=201|
8=FIX.4.4|9=306|35=8|34=10138|49=SYSTEM|52=20211127-13:49:24.197|56=DROPCOPY|128=GATEWAY|1=918237|6=13.06|11=88|14=10500|17=BBAS300006|31=13.06|32=10500|37=88|38=10500|39=2|40=2|44=13.06|54=1|55=BBAS3|60=20211127-13:49:24.197|75=2021-11-27|150=F|151=0|207=BVMF|581=39|1010=137130|1011=GARCIA|453=1|448=GARCIA|447=D|452=36|10=111|
8=FIX.4.4|9=305|35=8|34=10139|49=SYSTEM|52=20211127-16:16:13.550|56=DROPCOPY|128=GATEWAY|1=981727|6=14.52|11=79|14=24500|17=BPAC1100010|31=14.52|32=1900|37=79|38=24500|39=2|40=2|44=14.52|54=1|55=BPAC11|60=20211127-16:16:13.550|75=2021-11-27|150=F|151=0|207=BVMF|581=39|1010=355740|1011=BROWN|453=1|448=BROWN|447=D|452=36|10=095|
8=FIX.4.4|9=299|35=8|34=10141|49=SYSTEM|52=20211127-17:54:36.669|56=DROPCOPY|128=GATEWAY|1=071264|6=16.14|11=76|14=4500|17=BBAS300007|31=16.14|32=200|37=76|38=4500|39=2|40=2|44=16.14|54=1|55=BBAS3|60=20211127-17:54:36.669|75=2021-11-27|150=F|151=0|207=BVMF|581=39|1010=72630|1011=BROWN|453=1|448=BROWN|447=D|452=36|10=080|
8=FIX.4.4|9=307|35=8|34=10146|49=SYSTEM|52=20211127-15:04:55.744|56=DROPCOPY|128=GATEWAY|1=164532|6=16.89|11=69|14=15500|17=GOAU400026|31=16.89|32=1900|37=69|38=15500|39=2|40=2|44=16.89|54=1|55=GOAU4|60=20211127-15:04:55.744|75=2021-11-27|150=F|151=0|207=BVMF|581=39|1010=261795|1011=JOHNSON|453=1|448=JOHNSON|447=D|452=36|10=141|
8=FIX.4.4|9=302|35=8|34=10147|49=SYSTEM|52=20211127-16:54:44.372|56=DROPCOPY|128=GATEWAY|1=918239|6=14.96|11=51|14=19500|17=RAPT400016|31=14.96|32=100|37=51|38=19500|39=2|40=2|44=14.96|54=2|55=RAPT4|60=20211127-16:54:44.372|75=2021-11-27|150=F|151=0|207=BVMF|581=39|1010=291720|1011=SMITH|453=1|448=SMITH|447=D|452=36|10=032|
8=FIX.4.4|9=301|35=8|34=10148|49=SYSTEM|52=20211127-17:48:06.728|56=DROPCOPY|128=GATEWAY|1=918237|6=15.85|11=90|14=6500|17=ITUB400008|31=15.85|32=6500|37=90|38=6500|39=2|40=2|44=15.85|54=1|55=ITUB4|60=20211127-17:48:06.728|75=2021-11-27|150=F|151=0|207=BVMF|581=39|1010=103025|1011=JONES|453=1|448=JONES|447=D|452=36|10=229|
8=FIX.4.4|9=306|35=8|34=10149|49=SYSTEM|52=20211127-16:31:40.178|56=DROPCOPY|128=GATEWAY|1=918237|6=12.85|11=75|14=22500|17=BPAC1100011|31=12.85|32=14300|37=75|38=22500|39=2|40=2|44=12.85|54=1|55=BPAC11|60=20211127-16:31:40.178|75=2021-11-27|150=F|151=0|207=BVMF|581=39|1010=289125|1011=JONES|453=1|448=JONES|447=D|452=36|10=131|
8=FIX.4.4|9=306|35=8|34=10151|49=SYSTEM|52=20211127-12:24:03.689|56=DROPCOPY|128=GATEWAY|1=981727|6=12.65|11=92|14=16500|17=SLCE300011|31=12.65|32=16500|37=92|38=16500|39=2|40=2|44=12.65|54=1|55=SLCE3|60=20211127-12:24:03.689|75=2021-11-27|150=F|151=0|207=BVMF|581=39|1010=208725|1011=GARCIA|453=1|448=GARCIA|447=D|452=36|10=155|
8=FIX.4.4|9=304|35=8|34=10152|49=SYSTEM|52=20211127-15:53:46.860|56=DROPCOPY|128=GATEWAY|1=918237|6=19.48|11=93|14=14500|17=GOAU400027|31=19.48|32=14500|37=93|38=14500|39=2|40=2|44=19.48|54=1|55=GOAU4|60=20211127-15:53:46.860|75=2021-11-27|150=F|151=0|207=BVMF|581=39|1010=282460|1011=BROWN|453=1|448=BROWN|447=D|452=36|10=131|
8=FIX.4.4|9=305|35=8|34=10155|49=SYSTEM|52=20211127-16:20:19.688|56=DROPCOPY|128=GATEWAY|1=164532|6=17.88|11=80|14=3500|17=RAPT400019|31=17.88|32=500|37=80|38=3500|39=2|40=2|44=17.88|54=2|55=RAPT4|60=20211127-16:20:19.688|75=2021-11-27|150=F|151=0|207=BVMF|581=39|1010=62580|1011=WILLIAMS|453=1|448=WILLIAMS|447=D|452=36|10=084|
8=FIX.4.4|9=304|35=8|34=10156|49=SYSTEM|52=20211127-12:17:02.401|56=DROPCOPY|128=GATEWAY|1=071264|6=15.16|11=94|14=19500|17=POMO400022|31=15.16|32=19500|37=94|38=19500|39=2|40=2|44=15.16|54=1|55=POMO4|60=20211127-12:17:02.401|75=2021-11-27|150=F|151=0|207=BVMF|581=39|1010=295620|1011=JONES|453=1|448=JONES|447=D|452=36|10=084|
8=FIX.4.4|9=316|35=8|34=10157|49=SYSTEM|52=20211127-16:32:05.212|56=DROPCOPY|128=GATEWAY|1=071264|6=18.92|11=91|14=24500|17=ITUB400010|31=18.92|32=14400|37=91|38=24500|39=2|40=2|44=18.92|54=2|55=ITUB4|60=20211127-16:32:05.212|75=2021-11-27|150=F|151=0|207=BVMF|581=39|1010=463540.00000000006|1011=JONES|453=1|448=JONES|447=D|452=36|10=147|
8=FIX.4.4|9=300|35=8|34=10159|49=SYSTEM|52=20211127-15:46:08.869|56=DROPCOPY|128=GATEWAY|1=498213|6=19.61|11=95|14=3500|17=VALE300013|31=19.61|32=3500|37=95|38=3500|39=2|40=2|44=19.61|54=1|55=VALE3|60=20211127-15:46:08.869|75=2021-11-27|150=F|151=0|207=BVMF|581=39|1010=68635|1011=BROWN|453=1|448=BROWN|447=D|452=36|10=187|
8=FIX.4.4|9=304|35=8|34=10160|49=SYSTEM|52=20211127-15:56:57.183|56=DROPCOPY|128=GATEWAY|1=987453|6=15.71|11=96|14=12500|17=GOAU400028|31=15.71|32=12500|37=96|38=12500|39=2|40=2|44=15.71|54=2|55=GOAU4|60=20211127-15:56:57.183|75=2021-11-27|150=F|151=0|207=BVMF|581=39|1010=196375|1011=SMITH|453=1|448=SMITH|447=D|452=36|10=123|
8=FIX.4.4|9=304|35=8|34=10163|49=SYSTEM|52=20211127-15:33:16.374|56=DROPCOPY|128=GATEWAY|1=981727|6=14.61|11=99|14=17500|17=POMO400023|31=14.61|32=17500|37=99|38=17500|39=2|40=2|44=14.61|54=2|55=POMO4|60=20211127-15:33:16.374|75=2021-11-27|150=F|151=0|207=BVMF|581=39|1010=255675|1011=BROWN|453=1|448=BROWN|447=D|452=36|10=153|
8=FIX.4.4|9=308|35=8|34=10166|49=SYSTEM|52=20211127-14:58:40.887|56=DROPCOPY|128=GATEWAY|1=918239|6=15.36|11=41|14=18500|17=IGTI300028|31=15.36|32=100|37=41|38=18500|39=2|40=2|44=15.36|54=1|55=IGTI3|60=20211127-14:58:40.887|75=2021-11-27|150=F|151=0|207=BVMF|581=39|1010=284160|1011=WILLIAMS|453=1|448=WILLIAMS|447=D|452=36|10=204|
8=FIX.4.4|9=308|35=8|34=10167|49=SYSTEM|52=20211127-10:52:51.697|56=DROPCOPY|128=GATEWAY|1=987453|6=14.36|11=102|14=6500|17=GOAU400029|31=14.36|32=6500|37=102|38=6500|39=2|40=2|44=14.36|54=1|55=GOAU4|60=20211127-10:52:51.697|75=2021-11-27|150=F|151=0|207=BVMF|581=39|1010=93340|1011=MARTINEZ|453=1|448=MARTINEZ|447=D|452=36|10=203|
8=FIX.4.4|9=304|35=8|34=10169|49=SYSTEM|52=20211127-16:46:32.348|56=DROPCOPY|128=GATEWAY|1=498213|6=16.66|11=35|14=10500|17=RAPT400020|31=16.66|32=100|37=35|38=10500|39=2|40=2|44=16.66|54=1|55=RAPT4|60=20211127-16:46:32.348|75=2021-11-27|150=F|151=0|207=BVMF|581=39|1010=174930|1011=MILLER|453=1|448=MILLER|447=D|452=36|10=143|
8=FIX.4.4|9=308|35=8|34=10170|49=SYSTEM|52=20211127-16:46:45.507|56=DROPCOPY|128=GATEWAY|1=981727|6=13.79|11=104|14=3500|17=VALE300016|31=13.79|32=3500|37=104|38=3500|39=2|40=2|44=13.79|54=2|55=VALE3|60=20211127-16:46:45.507|75=2021-11-27|150=F|151=0|207=BVMF|581=39|1010=48265|1011=WILLIAMS|453=1|448=WILLIAMS|447=D|452=36|10=189|
8=FIX.4.4|9=309|35=8|34=10171|49=SYSTEM|52=20211127-16:19:53.490|56=DROPCOPY|128=GATEWAY|1=164532|6=13.11|11=83|14=22500|17=VALE300017|31=13.11|32=4300|37=83|38=22500|39=2|40=2|44=13.11|54=2|55=VALE3|60=20211127-16:19:53.490|75=2021-11-27|150=F|151=0|207=BVMF|581=39|1010=294975|1011=WILLIAMS|453=1|448=WILLIAMS|447=D|452=36|10=209|
8=FIX.4.4|9=310|35=8|34=10174|49=SYSTEM|52=20211127-17:31:24.966|56=DROPCOPY|128=GATEWAY|1=498213|6=13.76|11=106|14=21500|17=GOAU400030|31=13.76|32=21500|37=106|38=21500|39=2|40=2|44=13.76|54=1|55=GOAU4|60=20211127-17:31:24.966|75=2021-11-27|150=F|151=0|207=BVMF|581=39|1010=295840|1011=JOHNSON|453=1|448=JOHNSON|447=D|452=36|10=242|
8=FIX.4.4|9=302|35=8|34=10178|49=SYSTEM|52=20211127-16:02:40.595|56=DROPCOPY|128=GATEWAY|1=981727|6=19.91|11=109|14=3500|17=VALE300018|31=19.91|32=3500|37=109|38=3500|39=2|40=2|44=19.91|54=2|55=VALE3|60=20211127-16:02:40.595|75=2021-11-27|150=F|151=0|207=BVMF|581=39|1010=69685|1011=SMITH|453=1|448=SMITH|447=D|452=36|10=014|
8=FIX.4.4|9=313|35=8|34=10184|49=SYSTEM|52=20211127-14:52:29.998|56=DROPCOPY|128=GATEWAY|1=071264|6=10.66|11=110|14=13500|17=IGTI300031|31=10.66|32=1700|37=110|38=13500|39=2|40=2|44=10.66|54=1|55=IGTI3|60=20211127-14:52:29.998|75=2021-11-27|150=F|151=0|207=BVMF|581=39|1010=143910|1011=RODRIGUEZ|453=1|448=RODRIGUEZ|447=D|452=36|10=238|
8=FIX.4.4|9=304|35=8|34=10188|49=SYSTEM|52=20211127-12:46:53.309|56=DROPCOPY|128=GATEWAY|1=918239|6=13.17|11=112|14=3500|17=BBAS300011|31=13.17|32=3500|37=112|38=3500|39=2|40=2|44=13.17|54=2|55=BBAS3|60=20211127-12:46:53.309|75=2021-11-27|150=F|151=0|207=BVMF|581=39|1010=46095|1011=MILLER|453=1|448=MILLER|447=D|452=36|10=060|
8=FIX.4.4|9=308|35=8|34=10189|49=SYSTEM|52=20211127-17:08:25.490|56=DROPCOPY|128=GATEWAY|1=918237|6=12.7|11=111|14=16500|17=RAPT400024|31=12.7|32=6100|37=111|38=16500|39=2|40=2|44=12.7|54=2|55=RAPT4|60=20211127-17:08:25.490|75=2021-11-27|150=F|151=0|207=BVMF|581=39|1010=209550|1011=MARTINEZ|453=1|448=MARTINEZ|447=D|452=36|10=207|
8=FIX.4.4|9=321|35=8|34=10190|49=SYSTEM|52=20211127-17:55:58.327|56=DROPCOPY|128=GATEWAY|1=918239|6=18.26|11=53|14=24500|17=PETR400014|31=18.26|32=2200|37=53|38=24500|39=2|40=2|44=18.26|54=2|55=PETR4|60=20211127-17:55:58.327|75=2021-11-27|150=F|151=0|207=BVMF|581=39|1010=447370.00000000006|1011=MARTINEZ|453=1|448=MARTINEZ|447=D|452=36|10=107|
8=FIX.4.4|9=312|35=8|34=10191|49=SYSTEM|52=20211127-11:19:37.555|56=DROPCOPY|128=GATEWAY|1=071264|6=15.72|11=113|14=11500|17=VALE300019|31=15.72|32=11500|37=113|38=11500|39=2|40=2|44=15.72|54=2|55=VALE3|60=20211127-11:19:37.555|75=2021-11-27|150=F|151=0|207=BVMF|581=39|1010=180780|1011=MARTINEZ|453=1|448=MARTINEZ|447=D|452=36|10=107|
8=FIX.4.4|9=312|35=8|34=10192|49=SYSTEM|52=20211127-11:57:43.142|56=DROPCOPY|128=GATEWAY|1=987453|6=14.91|11=114|14=13500|17=GOAU400032|31=14.91|32=13500|37=114|38=13500|39=2|40=2|44=14.91|54=2|55=GOAU4|60=20211127-11:57:43.142|75=2021-11-27|150=F|151=0|207=BVMF|581=39|1010=201285|1011=WILLIAMS|453=1|448=WILLIAMS|447=D|452=36|10=097|
8=FIX.4.4|9=310|35=8|34=10193|49=SYSTEM|52=20211127-13:52:19.031|56=DROPCOPY|128=GATEWAY|1=164532|6=19.02|11=108|14=17500|17=RAPT400025|31=19.02|32=14400|37=108|38=17500|39=2|40=2|44=19.02|54=1|55=RAPT4|60=20211127-13:52:19.031|75=2021-11-27|150=F|151=0|207=BVMF|581=39|1010=332850|1011=JOHNSON|453=1|448=JOHNSON|447=D|452=36|10=228|
8=FIX.4.4|9=292|35=8|34=10196|49=SYSTEM|52=20211127-17:14:21.366|56=DROPCOPY|128=GATEWAY|1=071264|6=11|11=89|14=8500|17=BBAS300012|31=11|32=200|37=89|38=8500|39=2|40=2|44=11|54=2|55=BBAS3|60=20211127-17:14:21.366|75=2021-11-27|150=F|151=0|207=BVMF|581=39|1010=93500|1011=GARCIA|453=1|448=GARCIA|447=D|452=36|10=181|
8=FIX.4.4|9=306|35=8|34=10198|49=SYSTEM|52=20211127-16:19:48.814|56=DROPCOPY|128=GATEWAY|1=849651|6=10.34|11=116|14=14500|17=POMO400027|31=10.34|32=14500|37=116|38=14500|39=2|40=2|44=10.34|54=2|55=POMO4|60=20211127-16:19:48.814|75=2021-11-27|150=F|151=0|207=BVMF|581=39|1010=149930|1011=BROWN|453=1|448=BROWN|447=D|452=36|10=235|
8=FIX.4.4|9=321|35=8|34=10200|49=SYSTEM|52=20211127-14:40:33.424|56=DROPCOPY|128=GATEWAY|1=918237|6=10.3|11=107|14=12500|17=GOAU400033|31=10.3|32=12300|37=107|38=12500|39=2|40=2|44=10.3|54=1|55=GOAU4|60=20211127-14:40:33.424|75=2021-11-27|150=F|151=0|207=BVMF|581=39|1010=128750.00000000001|1011=WILLIAMS|453=1|448=WILLIAMS|447=D|452=36|10=221|
8=FIX.4.4|9=308|35=8|34=10201|49=SYSTEM|52=20211127-12:54:34.690|56=DROPCOPY|128=GATEWAY|1=071264|6=13.78|11=118|14=1500|17=BPAC1100016|31=13.78|32=1500|37=118|38=1500|39=2|40=2|44=13.78|54=1|55=BPAC11|60=20211127-12:54:34.690|75=2021-11-27|150=F|151=0|207=BVMF|581=39|1010=20670|1011=JOHNSON|453=1|448=JOHNSON|447=D|452=36|10=076|
8=FIX.4.4|9=306|35=8|34=10202|49=SYSTEM|52=20211127-11:20:26.209|56=DROPCOPY|128=GATEWAY|1=498213|6=12.06|11=119|14=3500|17=RAPT400027|31=12.06|32=3500|37=119|38=3500|39=2|40=2|44=12.06|54=2|55=RAPT4|60=20211127-11:20:26.209|75=2021-11-27|150=F|151=0|207=BVMF|581=39|1010=42210|1011=JOHNSON|453=1|448=JOHNSON|447=D|452=36|10=009|
8=FIX.4.4|9=302|35=8|34=10204|49=SYSTEM|52=20211127-17:53:01.292|56=DROPCOPY|128=GATEWAY|1=849651|6=13.88|11=97|14=20500|17=VALE300020|31=13.88|32=200|37=97|38=20500|39=2|40=2|44=13.88|54=2|55=VALE3|60=20211127-17:53:01.292|75=2021-11-27|150=F|151=0|207=BVMF|581=39|1010=284540|1011=SMITH|453=1|448=SMITH|447=D|452=36|10=241|
8=FIX.4.4|9=308|35=8|34=10206|49=SYSTEM|52=20211127-17:48:37.864|56=DROPCOPY|128=GATEWAY|1=879865|6=19.59|11=101|14=15500|17=BPAC1100018|31=19.59|32=400|37=101|38=15500|39=2|40=2|44=19.59|54=2|55=BPAC11|60=20211127-17:48:37.864|75=2021-11-27|150=F|151=0|207=BVMF|581=39|1010=303645|1011=MILLER|453=1|448=MILLER|447=D|452=36|10=064|
8=FIX.4.4|9=313|35=8|34=10207|49=SYSTEM|52=20211127-14:54:05.729|56=DROPCOPY|128=GATEWAY|1=164532|6=15.17|11=115|14=12500|17=BPAC1100019|31=15.17|32=1500|37=115|38=12500|39=2|40=2|44=15.17|54=1|55=BPAC11|60=20211127-14:54:05.729|75=2021-11-27|150=F|151=0|207=BVMF|581=39|1010=189625|1011=WILLIAMS|453=1|448=WILLIAMS|447=D|452=36|10=109|
8=FIX.4.4|9=304|35=8|34=10208|49=SYSTEM|52=20211127-17:59:43.904|56=DROPCOPY|128=GATEWAY|1=987453|6=13.27|11=98|14=9500|17=IGTI300034|31=13.27|32=100|37=98|38=9500|39=2|40=2|44=13.27|54=2|55=IGTI3|60=20211127-17:59:43.904|75=2021-11-27|150=F|151=0|207=BVMF|581=39|1010=126065|1011=JOHNSON|453=1|448=JOHNSON|447=D|452=36|10=236|
8=FIX.4.4|9=302|35=8|34=10210|49=SYSTEM|52=20211127-10:34:26.300|56=DROPCOPY|128=GATEWAY|1=918237|6=15.77|11=121|14=3500|17=IGTI300035|31=15.77|32=3500|37=121|38=3500|39=2|40=2|44=15.77|54=1|55=IGTI3|60=20211127-10:34:26.300|75=2021-11-27|150=F|151=0|207=BVMF|581=39|1010=55195|1011=SMITH|453=1|448=SMITH|447=D|452=36|10=214|
8=FIX.4.4|9=305|35=8|34=10214|49=SYSTEM|52=20211127-12:43:21.347|56=DROPCOPY|128=GATEWAY|1=498213|6=11.93|11=117|14=20500|17=RAPT400028|31=11.93|32=3800|37=117|38=20500|39=2|40=2|44=11.93|54=1|55=RAPT4|60=20211127-12:43:21.347|75=2021-11-27|150=F|151=0|207=BVMF|581=39|1010=244565|1011=SMITH|453=1|448=SMITH|447=D|452=36|10=140|
8=FIX.4.4|9=306|35=8|34=10218|49=SYSTEM|52=20211127-15:34:54.614|56=DROPCOPY|128=GATEWAY|1=981727|6=14.22|11=105|14=22500|17=RAPT400029|31=14.22|32=21500|37=105|38=22500|39=2|40=2|44=14.22|54=2|55=RAPT4|60=20211127-15:34:54.614|75=2021-11-27|150=F|151=0|207=BVMF|581=39|1010=319950|1011=BROWN|453=1|448=BROWN|447=D|452=36|10=201|
8=FIX.4.4|9=309|35=8|34=10219|49=SYSTEM|52=20211127-17:30:30.903|56=DROPCOPY|128=GATEWAY|1=918237|6=12.12|11=103|14=24500|17=POMO400028|31=12.12|32=5800|37=103|38=24500|39=2|40=2|44=12.12|54=1|55=POMO4|60=20211127-17:30:30.903|75=2021-11-27|150=F|151=0|207=BVMF|581=39|1010=296940|1011=JOHNSON|453=1|448=JOHNSON|447=D|452=36|10=190|
8=FIX.4.4|9=319|35=8|34=10220|49=SYSTEM|52=20211127-17:26:12.796|56=DROPCOPY|128=GATEWAY|1=918237|6=18.08|11=120|14=3500|17=BPAC1100023|31=18.08|32=800|37=120|38=3500|39=2|40=2|44=18.08|54=1|55=BPAC11|60=20211127-17:26:12.796|75=2021-11-27|150=F|151=0|207=BVMF|581=39|1010=63279.99999999999|1011=JOHNSON|453=1|448=JOHNSON|447=D|452=36|10=212|
8=FIX.4.4|9=315|35=8|34=10222|49=SYSTEM|52=20211127-10:23:11.149|56=DROPCOPY|128=GATEWAY|1=918237|6=18.26|11=124|14=9500|17=POMO400029|31=18.26|32=9500|37=124|38=9500|39=2|40=2|44=18.26|54=2|55=POMO4|60=20211127-10:23:11.149|75=2021-11-27|150=F|151=0|207=BVMF|581=39|1010=173470.00000000003|1011=JONES|453=1|448=JONES|447=D|452=36|10=118|
8=FIX.4.4|9=305|35=8|34=10225|49=SYSTEM|52=20211127-17:57:31.219|56=DROPCOPY|128=GATEWAY|1=918239|6=11.72|11=123|14=1500|17=GOAU400037|31=11.72|32=100|37=123|38=1500|39=2|40=2|44=11.72|54=1|55=GOAU4|60=20211127-17:57:31.219|75=2021-11-27|150=F|151=0|207=BVMF|581=39|1010=17580|1011=JOHNSON|453=1|448=JOHNSON|447=D|452=36|10=227|
8=FIX.4.4|9=303|35=8|34=10226|49=SYSTEM|52=20211127-16:30:56.849|56=DROPCOPY|128=GATEWAY|1=987453|6=10.2|11=125|14=15500|17=SLCE300013|31=10.2|32=15200|37=125|38=15500|39=2|40=2|44=10.2|54=1|55=SLCE3|60=20211127-16:30:56.849|75=2021-11-27|150=F|151=0|207=BVMF|581=39|1010=158100|1011=JONES|453=1|448=JONES|447=D|452=36|10=247|
8=FIX.4.4|9=319|35=8|34=10227|49=SYSTEM|52=20211127-17:03:54.159|56=DROPCOPY|128=GATEWAY|1=071264|6=18.26|11=100|14=21500|17=VALE300023|31=18.26|32=4000|37=100|38=21500|39=2|40=2|44=18.26|54=1|55=VALE3|60=20211127-17:03:54.159|75=2021-11-27|150=F|151=0|207=BVMF|581=39|1010=392590.00000000006|1011=MILLER|453=1|448=MILLER|447=D|452=36|10=051|
8=FIX.4.4|9=307|35=8|34=10228|49=SYSTEM|52=20211127-17:54:27.244|56=DROPCOPY|128=GATEWAY|1=918239|6=15.94|11=122|14=9500|17=IGTI300038|31=15.94|32=2500|37=122|38=9500|39=2|40=2|44=15.94|54=1|55=IGTI3|60=20211127-17:54:27.244|75=2021-11-27|150=F|151=0|207=BVMF|581=39|1010=151430|1011=JOHNSON|453=1|448=JOHNSON|447=D|452=36|10=110|
8=FIX.4.4|9=305|35=8|34=10229|49=SYSTEM|52=20211127-17:20:30.173|56=DROPCOPY|128=GATEWAY|1=918237|6=17.97|11=126|14=7500|17=BPAC1100024|31=17.97|32=7500|37=126|38=7500|39=2|40=2|44=17.97|54=1|55=BPAC11|60=20211127-17:20:30.173|75=2021-11-27|150=F|151=0|207=BVMF|581=39|1010=134775|1011=JONES|453=1|448=JONES|447=D|452=36|10=099|
8=FIX.4.4|9=308|35=8|34=10230|49=SYSTEM|52=20211127-14:22:55.792|56=DROPCOPY|128=GATEWAY|1=071264|6=14.08|11=127|14=24500|17=VALE300024|31=14.08|32=24500|37=127|38=24500|39=2|40=2|44=14.08|54=1|55=VALE3|60=20211127-14:22:55.792|75=2021-11-27|150=F|151=0|207=BVMF|581=39|1010=344960|1011=GARCIA|453=1|448=GARCIA|447=D|452=36|10=241|
8=FIX.4.4|9=308|35=8|34=10231|49=SYSTEM|52=20211127-16:04:40.717|56=DROPCOPY|128=GATEWAY|1=164532|6=13.3|11=128|14=8500|17=BBAS300013|31=13.3|32=8500|37=128|38=8500|39=2|40=2|44=13.3|54=1|55=BBAS3|60=20211127-16:04:40.717|75=2021-11-27|150=F|151=0|207=BVMF|581=39|1010=113050|1011=RODRIGUEZ|453=1|448=RODRIGUEZ|447=D|452=36|10=177|
8=FIX.4.4|9=302|35=8|34=10232|49=SYSTEM|52=20211127-13:30:37.110|56=DROPCOPY|128=GATEWAY|1=918237|6=18.59|11=129|14=1500|17=ITUB400011|31=18.59|32=1500|37=129|38=1500|39=2|40=2|44=18.59|54=1|55=ITUB4|60=20211127-13:30:37.110|75=2021-11-27|150=F|151=0|207=BVMF|581=39|1010=27885|1011=SMITH|453=1|448=SMITH|447=D|452=36|10=252|
8=FIX.4.4|9=322|35=8|34=10236|49=SYSTEM|52=20211127-10:13:13.137|56=DROPCOPY|128=GATEWAY|1=981727|6=16.33|11=133|14=11500|17=GOAU400038|31=16.33|32=11500|37=133|38=11500|39=2|40=2|44=16.33|54=1|55=GOAU4|60=20211127-10:13:13.137|75=2021-11-27|150=F|151=0|207=BVMF|581=39|1010=187794.99999999997|1011=JOHNSON|453=1|448=JOHNSON|447=D|452=36|10=117|
8=FIX.4.4|9=305|35=8|34=10237|49=SYSTEM|52=20211127-15:25:09.774|56=DROPCOPY|128=GATEWAY|1=164532|6=13.89|11=132|14=18500|17=ITUB400013|31=13.89|32=6800|37=132|38=18500|39=2|40=2|44=13.89|54=1|55=ITUB4|60=20211127-15:25:09.774|75=2021-11-27|150=F|151=0|207=BVMF|581=39|1010=256965|1011=BROWN|453=1|448=BROWN|447=D|452=36|10=198|
8=FIX.4.4|9=303|35=8|34=10238|49=SYSTEM|52=20211127-17:26:32.019|56=DROPCOPY|128=GATEWAY|1=498213|6=14.59|11=130|14=7500|17=POMO400031|31=14.59|32=3100|37=130|38=7500|39=2|40=2|44=14.59|54=2|55=POMO4|60=20211127-17:26:32.019|75=2021-11-27|150=F|151=0|207=BVMF|581=39|1010=109425|1011=BROWN|453=1|448=BROWN|447=D|452=36|10=068|
8=FIX.4.4|9=312|35=8|34=10244|49=SYSTEM|52=20211127-17:26:31.982|56=DROPCOPY|128=GATEWAY|1=981727|6=18.53|11=138|14=14500|17=RAPT400032|31=18.53|32=14500|37=138|38=14500|39=2|40=2|44=18.53|54=1|55=RAPT4|60=20211127-17:26:31.982|75=2021-11-27|150=F|151=0|207=BVMF|581=39|1010=268685|1011=WILLIAMS|453=1|448=WILLIAMS|447=D|452=36|10=174|
8=FIX.4.4|9=324|35=8|34=10245|49=SYSTEM|52=20211127-17:33:49.945|56=DROPCOPY|128=GATEWAY|1=879865|6=18.01|11=131|14=13500|17=RAPT400033|31=18.01|32=200|37=131|38=13500|39=2|40=2|44=18.01|54=2|55=RAPT4|60=20211127-17:33:49.945|75=2021-11-27|150=F|151=0|207=BVMF|581=39|1010=243135.00000000003|1011=RODRIGUEZ|453=1|448=RODRIGUEZ|447=D|452=36|10=030|
8=FIX.4.4|9=302|35=8|34=10247|49=SYSTEM|52=20211127-10:31:47.111|56=DROPCOPY|128=GATEWAY|1=164532|6=14.58|11=134|14=2500|17=GOAU400041|31=14.58|32=1700|37=134|38=2500|39=2|40=2|44=14.58|54=2|55=GOAU4|60=20211127-10:31:47.111|75=2021-11-27|150=F|151=0|207=BVMF|581=39|1010=36450|1011=DAVIS|453=1|448=DAVIS|447=D|452=36|10=178|
8=FIX.4.4|9=309|35=8|34=10249|49=SYSTEM|52=20211127-16:03:37.535|56=DROPCOPY|128=GATEWAY|1=987453|6=18.55|11=139|14=5500|17=IGTI300041|31=18.55|32=5500|37=139|38=5500|39=2|40=2|44=18.55|54=1|55=IGTI3|60=20211127-16:03:37.535|75=2021-11-27|150=F|151=0|207=BVMF|581=39|1010=102025|1011=WILLIAMS|453=1|448=WILLIAMS|447=D|452=36|10=248|
8=FIX.4.4|9=305|35=8|34=10250|49=SYSTEM|52=20211127-15:33:24.393|56=DROPCOPY|128=GATEWAY|1=987453|6=18.45|11=136|14=21500|17=PETR400017|31=18.45|32=1100|37=136|38=21500|39=2|40=2|44=18.45|54=1|55=PETR4|60=20211127-15:33:24.393|75=2021-11-27|150=F|151=0|207=BVMF|581=39|1010=396675|1011=JONES|453=1|448=JONES|447=D|452=36|10=172|
8=FIX.4.4|9=303|35=8|34=10253|49=SYSTEM|52=20211127-13:25:39.902|56=DROPCOPY|128=GATEWAY|1=918237|6=16.84|11=140|14=5500|17=PETR400019|31=16.84|32=400|37=140|38=5500|39=2|40=2|44=16.84|54=2|55=PETR4|60=20211127-13:25:39.902|75=2021-11-27|150=F|151=0|207=BVMF|581=39|1010=92620|1011=GARCIA|453=1|448=GARCIA|447=D|452=36|10=042|
8=FIX.4.4|9=305|35=8|34=10254|49=SYSTEM|52=20211127-17:49:32.866|56=DROPCOPY|128=GATEWAY|1=849651|6=16.91|11=137|14=13500|17=GOAU400043|31=16.91|32=6100|37=137|38=13500|39=2|40=2|44=16.91|54=1|55=GOAU4|60=20211127-17:49:32.866|75=2021-11-27|150=F|151=0|207=BVMF|581=39|1010=228285|1011=SMITH|453=1|448=SMITH|447=D|452=36|10=177|
8=FIX.4.4|9=313|35=8|34=10256|49=SYSTEM|52=20211127-16:26:55.827|56=DROPCOPY|128=GATEWAY|1=164532|6=12.47|11=141|14=21500|17=PETR400021|31=12.47|32=1200|37=141|38=21500|39=2|40=2|44=12.47|54=2|55=PETR4|60=20211127-16:26:55.827|75=2021-11-27|150=F|151=0|207=BVMF|581=39|1010=268105|1011=RODRIGUEZ|453=1|448=RODRIGUEZ|447=D|452=36|10=007|
8=FIX.4.4|9=305|35=8|34=10258|49=SYSTEM|52=20211127-17:30:40.921|56=DROPCOPY|128=GATEWAY|1=164532|6=12.04|11=135|14=15500|17=IGTI300042|31=12.04|32=1300|37=135|38=15500|39=2|40=2|44=12.04|54=2|55=IGTI3|60=20211127-17:30:40.921|75=2021-11-27|150=F|151=0|207=BVMF|581=39|1010=186620|1011=BROWN|453=1|448=BROWN|447=D|452=36|10=100|
8=FIX.4.4|9=310|35=8|34=10259|49=SYSTEM|52=20211127-13:35:52.152|56=DROPCOPY|128=GATEWAY|1=981727|6=18.79|11=142|14=3500|17=BPAC1100026|31=18.79|32=1500|37=142|38=3500|39=2|40=2|44=18.79|54=1|55=BPAC11|60=20211127-13:35:52.152|75=2021-11-27|150=F|151=0|207=BVMF|581=39|1010=65765|1011=WILLIAMS|453=1|448=WILLIAMS|447=D|452=36|10=247|
8=FIX.4.4|9=302|35=8|34=10260|49=SYSTEM|52=20211127-16:03:48.881|56=DROPCOPY|128=GATEWAY|1=987453|6=18.55|11=143|14=1500|17=IGTI300043|31=18.55|32=1500|37=143|38=1500|39=2|40=2|44=18.55|54=2|55=IGTI3|60=20211127-16:03:48.881|75=2021-11-27|150=F|151=0|207=BVMF|581=39|1010=27825|1011=BROWN|453=1|448=BROWN|447=D|452=36|10=013|
8=FIX.4.4|9=312|35=8|34=10261|49=SYSTEM|52=20211127-11:12:44.148|56=DROPCOPY|128=GATEWAY|1=164532|6=13.61|11=144|14=18500|17=PETR400022|31=13.61|32=18500|37=144|38=18500|39=2|40=2|44=13.61|54=2|55=PETR4|60=20211127-11:12:44.148|75=2021-11-27|150=F|151=0|207=BVMF|581=39|1010=251785|1011=WILLIAMS|453=1|448=WILLIAMS|447=D|452=36|10=123|
8=FIX.4.4|9=303|35=8|34=10265|49=SYSTEM|52=20211127-17:32:45.864|56=DROPCOPY|128=GATEWAY|1=071264|6=13.55|11=146|14=9500|17=GOAU400046|31=13.55|32=3600|37=146|38=9500|39=2|40=2|44=13.55|54=1|55=GOAU4|60=20211127-17:32:45.864|75=2021-11-27|150=F|151=0|207=BVMF|581=39|1010=128725|1011=SMITH|453=1|448=SMITH|447=D|452=36|10=060|
8=FIX.4.4|9=307|35=8|34=10266|49=SYSTEM|52=20211127-15:48:27.769|56=DROPCOPY|128=GATEWAY|1=981727|6=11.92|11=145|14=12500|17=BPAC1100028|31=11.92|32=8800|37=145|38=12500|39=2|40=2|44=11.92|54=1|55=BPAC11|60=20211127-15:48:27.769|75=2021-11-27|150=F|151=0|207=BVMF|581=39|1010=149000|1011=JONES|453=1|448=JONES|447=D|452=36|10=208|
8=FIX.4.4|9=310|35=8|34=10267|49=SYSTEM|52=20211127-13:30:53.921|56=DROPCOPY|128=GATEWAY|1=918237|6=16.19|11=147|14=17500|17=IGTI300044|31=16.19|32=17500|37=147|38=17500|39=2|40=2|44=16.19|54=1|55=IGTI3|60=20211127-13:30:53.921|75=2021-11-27|150=F|151=0|207=BVMF|581=39|1010=283325|1011=JOHNSON|453=1|448=JOHNSON|447=D|452=36|10=249|
8=FIX.4.4|9=307|35=8|34=10272|49=SYSTEM|52=20211127-17:46:55.703|56=DROPCOPY|128=GATEWAY|1=918239|6=11.8|11=149|14=19500|17=VALE300026|31=11.8|32=11400|37=149|38=19500|39=2|40=2|44=11.8|54=1|55=VALE3|60=20211127-17:46:55.703|75=2021-11-27|150=F|151=0|207=BVMF|581=39|1010=230100|1011=JOHNSON|453=1|448=JOHNSON|447=D|452=36|10=084|
8=FIX.4.4|9=306|35=8|34=10274|49=SYSTEM|52=20211127-16:38:13.559|56=DROPCOPY|128=GATEWAY|1=849651|6=11.89|11=151|14=12500|17=POMO400034|31=11.89|32=12500|37=151|38=12500|39=2|40=2|44=11.89|54=2|55=POMO4|60=20211127-16:38:13.559|75=2021-11-27|150=F|151=0|207=BVMF|581=39|1010=148625|1011=DAVIS|453=1|448=DAVIS|447=D|452=36|10=217|
8=FIX.4.4|9=313|35=8|34=10275|49=SYSTEM|52=20211127-15:33:20.615|56=DROPCOPY|128=GATEWAY|1=981727|6=11.64|11=150|14=13500|17=POMO400035|31=11.64|32=2500|37=150|38=13500|39=2|40=2|44=11.64|54=1|55=POMO4|60=20211127-15:33:20.615|75=2021-11-27|150=F|151=0|207=BVMF|581=39|1010=157140|1011=RODRIGUEZ|453=1|448=RODRIGUEZ|447=D|452=36|10=245|
8=FIX.4.4|9=308|35=8|34=10280|49=SYSTEM|52=20211127-17:25:18.686|56=DROPCOPY|128=GATEWAY|1=987453|6=17.73|11=153|14=21500|17=BPAC1100031|31=17.73|32=10900|37=153|38=21500|39=2|40=2|44=17.73|54=1|55=BPAC11|60=20211127-17:25:18.686|75=2021-11-27|150=F|151=0|207=BVMF|581=39|1010=381195|1011=SMITH|453=1|448=SMITH|447=D|452=36|10=015|
8=FIX.4.4|9=307|35=8|34=10282|49=SYSTEM|52=20211127-11:59:17.331|56=DROPCOPY|128=GATEWAY|1=849651|6=16.27|11=152|14=12500|17=IGTI300046|31=16.27|32=8700|37=152|38=12500|39=2|40=2|44=16.27|54=2|55=IGTI3|60=20211127-11:59:17.331|75=2021-11-27|150=F|151=0|207=BVMF|581=39|1010=203375|1011=GARCIA|453=1|448=GARCIA|447=D|452=36|10=212|
8=FIX.4.4|9=310|35=8|34=10283|49=SYSTEM|52=20211127-17:55:24.534|56=DROPCOPY|128=GATEWAY|1=879865|6=14.29|11=148|14=22500|17=RAPT400038|31=14.29|32=500|37=148|38=22500|39=2|40=2|44=14.29|54=1|55=RAPT4|60=20211127-17:55:24.534|75=2021-11-27|150=F|151=0|207=BVMF|581=39|1010=321525|1011=MARTINEZ|453=1|448=MARTINEZ|447=D|452=36|10=079|
8=FIX.4.4|9=302|35=8|34=10284|49=SYSTEM|52=20211127-14:32:26.577|56=DROPCOPY|128=GATEWAY|1=849651|6=15.83|11=154|14=4500|17=IGTI300047|31=15.83|32=4500|37=154|38=4500|39=2|40=2|44=15.83|54=1|55=IGTI3|60=20211127-14:32:26.577|75=2021-11-27|150=F|151=0|207=BVMF|581=39|1010=71235|1011=JONES|453=1|448=JONES|447=D|452=36|10=254|
8=FIX.4.4|9=311|35=8|34=10286|49=SYSTEM|52=20211127-14:53:18.374|56=DROPCOPY|128=GATEWAY|1=879865|6=15.27|11=155|14=16500|17=ITUB400015|31=15.27|32=6200|37=155|38=16500|39=2|40=2|44=15.27|54=1|55=ITUB4|60=20211127-14:53:18.374|75=2021-11-27|150=F|151=0|207=BVMF|581=39|1010=251955|1011=WILLIAMS|453=1|448=WILLIAMS|447=D|452=36|10=115|
8=FIX.4.4|9=306|35=8|34=10287|49=SYSTEM|52=20211127-10:03:40.619|56=DROPCOPY|128=GATEWAY|1=987453|6=13.03|11=156|14=20500|17=BBAS300014|31=13.03|32=20500|37=156|38=20500|39=2|40=2|44=13.03|54=1|55=BBAS3|60=20211127-10:03:40.619|75=2021-11-27|150=F|151=0|207=BVMF|581=39|1010=267115|1011=JONES|453=1|448=JONES|447=D|452=36|10=098|
8=FIX.4.4|9=301|35=8|34=10288|49=SYSTEM|52=20211127-16:06:25.425|56=DROPCOPY|128=GATEWAY|1=849651|6=16.5|11=157|14=3500|17=GOAU400047|31=16.5|32=3500|37=157|38=3500|39=2|40=2|44=16.5|54=1|55=GOAU4|60=20211127-16:06:25.425|75=2021-11-27|150=F|151=0|207=BVMF|581=39|1010=57750|1011=GARCIA|453=1|448=GARCIA|447=D|452=36|10=175|
8=FIX.4.4|9=306|35=8|34=10291|49=SYSTEM|52=20211127-13:38:05.390|56=DROPCOPY|128=GATEWAY|1=164532|6=10.98|11=159|14=24500|17=BBAS300015|31=10.98|32=24500|37=159|38=24500|39=2|40=2|44=10.98|54=1|55=BBAS3|60=20211127-13:38:05.390|75=2021-11-27|150=F|151=0|207=BVMF|581=39|1010=269010|1011=BROWN|453=1|448=BROWN|447=D|452=36|10=160|
8=FIX.4.4|9=320|35=8|34=10296|49=SYSTEM|52=20211127-10:22:13.989|56=DROPCOPY|128=GATEWAY|1=071264|6=18.6|11=161|14=1500|17=PETR400023|31=18.6|32=1500|37=161|38=1500|39=2|40=2|44=18.6|54=1|55=PETR4|60=20211127-10:22:13.989|75=2021-11-27|150=F|151=0|207=BVMF|581=39|1010=27900.000000000004|1011=RODRIGUEZ|453=1|448=RODRIGUEZ|447=D|452=36|10=079|
8=FIX.4.4|9=303|35=8|34=10297|49=SYSTEM|52=20211127-10:51:46.548|56=DROPCOPY|128=GATEWAY|1=981727|6=12.22|11=162|14=8500|17=POMO400036|31=12.22|32=8500|37=162|38=8500|39=2|40=2|44=12.22|54=1|55=POMO4|60=20211127-10:51:46.548|75=2021-11-27|150=F|151=0|207=BVMF|581=39|1010=103870|1011=BROWN|453=1|448=BROWN|447=D|452=36|10=073|
8=FIX.4.4|9=304|35=8|34=10298|49=SYSTEM|52=20211127-17:40:25.016|56=DROPCOPY|128=GATEWAY|1=164532|6=12.32|11=160|14=20500|17=RAPT400041|31=12.32|32=100|37=160|38=20500|39=2|40=2|44=12.32|54=2|55=RAPT4|60=20211127-17:40:25.016|75=2021-11-27|150=F|151=0|207=BVMF|581=39|1010=252560|1011=SMITH|453=1|448=SMITH|447=D|452=36|10=053|
8=FIX.4.4|9=302|35=8|34=10300|49=SYSTEM|52=20211127-14:36:38.300|56=DROPCOPY|128=GATEWAY|1=981727|6=10.38|11=163|14=6500|17=PETR400024|31=10.38|32=6500|37=163|38=6500|39=2|40=2|44=10.38|54=2|55=PETR4|60=20211127-14:36:38.300|75=2021-11-27|150=F|151=0|207=BVMF|581=39|1010=67470|1011=BROWN|453=1|448=BROWN|447=D|452=36|10=011|
8=FIX.4.4|9=312|35=8|34=10302|49=SYSTEM|52=20211127-14:08:16.617|56=DROPCOPY|128=GATEWAY|1=879865|6=13.13|11=164|14=16500|17=VALE300028|31=13.13|32=13300|37=164|38=16500|39=2|40=2|44=13.13|54=1|55=VALE3|60=20211127-14:08:16.617|75=2021-11-27|150=F|151=0|207=BVMF|581=39|1010=216645|1011=MARTINEZ|453=1|448=MARTINEZ|447=D|452=36|10=118|
8=FIX.4.4|9=310|35=8|34=10304|49=SYSTEM|52=20211127-11:24:03.315|56=DROPCOPY|128=GATEWAY|1=879865|6=14.18|11=165|14=20500|17=BPAC1100032|31=14.18|32=20500|37=165|38=20500|39=2|40=2|44=14.18|54=2|55=BPAC11|60=20211127-11:24:03.315|75=2021-11-27|150=F|151=0|207=BVMF|581=39|1010=290690|1011=MILLER|453=1|448=MILLER|447=D|452=36|10=082|
8=FIX.4.4|9=316|35=8|34=10306|49=SYSTEM|52=20211127-17:59:11.186|56=DROPCOPY|128=GATEWAY|1=498213|6=19.99|11=158|14=21500|17=GOAU400054|31=19.99|32=100|37=158|38=21500|39=2|40=2|44=19.99|54=2|55=GOAU4|60=20211127-17:59:11.186|75=2021-11-27|150=F|151=0|207=BVMF|581=39|1010=429784.99999999994|1011=BROWN|453=1|448=BROWN|447=D|452=36|10=056|
8=FIX.4.4|9=306|35=8|34=10308|49=SYSTEM|52=20211127-13:40:22.236|56=DROPCOPY|128=GATEWAY|1=849651|6=13.91|11=167|14=18500|17=ITUB400016|31=13.91|32=18500|37=167|38=18500|39=2|40=2|44=13.91|54=1|55=ITUB4|60=20211127-13:40:22.236|75=2021-11-27|150=F|151=0|207=BVMF|581=39|1010=257335|1011=JONES|453=1|448=JONES|447=D|452=36|10=196|
8=FIX.4.4|9=306|35=8|34=10310|49=SYSTEM|52=20211127-16:25:20.195|56=DROPCOPY|128=GATEWAY|1=918239|6=12.69|11=166|14=16500|17=BPAC1100036|31=12.69|32=600|37=166|38=16500|39=2|40=2|44=12.69|54=1|55=BPAC11|60=20211127-16:25:20.195|75=2021-11-27|150=F|151=0|207=BVMF|581=39|1010=209385|1011=DAVIS|453=1|448=DAVIS|447=D|452=36|10=126|
8=FIX.4.4|9=303|35=8|34=10313|49=SYSTEM|52=20211127-17:00:33.098|56=DROPCOPY|128=GATEWAY|1=987453|6=10.65|11=168|14=9500|17=RAPT400044|31=10.65|32=2400|37=168|38=9500|39=2|40=2|44=10.65|54=1|55=RAPT4|60=20211127-17:00:33.098|75=2021-11-27|150=F|151=0|207=BVMF|581=39|1010=101175|1011=SMITH|453=1|448=SMITH|447=D|452=36|10=061|
8=FIX.4.4|9=306|35=8|34=10315|49=SYSTEM|52=20211127-16:57:22.627|56=DROPCOPY|128=GATEWAY|1=164532|6=13.76|11=170|14=10500|17=PETR400025|31=13.76|32=10500|37=170|38=10500|39=2|40=2|44=13.76|54=1|55=PETR4|60=20211127-16:57:22.627|75=2021-11-27|150=F|151=0|207=BVMF|581=39|1010=144480|1011=SMITH|453=1|448=SMITH|447=D|452=36|10=207|
8=FIX.4.4|9=308|35=8|34=10318|49=SYSTEM|52=20211127-16:57:16.070|56=DROPCOPY|128=GATEWAY|1=987453|6=10.83|11=169|14=20500|17=IGTI300050|31=10.83|32=17400|37=169|38=20500|39=2|40=2|44=10.83|54=2|55=IGTI3|60=20211127-16:57:16.070|75=2021-11-27|150=F|151=0|207=BVMF|581=39|1010=222015|1011=GARCIA|453=1|448=GARCIA|447=D|452=36|10=254|
8=FIX.4.4|9=302|35=8|34=10320|49=SYSTEM|52=20211127-14:34:35.160|56=DROPCOPY|128=GATEWAY|1=981727|6=15.56|11=173|14=3500|17=PETR400026|31=15.56|32=3500|37=173|38=3500|39=2|40=2|44=15.56|54=1|55=PETR4|60=20211127-14:34:35.160|75=2021-11-27|150=F|151=0|207=BVMF|581=39|1010=54460|1011=SMITH|453=1|448=SMITH|447=D|452=36|10=009|
8=FIX.4.4|9=302|35=8|34=10321|49=SYSTEM|52=20211127-16:38:45.333|56=DROPCOPY|128=GATEWAY|1=849651|6=12.23|11=174|14=4500|17=GOAU400055|31=12.23|32=4500|37=174|38=4500|39=2|40=2|44=12.23|54=1|55=GOAU4|60=20211127-16:38:45.333|75=2021-11-27|150=F|151=0|207=BVMF|581=39|1010=55035|1011=DAVIS|453=1|448=DAVIS|447=D|452=36|10=204|
8=FIX.4.4|9=319|35=8|34=10322|49=SYSTEM|52=20211127-12:23:40.386|56=DROPCOPY|128=GATEWAY|1=164532|6=10.04|11=172|14=18500|17=BPAC1100038|31=10.04|32=8300|37=172|38=18500|39=2|40=2|44=10.04|54=2|55=BPAC11|60=20211127-12:23:40.386|75=2021-11-27|150=F|151=0|207=BVMF|581=39|1010=185739.99999999997|1011=SMITH|453=1|448=SMITH|447=D|452=36|10=070|
8=FIX.4.4|9=304|35=8|34=10323|49=SYSTEM|52=20211127-14:18:42.659|56=DROPCOPY|128=GATEWAY|1=918237|6=15.47|11=171|14=3500|17=ITUB400018|31=15.47|32=2100|37=171|38=3500|39=2|40=2|44=15.47|54=1|55=ITUB4|60=20211127-14:18:42.659|75=2021-11-27|150=F|151=0|207=BVMF|581=39|1010=54145|1011=GARCIA|453=1|448=GARCIA|447=D|452=36|10=082|
8=FIX.4.4|9=312|35=8|34=10324|49=SYSTEM|52=20211127-17:37:41.991|56=DROPCOPY|128=GATEWAY|1=918239|6=13.82|11=175|14=24500|17=GOAU400056|31=13.82|32=24500|37=175|38=24500|39=2|40=2|44=13.82|54=1|55=GOAU4|60=20211127-17:37:41.991|75=2021-11-27|150=F|151=0|207=BVMF|581=39|1010=338590|1011=WILLIAMS|453=1|448=WILLIAMS|447=D|452=36|10=150|
8=FIX.4.4|9=308|35=8|34=10325|49=SYSTEM|52=20211127-12:23:16.097|56=DROPCOPY|128=GATEWAY|1=879865|6=15.02|11=176|14=10500|17=GOAU400057|31=15.02|32=10500|37=176|38=10500|39=2|40=2|44=15.02|54=2|55=GOAU4|60=20211127-12:23:16.097|75=2021-11-27|150=F|151=0|207=BVMF|581=39|1010=157710|1011=MILLER|453=1|448=MILLER|447=D|452=36|10=051|
8=FIX.4.4|9=309|35=8|34=10326|49=SYSTEM|52=20211127-17:27:57.334|56=DROPCOPY|128=GATEWAY|1=879865|6=16.45|11=177|14=7500|17=BBAS300016|31=16.45|32=7500|37=177|38=7500|39=2|40=2|44=16.45|54=2|55=BBAS3|60=20211127-17:27:57.334|75=2021-11-27|150=F|151=0|207=BVMF|581=39|1010=123375|1011=MARTINEZ|453=1|448=MARTINEZ|447=D|452=36|10=252|
8=FIX.4.4|9=312|35=8|34=10329|49=SYSTEM|52=20211127-12:30:02.291|56=DROPCOPY|128=GATEWAY|1=987453|6=13.47|11=180|14=12500|17=PETR400027|31=13.47|32=12500|37=180|38=12500|39=2|40=2|44=13.47|54=1|55=PETR4|60=20211127-12:30:02.291|75=2021-11-27|150=F|151=0|207=BVMF|581=39|1010=168375|1011=MARTINEZ|453=1|448=MARTINEZ|447=D|452=36|10=147|
8=FIX.4.4|9=308|35=8|34=10331|49=SYSTEM|52=20211127-12:18:44.538|56=DROPCOPY|128=GATEWAY|1=849651|6=15.31|11=182|14=4500|17=GOAU400059|31=15.31|32=4500|37=182|38=4500|39=2|40=2|44=15.31|54=1|55=GOAU4|60=20211127-12:18:44.538|75=2021-11-27|150=F|151=0|207=BVMF|581=39|1010=68895|1011=WILLIAMS|453=1|448=WILLIAMS|447=D|452=36|10=195|
8=FIX.4.4|9=306|35=8|34=10332|49=SYSTEM|52=20211127-15:23:12.347|56=DROPCOPY|128=GATEWAY|1=498213|6=14.1|11=178|14=5500|17=BPAC1100040|31=14.1|32=500|37=178|38=5500|39=2|40=2|44=14.1|54=2|55=BPAC11|60=20211127-15:23:12.347|75=2021-11-27|150=F|151=0|207=BVMF|581=39|1010=77550|1011=WILLIAMS|453=1|448=WILLIAMS|447=D|452=36|10=003|
8=FIX.4.4|9=306|35=8|34=10336|49=SYSTEM|52=20211127-17:23:24.479|56=DROPCOPY|128=GATEWAY|1=498213|6=18.46|11=184|14=23500|17=RAPT400045|31=18.46|32=23500|37=184|38=23500|39=2|40=2|44=18.46|54=1|55=RAPT4|60=20211127-17:23:24.479|75=2021-11-27|150=F|151=0|207=BVMF|581=39|1010=433810|1011=DAVIS|453=1|448=DAVIS|447=D|452=36|10=210|
8=FIX.4.4|9=312|35=8|34=10340|49=SYSTEM|52=20211127-17:37:15.190|56=DROPCOPY|128=GATEWAY|1=164532|6=10.14|11=181|14=20500|17=GOAU400063|31=10.14|32=100|37=181|38=20500|39=2|40=2|44=10.14|54=2|55=GOAU4|60=20211127-17:37:15.190|75=2021-11-27|150=F|151=0|207=BVMF|581=39|1010=207870|1011=RODRIGUEZ|453=1|448=RODRIGUEZ|447=D|452=36|10=150|
8=FIX.4.4|9=309|35=8|34=10341|49=SYSTEM|52=20211127-14:48:42.714|56=DROPCOPY|128=GATEWAY|1=879865|6=17.48|11=185|14=15500|17=SLCE300016|31=17.48|32=4500|37=185|38=15500|39=2|40=2|44=17.48|54=2|55=SLCE3|60=20211127-14:48:42.714|75=2021-11-27|150=F|151=0|207=BVMF|581=39|1010=270940|1011=JOHNSON|453=1|448=JOHNSON|447=D|452=36|10=223|
8=FIX.4.4|9=304|35=8|34=10343|49=SYSTEM|52=20211127-15:45:37.017|56=DROPCOPY|128=GATEWAY|1=164532|6=19.66|11=179|14=5500|17=VALE300031|31=19.66|32=100|37=179|38=5500|39=2|40=2|44=19.66|54=2|55=VALE3|60=20211127-15:45:37.017|75=2021-11-27|150=F|151=0|207=BVMF|581=39|1010=108130|1011=GARCIA|453=1|448=GARCIA|447=D|452=36|10=058|
8=FIX.4.4|9=308|35=8|34=10346|49=SYSTEM|52=20211127-14:10:02.277|56=DROPCOPY|128=GATEWAY|1=164532|6=14.44|11=183|14=18500|17=GOAU400064|31=14.44|32=16300|37=183|38=18500|39=2|40=2|44=14.44|54=1|55=GOAU4|60=20211127-14:10:02.277|75=2021-11-27|150=F|151=0|207=BVMF|581=39|1010=267140|1011=MILLER|453=1|448=MILLER|447=D|452=36|10=045|
8=FIX.4.4|9=306|35=8|34=10347|49=SYSTEM|52=20211127-17:42:12.247|56=DROPCOPY|128=GATEWAY|1=849651|6=15.63|11=189|14=15500|17=IGTI300051|31=15.63|32=15500|37=189|38=15500|39=2|40=2|44=15.63|54=1|55=IGTI3|60=20211127-17:42:12.247|75=2021-11-27|150=F|151=0|207=BVMF|581=39|1010=242265|1011=DAVIS|453=1|448=DAVIS|447=D|452=36|10=178|
8=FIX.4.4|9=312|35=8|34=10348|49=SYSTEM|52=20211127-11:01:36.005|56=DROPCOPY|128=GATEWAY|1=071264|6=13.79|11=190|14=20500|17=POMO400037|31=13.79|32=20500|37=190|38=20500|39=2|40=2|44=13.79|54=2|55=POMO4|60=20211127-11:01:36.005|75=2021-11-27|150=F|151=0|207=BVMF|581=39|1010=282695|1011=WILLIAMS|453=1|448=WILLIAMS|447=D|452=36|10=128|
8=FIX.4.4|9=307|35=8|34=10349|49=SYSTEM|52=20211127-17:17:26.456|56=DROPCOPY|128=GATEWAY|1=981727|6=14.28|11=188|14=19500|17=PETR400029|31=14.28|32=4500|37=188|38=19500|39=2|40=2|44=14.28|54=2|55=PETR4|60=20211127-17:17:26.456|75=2021-11-27|150=F|151=0|207=BVMF|581=39|1010=278460|1011=MILLER|453=1|448=MILLER|447=D|452=36|10=098|
8=FIX.4.4|9=303|35=8|34=10350|49=SYSTEM|52=20211127-11:47:22.006|56=DROPCOPY|128=GATEWAY|1=071264|6=11.61|11=191|14=9500|17=SLCE300018|31=11.61|32=9500|37=191|38=9500|39=2|40=2|44=11.61|54=1|55=SLCE3|60=20211127-11:47:22.006|75=2021-11-27|150=F|151=0|207=BVMF|581=39|1010=110295|1011=SMITH|453=1|448=SMITH|447=D|452=36|10=247|
8=FIX.4.4|9=305|35=8|34=10351|49=SYSTEM|52=20211127-16:13:49.009|56=DROPCOPY|128=GATEWAY|1=849651|6=15.73|11=187|14=24500|17=SLCE300019|31=15.73|32=5200|37=187|38=24500|39=2|40=2|44=15.73|54=1|55=SLCE3|60=20211127-16:13:49.009|75=2021-11-27|150=F|151=0|207=BVMF|581=39|1010=385385|1011=SMITH|453=1|448=SMITH|447=D|452=36|10=156|
8=FIX.4.4|9=312|35=8|34=10353|49=SYSTEM|52=20211127-16:39:55.723|56=DROPCOPY|128=GATEWAY|1=918239|6=11.62|11=193|14=16500|17=PETR400030|31=11.62|32=16500|37=193|38=16500|39=2|40=2|44=11.62|54=2|55=PETR4|60=20211127-16:39:55.723|75=2021-11-27|150=F|151=0|207=BVMF|581=39|1010=191730|1011=WILLIAMS|453=1|448=WILLIAMS|447=D|452=36|10=157|
8=FIX.4.4|9=312|35=8|34=10356|49=SYSTEM|52=20211127-16:42:40.800|56=DROPCOPY|128=GATEWAY|1=849651|6=14.91|11=192|14=23500|17=IGTI300053|31=14.91|32=22100|37=192|38=23500|39=2|40=2|44=14.91|54=2|55=IGTI3|60=20211127-16:42:40.800|75=2021-11-27|150=F|151=0|207=BVMF|581=39|1010=350385|1011=MARTINEZ|453=1|448=MARTINEZ|447=D|452=36|10=125|
8=FIX.4.4|9=306|35=8|34=10359|49=SYSTEM|52=20211127-17:45:10.182|56=DROPCOPY|128=GATEWAY|1=918239|6=13.68|11=197|14=22500|17=RAPT400046|31=13.68|32=22500|37=197|38=22500|39=2|40=2|44=13.68|54=2|55=RAPT4|60=20211127-17:45:10.182|75=2021-11-27|150=F|151=0|207=BVMF|581=39|1010=307800|1011=BROWN|453=1|448=BROWN|447=D|452=36|10=237|
8=FIX.4.4|9=306|35=8|34=10361|49=SYSTEM|52=20211127-12:34:48.677|56=DROPCOPY|128=GATEWAY|1=164532|6=19.69|11=199|14=22500|17=BBAS300019|31=19.69|32=22500|37=199|38=22500|39=2|40=2|44=19.69|54=2|55=BBAS3|60=20211127-12:34:48.677|75=2021-11-27|150=F|151=0|207=BVMF|581=39|1010=443025|1011=JONES|453=1|448=JONES|447=D|452=36|10=188|
8=FIX.4.4|9=303|35=8|34=10362|49=SYSTEM|52=20211127-11:58:02.062|56=DROPCOPY|128=GATEWAY|1=918239|6=18.99|11=200|14=8500|17=PETR400031|31=18.99|32=8500|37=200|38=8500|39=2|40=2|44=18.99|54=2|55=PETR4|60=20211127-11:58:02.062|75=2021-11-27|150=F|151=0|207=BVMF|581=39|1010=161415|1011=JONES|453=1|448=JONES|447=D|452=36|10=069|
8=FIX.4.4|9=308|35=8|34=10363|49=SYSTEM|52=20211127-14:31:43.858|56=DROPCOPY|128=GATEWAY|1=498213|6=11.01|11=196|14=3500|17=IGTI300055|31=11.01|32=2600|37=196|38=3500|39=2|40=2|44=11.01|54=2|55=IGTI3|60=20211127-14:31:43.858|75=2021-11-27|150=F|151=0|207=BVMF|581=39|1010=38535|1011=MARTINEZ|453=1|448=MARTINEZ|447=D|452=36|10=183|
8=FIX.4.4|9=308|35=8|34=10365|49=SYSTEM|52=20211127-13:10:30.795|56=DROPCOPY|128=GATEWAY|1=981727|6=17.23|11=201|14=20500|17=BBAS300020|31=17.23|32=20500|37=201|38=20500|39=2|40=2|44=17.23|54=1|55=BBAS3|60=20211127-13:10:30.795|75=2021-11-27|150=F|151=0|207=BVMF|581=39|1010=353215|1011=MILLER|453=1|448=MILLER|447=D|452=36|10=239|
8=FIX.4.4|9=307|35=8|34=10366|49=SYSTEM|52=20211127-10:12:25.797|56=DROPCOPY|128=GATEWAY|1=879865|6=17.21|11=202|14=8500|17=SLCE300020|31=17.21|32=8500|37=202|38=8500|39=2|40=2|44=17.21|54=1|55=SLCE3|60=20211127-10:12:25.797|75=2021-11-27|150=F|151=0|207=BVMF|581=39|1010=146285|1011=JOHNSON|453=1|448=JOHNSON|447=D|452=36|10=089|
8=FIX.4.4|9=302|35=8|34=10367|49=SYSTEM|52=20211127-14:53:04.385|56=DROPCOPY|128=GATEWAY|1=498213|6=18.09|11=203|14=2500|17=ITUB400019|31=18.09|32=2500|37=203|38=2500|39=2|40=2|44=18.09|54=2|55=ITUB4|60=20211127-14:53:04.385|75=2021-11-27|150=F|151=0|207=BVMF|581=39|1010=45225|1011=JONES|453=1|448=JONES|447=D|452=36|10=245|
8=FIX.4.4|9=300|35=8|34=10368|49=SYSTEM|52=20211127-13:08:56.219|56=DROPCOPY|128=GATEWAY|1=071264|6=19.36|11=204|14=500|17=SLCE300021|31=19.36|32=500|37=204|38=500|39=2|40=2|44=19.36|54=1|55=SLCE3|60=20211127-13:08:56.219|75=2021-11-27|150=F|151=0|207=BVMF|581=39|1010=9680|1011=MILLER|453=1|448=MILLER|447=D|452=36|10=157|
8=FIX.4.4|9=309|35=8|34=10372|49=SYSTEM|52=20211127-10:37:44.483|56=DROPCOPY|128=GATEWAY|1=071264|6=13.18|11=206|14=8500|17=IGTI300056|31=13.18|32=8500|37=206|38=8500|39=2|40=2|44=13.18|54=1|55=IGTI3|60=20211127-10:37:44.483|75=2021-11-27|150=F|151=0|207=BVMF|581=39|1010=112030|1011=MARTINEZ|453=1|448=MARTINEZ|447=D|452=36|10=231|
8=FIX.4.4|9=306|35=8|34=10374|49=SYSTEM|52=20211127-14:40:46.994|56=DROPCOPY|128=GATEWAY|1=849651|6=13.88|11=207|14=17500|17=VALE300032|31=13.88|32=17500|37=207|38=17500|39=2|40=2|44=13.88|54=2|55=VALE3|60=20211127-14:40:46.994|75=2021-11-27|150=F|151=0|207=BVMF|581=39|1010=242900|1011=DAVIS|453=1|448=DAVIS|447=D|452=36|10=189|
8=FIX.4.4|9=304|35=8|34=10375|49=SYSTEM|52=20211127-17:28:49.323|56=DROPCOPY|128=GATEWAY|1=918237|6=13.78|11=198|14=14500|17=RAPT400049|31=13.78|32=100|37=198|38=14500|39=2|40=2|44=13.78|54=1|55=RAPT4|60=20211127-17:28:49.323|75=2021-11-27|150=F|151=0|207=BVMF|581=39|1010=199810|1011=SMITH|453=1|448=SMITH|447=D|452=36|10=160|
8=FIX.4.4|9=305|35=8|34=10378|49=SYSTEM|52=20211127-12:43:13.013|56=DROPCOPY|128=GATEWAY|1=879865|6=19.36|11=208|14=7500|17=BBAS300021|31=19.36|32=7500|37=208|38=7500|39=2|40=2|44=19.36|54=2|55=BBAS3|60=20211127-12:43:13.013|75=2021-11-27|150=F|151=0|207=BVMF|581=39|1010=145200|1011=MILLER|453=1|448=MILLER|447=D|452=36|10=125|
8=FIX.4.4|9=315|35=8|34=10379|49=SYSTEM|52=20211127-13:52:15.357|56=DROPCOPY|128=GATEWAY|1=849651|6=10.96|11=209|14=2500|17=VALE300033|31=10.96|32=2500|37=209|38=2500|39=2|40=2|44=10.96|54=2|55=VALE3|60=20211127-13:52:15.357|75=2021-11-27|150=F|151=0|207=BVMF|581=39|1010=27400.000000000004|1011=SMITH|453=1|448=SMITH|447=D|452=36|10=097|
8=FIX.4.4|9=309|35=8|34=10381|49=SYSTEM|52=20211127-17:33:00.160|56=DROPCOPY|128=GATEWAY|1=987453|6=14.11|11=194|14=3500|17=POMO400044|31=14.11|32=100|37=194|38=3500|39=2|40=2|44=14.11|54=2|55=POMO4|60=20211127-17:33:00.160|75=2021-11-27|150=F|151=0|207=BVMF|581=39|1010=49385|1011=RODRIGUEZ|453=1|448=RODRIGUEZ|447=D|452=36|10=053|
8=FIX.4.4|9=305|35=8|34=10382|49=SYSTEM|52=20211127-17:14:14.749|56=DROPCOPY|128=GATEWAY|1=981727|6=10.26|11=186|14=22500|17=BBAS300023|31=10.26|32=3200|37=186|38=22500|39=2|40=2|44=10.26|54=2|55=BBAS3|60=20211127-17:14:14.749|75=2021-11-27|150=F|151=0|207=BVMF|581=39|1010=230850|1011=JONES|453=1|448=JONES|447=D|452=36|10=082|
8=FIX.4.4|9=306|35=8|34=10383|49=SYSTEM|52=20211127-12:44:54.885|56=DROPCOPY|128=GATEWAY|1=498213|6=15.48|11=210|14=24500|17=IGTI300057|31=15.48|32=24500|37=210|38=24500|39=2|40=2|44=15.48|54=1|55=IGTI3|60=20211127-12:44:54.885|75=2021-11-27|150=F|151=0|207=BVMF|581=39|1010=379260|1011=DAVIS|453=1|448=DAVIS|447=D|452=36|10=185|
8=FIX.4.4|9=308|35=8|34=10388|49=SYSTEM|52=20211127-17:37:21.308|56=DROPCOPY|128=GATEWAY|1=879865|6=15.46|11=212|14=24500|17=RAPT400051|31=15.46|32=23600|37=212|38=24500|39=2|40=2|44=15.46|54=2|55=RAPT4|60=20211127-17:37:21.308|75=2021-11-27|150=F|151=0|207=BVMF|581=39|1010=378770|1011=GARCIA|453=1|448=GARCIA|447=D|452=36|10=050|
8=FIX.4.4|9=309|35=8|34=10391|49=SYSTEM|52=20211127-16:18:45.677|56=DROPCOPY|128=GATEWAY|1=498213|6=14.46|11=195|14=6500|17=POMO400045|31=14.46|32=100|37=195|38=6500|39=2|40=2|44=14.46|54=1|55=POMO4|60=20211127-16:18:45.677|75=2021-11-27|150=F|151=0|207=BVMF|581=39|1010=93990|1011=RODRIGUEZ|453=1|448=RODRIGUEZ|447=D|452=36|10=126|
8=FIX.4.4|9=312|35=8|34=10394|49=SYSTEM|52=20211127-12:52:01.408|56=DROPCOPY|128=GATEWAY|1=987453|6=18.81|11=215|14=14500|17=PETR400033|31=18.81|32=14500|37=215|38=14500|39=2|40=2|44=18.81|54=2|55=PETR4|60=20211127-12:52:01.408|75=2021-11-27|150=F|151=0|207=BVMF|581=39|1010=272745|1011=WILLIAMS|453=1|448=WILLIAMS|447=D|452=36|10=147|
8=FIX.4.4|9=307|35=8|34=10396|49=SYSTEM|52=20211127-14:55:09.117|56=DROPCOPY|128=GATEWAY|1=879865|6=13.36|11=213|14=23500|17=PETR400034|31=13.36|32=6500|37=213|38=23500|39=2|40=2|44=13.36|54=2|55=PETR4|60=20211127-14:55:09.117|75=2021-11-27|150=F|151=0|207=BVMF|581=39|1010=313960|1011=MILLER|453=1|448=MILLER|447=D|452=36|10=052|
8=FIX.4.4|9=309|35=8|34=10400|49=SYSTEM|52=20211127-14:18:01.758|56=DROPCOPY|128=GATEWAY|1=918237|6=13.35|11=218|14=8500|17=SLCE300028|31=13.35|32=8500|37=218|38=8500|39=2|40=2|44=13.35|54=2|55=SLCE3|60=20211127-14:18:01.758|75=2021-11-27|150=F|151=0|207=BVMF|581=39|1010=113475|1011=WILLIAMS|453=1|448=WILLIAMS|447=D|452=36|10=224|
8=FIX.4.4|9=302|35=8|34=10401|49=SYSTEM|52=20211127-17:16:06.074|56=DROPCOPY|128=GATEWAY|1=987453|6=11.59|11=216|14=7500|17=VALE300037|31=11.59|32=1200|37=216|38=7500|39=2|40=2|44=11.59|54=2|55=VALE3|60=20211127-17:16:06.074|75=2021-11-27|150=F|151=0|207=BVMF|581=39|1010=86925|1011=JONES|453=1|448=JONES|447=D|452=36|10=235|
8=FIX.4.4|9=324|35=8|34=10404|49=SYSTEM|52=20211127-14:33:03.793|56=DROPCOPY|128=GATEWAY|1=164532|6=19.01|11=220|14=12500|17=POMO400046|31=19.01|32=12500|37=220|38=12500|39=2|40=2|44=19.01|54=2|55=POMO4|60=20211127-14:33:03.793|75=2021-11-27|150=F|151=0|207=BVMF|581=39|1010=237625.00000000003|1011=MARTINEZ|453=1|448=MARTINEZ|447=D|452=36|10=195|
8=FIX.4.4|9=315|35=8|34=10407|49=SYSTEM|52=20211127-15:52:44.189|56=DROPCOPY|128=GATEWAY|1=918239|6=16.47|11=219|14=23500|17=BPAC1100042|31=16.47|32=1100|37=219|38=23500|39=2|40=2|44=16.47|54=1|55=BPAC11|60=20211127-15:52:44.189|75=2021-11-27|150=F|151=0|207=BVMF|581=39|1010=387045|1011=RODRIGUEZ|453=1|448=RODRIGUEZ|447=D|452=36|10=064|
8=FIX.4.4|9=302|35=8|34=10409|49=SYSTEM|52=20211127-16:36:36.558|56=DROPCOPY|128=GATEWAY|1=849651|6=16.2|11=211|14=11500|17=IGTI300061|31=16.2|32=2800|37=211|38=11500|39=2|40=2|44=16.2|54=1|55=IGTI3|60=20211127-16:36:36.558|75=2021-11-27|150=F|151=0|207=BVMF|581=39|1010=186300|1011=SMITH|453=1|448=SMITH|447=D|452=36|10=234|
8=FIX.4.4|9=299|35=8|34=10411|49=SYSTEM|52=20211127-13:05:36.436|56=DROPCOPY|128=GATEWAY|1=071264|6=19.8|11=223|14=2500|17=BBAS300024|31=19.8|32=2500|37=223|38=2500|39=2|40=2|44=19.8|54=2|55=BBAS3|60=20211127-13:05:36.436|75=2021-11-27|150=F|151=0|207=BVMF|581=39|1010=49500|1011=JONES|453=1|448=JONES|447=D|452=36|10=037|
8=FIX.4.4|9=302|35=8|34=10412|49=SYSTEM|52=20211127-16:07:14.951|56=DROPCOPY|128=GATEWAY|1=164532|6=16.53|11=217|14=4500|17=GOAU400067|31=16.53|32=1000|37=217|38=4500|39=2|40=2|44=16.53|54=1|55=GOAU4|60=20211127-16:07:14.951|75=2021-11-27|150=F|151=0|207=BVMF|581=39|1010=74385|1011=BROWN|453=1|448=BROWN|447=D|452=36|10=244|
8=FIX.4.4|9=316|35=8|34=10413|49=SYSTEM|52=20211127-17:58:33.118|56=DROPCOPY|128=GATEWAY|1=498213|6=18.08|11=205|14=18500|17=SLCE300030|31=18.08|32=200|37=205|38=18500|39=2|40=2|44=18.08|54=1|55=SLCE3|60=20211127-17:58:33.118|75=2021-11-27|150=F|151=0|207=BVMF|581=39|1010=334479.99999999994|1011=DAVIS|453=1|448=DAVIS|447=D|452=36|10=216|
8=FIX.4.4|9=312|35=8|34=10415|49=SYSTEM|52=20211127-14:46:54.485|56=DROPCOPY|128=GATEWAY|1=498213|6=19.93|11=222|14=18500|17=IGTI300062|31=19.93|32=10600|37=222|38=18500|39=2|40=2|44=19.93|54=2|55=IGTI3|60=20211127-14:46:54.485|75=2021-11-27|150=F|151=0|207=BVMF|581=39|1010=368705|1011=WILLIAMS|453=1|448=WILLIAMS|447=D|452=36|10=155|
8=FIX.4.4|9=302|35=8|34=10416|49=SYSTEM|52=20211127-13:59:01.705|56=DROPCOPY|128=GATEWAY|1=918237|6=18.98|11=221|14=9500|17=PETR400037|31=18.98|32=400|37=221|38=9500|39=2|40=2|44=18.98|54=2|55=PETR4|60=20211127-13:59:01.705|75=2021-11-27|150=F|151=0|207=BVMF|581=39|1010=180310|1011=BROWN|453=1|448=BROWN|447=D|452=36|10=045|
8=FIX.4.4|9=307|35=8|34=10417|49=SYSTEM|52=20211127-17:50:20.818|56=DROPCOPY|128=GATEWAY|1=849651|6=12.57|11=214|14=24500|17=SLCE300032|31=12.57|32=1100|37=214|38=24500|39=2|40=2|44=12.57|54=1|55=SLCE3|60=20211127-17:50:20.818|75=2021-11-27|150=F|151=0|207=BVMF|581=39|1010=307965|1011=GARCIA|453=1|448=GARCIA|447=D|452=36|10=194|
8=FIX.4.4|9=306|35=8|34=10419|49=SYSTEM|52=20211127-14:24:40.427|56=DROPCOPY|128=GATEWAY|1=987453|6=19.12|11=224|14=24500|17=VALE300039|31=19.12|32=24200|37=224|38=24500|39=2|40=2|44=19.12|54=1|55=VALE3|60=20211127-14:24:40.427|75=2021-11-27|150=F|151=0|207=BVMF|581=39|1010=468440|1011=SMITH|453=1|448=SMITH|447=D|452=36|10=177|
8=FIX.4.4|9=303|35=8|34=10420|49=SYSTEM|52=20211127-12:39:29.583|56=DROPCOPY|128=GATEWAY|1=879865|6=19.07|11=225|14=9500|17=IGTI300063|31=19.07|32=9500|37=225|38=9500|39=2|40=2|44=19.07|54=2|55=IGTI3|60=20211127-12:39:29.583|75=2021-11-27|150=F|151=0|207=BVMF|581=39|1010=181165|1011=DAVIS|453=1|448=DAVIS|447=D|452=36|10=059|
8=FIX.4.4|9=308|35=8|34=10421|49=SYSTEM|52=20211127-10:36:03.826|56=DROPCOPY|128=GATEWAY|1=071264|6=12.41|11=226|14=6500|17=ITUB400020|31=12.41|32=6500|37=226|38=6500|39=2|40=2|44=12.41|54=2|55=ITUB4|60=20211127-10:36:03.826|75=2021-11-27|150=F|151=0|207=BVMF|581=39|1010=80665|1011=MARTINEZ|453=1|448=MARTINEZ|447=D|452=36|10=176|
8=FIX.4.4|9=306|35=8|34=10424|49=SYSTEM|52=20211127-12:17:28.997|56=DROPCOPY|128=GATEWAY|1=164532|6=10.59|11=228|14=7500|17=PETR400038|31=10.59|32=7500|37=228|38=7500|39=2|40=2|44=10.59|54=2|55=PETR4|60=20211127-12:17:28.997|75=2021-11-27|150=F|151=0|207=BVMF|581=39|1010=79425|1011=JOHNSON|453=1|448=JOHNSON|447=D|452=36|10=115|
8=FIX.4.4|9=318|35=8|34=10425|49=SYSTEM|52=20211127-12:33:51.921|56=DROPCOPY|128=GATEWAY|1=071264|6=19.15|11=229|14=21500|17=PETR400039|31=19.15|32=21500|37=229|38=21500|39=2|40=2|44=19.15|54=2|55=PETR4|60=20211127-12:33:51.921|75=2021-11-27|150=F|151=0|207=BVMF|581=39|1010=411724.99999999994|1011=BROWN|453=1|448=BROWN|447=D|452=36|10=112|
8=FIX.4.4|9=305|35=8|34=10426|49=SYSTEM|52=20211127-14:53:36.563|56=DROPCOPY|128=GATEWAY|1=918237|6=18.82|11=227|14=17500|17=POMO400049|31=18.82|32=3500|37=227|38=17500|39=2|40=2|44=18.82|54=2|55=POMO4|60=20211127-14:53:36.563|75=2021-11-27|150=F|151=0|207=BVMF|581=39|1010=329350|1011=DAVIS|453=1|448=DAVIS|447=D|452=36|10=174|
8=FIX.4.4|9=306|35=8|34=10429|49=SYSTEM|52=20211127-14:37:33.504|56=DROPCOPY|128=GATEWAY|1=498213|6=12.66|11=231|14=19500|17=SLCE300033|31=12.66|32=19500|37=231|38=19500|39=2|40=2|44=12.66|54=1|55=SLCE3|60=20211127-14:37:33.504|75=2021-11-27|150=F|151=0|207=BVMF|581=39|1010=246870|1011=BROWN|453=1|448=BROWN|447=D|452=36|10=189|
8=FIX.4.4|9=308|35=8|34=10436|49=SYSTEM|52=20211127-16:51:10.417|56=DROPCOPY|128=GATEWAY|1=879865|6=11.72|11=234|14=24500|17=ITUB400021|31=11.72|32=24500|37=234|38=24500|39=2|40=2|44=11.72|54=1|55=ITUB4|60=20211127-16:51:10.417|75=2021-11-27|150=F|151=0|207=BVMF|581=39|1010=287140|1011=GARCIA|453=1|448=GARCIA|447=D|452=36|10=005|
8=FIX.4.4|9=307|35=8|34=10437|49=SYSTEM|52=20211127-14:31:09.407|56=DROPCOPY|128=GATEWAY|1=164532|6=16.3|11=232|14=13500|17=POMO400053|31=16.3|32=400|37=232|38=13500|39=2|40=2|44=16.3|54=1|55=POMO4|60=20211127-14:31:09.407|75=2021-11-27|150=F|151=0|207=BVMF|581=39|1010=220050|1011=WILLIAMS|453=1|448=WILLIAMS|447=D|452=36|10=111|
8=FIX.4.4|9=306|35=8|34=10439|49=SYSTEM|52=20211127-16:47:56.077|56=DROPCOPY|128=GATEWAY|1=164532|6=10.28|11=233|14=20500|17=GOAU400070|31=10.28|32=11100|37=233|38=20500|39=2|40=2|44=10.28|54=2|55=GOAU4|60=20211127-16:47:56.077|75=2021-11-27|150=F|151=0|207=BVMF|581=39|1010=210740|1011=JONES|453=1|448=JONES|447=D|452=36|10=157|
8=FIX.4.4|9=307|35=8|34=10440|49=SYSTEM|52=20211127-17:18:33.372|56=DROPCOPY|128=GATEWAY|1=849651|6=15.41|11=230|14=16500|17=VALE300043|31=15.41|32=5900|37=230|38=16500|39=2|40=2|44=15.41|54=2|55=VALE3|60=20211127-17:18:33.372|75=2021-11-27|150=F|151=0|207=BVMF|581=39|1010=254265|1011=MILLER|453=1|448=MILLER|447=D|452=36|10=253|
8=FIX.4.4|9=303|35=8|34=10441|49=SYSTEM|52=20211127-15:01:52.535|56=DROPCOPY|128=GATEWAY|1=918237|6=13.74|11=235|14=7500|17=IGTI300065|31=13.74|32=2700|37=235|38=7500|39=2|40=2|44=13.74|54=2|55=IGTI3|60=20211127-15:01:52.535|75=2021-11-27|150=F|151=0|207=BVMF|581=39|1010=103050|1011=JONES|453=1|448=JONES|447=D|452=36|10=011|
8=FIX.4.4|9=308|35=8|34=10442|49=SYSTEM|52=20211127-10:38:04.708|56=DROPCOPY|128=GATEWAY|1=879865|6=18.55|11=236|14=15500|17=POMO400054|31=18.55|32=15500|37=236|38=15500|39=2|40=2|44=18.55|54=1|55=POMO4|60=20211127-10:38:04.708|75=2021-11-27|150=F|151=0|207=BVMF|581=39|1010=287525|1011=MILLER|453=1|448=MILLER|447=D|452=36|10=127|
8=FIX.4.4|9=302|35=8|34=10445|49=SYSTEM|52=20211127-11:52:34.552|56=DROPCOPY|128=GATEWAY|1=498213|6=19.61|11=238|14=4500|17=ITUB400024|31=19.61|32=4500|37=238|38=4500|39=2|40=2|44=19.61|54=2|55=ITUB4|60=20211127-11:52:34.552|75=2021-11-27|150=F|151=0|207=BVMF|581=39|1010=88245|1011=SMITH|453=1|448=SMITH|447=D|452=36|10=012|
8=FIX.4.4|9=312|35=8|34=10446|49=SYSTEM|52=20211127-15:23:00.101|56=DROPCOPY|128=GATEWAY|1=987453|6=13.78|11=237|14=13500|17=ITUB400025|31=13.78|32=10300|37=237|38=13500|39=2|40=2|44=13.78|54=2|55=ITUB4|60=20211127-15:23:00.101|75=2021-11-27|150=F|151=0|207=BVMF|581=39|1010=186030|1011=WILLIAMS|453=1|448=WILLIAMS|447=D|452=36|10=106|
8=FIX.4.4|9=303|35=8|34=10449|49=SYSTEM|52=20211127-10:33:42.748|56=DROPCOPY|128=GATEWAY|1=987453|6=11.7|11=240|14=3500|17=ITUB400026|31=11.7|32=3500|37=240|38=3500|39=2|40=2|44=11.7|54=2|55=ITUB4|60=20211127-10:33:42.748|75=2021-11-27|150=F|151=0|207=BVMF|581=39|1010=40950|1011=JOHNSON|453=1|448=JOHNSON|447=D|452=36|10=150|
8=FIX.4.4|9=309|35=8|34=10451|49=SYSTEM|52=20211127-17:45:50.844|56=DROPCOPY|128=GATEWAY|1=498213|6=14.88|11=239|14=10500|17=GOAU400074|31=14.88|32=1900|37=239|38=10500|39=2|40=2|44=14.88|54=1|55=GOAU4|60=20211127-17:45:50.844|75=2021-11-27|150=F|151=0|207=BVMF|581=39|1010=156240|1011=JOHNSON|453=1|448=JOHNSON|447=D|452=36|10=220|
8=FIX.4.4|9=306|35=8|34=10457|49=SYSTEM|52=20211127-17:58:27.185|56=DROPCOPY|128=GATEWAY|1=918239|6=11.9|11=241|14=23500|17=RAPT400055|31=11.9|32=4500|37=241|38=23500|39=2|40=2|44=11.9|54=1|55=RAPT4|60=20211127-17:58:27.185|75=2021-11-27|150=F|151=0|207=BVMF|581=39|1010=279650|1011=JOHNSON|453=1|448=JOHNSON|447=D|452=36|10=091|
8=FIX.4.4|9=311|35=8|34=10458|49=SYSTEM|52=20211127-17:27:28.640|56=DROPCOPY|128=GATEWAY|1=164532|6=19.8|11=243|14=23500|17=GOAU400076|31=19.8|32=11500|37=243|38=23500|39=2|40=2|44=19.8|54=2|55=GOAU4|60=20211127-17:27:28.640|75=2021-11-27|150=F|151=0|207=BVMF|581=39|1010=465300|1011=RODRIGUEZ|453=1|448=RODRIGUEZ|447=D|452=36|10=161|
8=FIX.4.4|9=310|35=8|34=10461|49=SYSTEM|52=20211127-12:41:28.766|56=DROPCOPY|128=GATEWAY|1=498213|6=17.33|11=245|14=16500|17=ITUB400028|31=17.33|32=16500|37=245|38=16500|39=2|40=2|44=17.33|54=1|55=ITUB4|60=20211127-12:41:28.766|75=2021-11-27|150=F|151=0|207=BVMF|581=39|1010=285945|1011=JOHNSON|453=1|448=JOHNSON|447=D|452=36|10=020|
8=FIX.4.4|9=306|35=8|34=10464|49=SYSTEM|52=20211127-17:32:59.435|56=DROPCOPY|128=GATEWAY|1=498213|6=11.02|11=242|14=16500|17=ITUB400029|31=11.02|32=13800|37=242|38=16500|39=2|40=2|44=11.02|54=1|55=ITUB4|60=20211127-17:32:59.435|75=2021-11-27|150=F|151=0|207=BVMF|581=39|1010=181830|1011=SMITH|453=1|448=SMITH|447=D|452=36|10=189|
8=FIX.4.4|9=302|35=8|34=10466|49=SYSTEM|52=20211127-12:12:30.083|56=DROPCOPY|128=GATEWAY|1=164532|6=13.69|11=248|14=5500|17=GOAU400077|31=13.69|32=5500|37=248|38=5500|39=2|40=2|44=13.69|54=2|55=GOAU4|60=20211127-12:12:30.083|75=2021-11-27|150=F|151=0|207=BVMF|581=39|1010=75295|1011=BROWN|453=1|448=BROWN|447=D|452=36|10=003|
8=FIX.4.4|9=307|35=8|34=10473|49=SYSTEM|52=20211127-17:50:22.906|56=DROPCOPY|128=GATEWAY|1=498213|6=19.3|11=247|14=18500|17=BBAS300029|31=19.3|32=600|37=247|38=18500|39=2|40=2|44=19.3|54=1|55=BBAS3|60=20211127-17:50:22.906|75=2021-11-27|150=F|151=0|207=BVMF|581=39|1010=357050|1011=MARTINEZ|453=1|448=MARTINEZ|447=D|452=36|10=114|
8=FIX.4.4|9=309|35=8|34=10475|49=SYSTEM|52=20211127-17:20:56.999|56=DROPCOPY|128=GATEWAY|1=918239|6=10.03|11=246|14=18500|17=POMO400058|31=10.03|32=5100|37=246|38=18500|39=2|40=2|44=10.03|54=2|55=POMO4|60=20211127-17:20:56.999|75=2021-11-27|150=F|151=0|207=BVMF|581=39|1010=185555|1011=JOHNSON|453=1|448=JOHNSON|447=D|452=36|10=252|
8=FIX.4.4|9=309|35=8|34=10478|49=SYSTEM|52=20211127-13:24:54.330|56=DROPCOPY|128=GATEWAY|1=071264|6=19.97|11=249|14=14500|17=IGTI300073|31=19.97|32=1900|37=249|38=14500|39=2|40=2|44=19.97|54=2|55=IGTI3|60=20211127-13:24:54.330|75=2021-11-27|150=F|151=0|207=BVMF|581=39|1010=289565|1011=JOHNSON|453=1|448=JOHNSON|447=D|452=36|10=238|
8=FIX.4.4|9=304|35=8|34=10480|49=SYSTEM|52=20211127-17:55:12.786|56=DROPCOPY|128=GATEWAY|1=879865|6=10.39|11=244|14=24500|17=IGTI300074|31=10.39|32=100|37=244|38=24500|39=2|40=2|44=10.39|54=1|55=IGTI3|60=20211127-17:55:12.786|75=2021-11-27|150=F|151=0|207=BVMF|581=39|1010=254555|1011=BROWN|453=1|448=BROWN|447=D|452=36|10=124|
8=FIX.4.4|9=307|35=8|34=10481|49=SYSTEM|52=20211127-12:34:50.541|56=DROPCOPY|128=GATEWAY|1=849651|6=14.41|11=250|14=15500|17=VALE300045|31=14.41|32=6900|37=250|38=15500|39=2|40=2|44=14.41|54=2|55=VALE3|60=20211127-12:34:50.541|75=2021-11-27|150=F|151=0|207=BVMF|581=39|1010=223355|1011=GARCIA|453=1|448=GARCIA|447=D|452=36|10=176|
8=FIX.4.4|9=308|35=8|34=10482|49=SYSTEM|52=20211127-15:02:42.884|56=DROPCOPY|128=GATEWAY|1=498213|6=18.82|11=251|14=3500|17=POMO400059|31=18.82|32=3500|37=251|38=3500|39=2|40=2|44=18.82|54=2|55=POMO4|60=20211127-15:02:42.884|75=2021-11-27|150=F|151=0|207=BVMF|581=39|1010=65870|1011=MARTINEZ|453=1|448=MARTINEZ|447=D|452=36|10=247|
8=FIX.4.4|9=310|35=8|34=10483|49=SYSTEM|52=20211127-16:51:52.777|56=DROPCOPY|128=GATEWAY|1=879865|6=13.31|11=252|14=17500|17=BPAC1100043|31=13.31|32=17500|37=252|38=17500|39=2|40=2|44=13.31|54=2|55=BPAC11|60=20211127-16:51:52.777|75=2021-11-27|150=F|151=0|207=BVMF|581=39|1010=232925|1011=GARCIA|453=1|448=GARCIA|447=D|452=36|10=065|
8=FIX.4.4|9=302|35=8|34=10484|49=SYSTEM|52=20211127-16:39:18.096|56=DROPCOPY|128=GATEWAY|1=071264|6=14.41|11=253|14=5500|17=VALE300046|31=14.41|32=5500|37=253|38=5500|39=2|40=2|44=14.41|54=2|55=VALE3|60=20211127-16:39:18.096|75=2021-11-27|150=F|151=0|207=BVMF|581=39|1010=79255|1011=DAVIS|453=1|448=DAVIS|447=D|452=36|10=221|
8=FIX.4.4|9=311|35=8|34=10485|49=SYSTEM|52=20211127-16:32:57.833|56=DROPCOPY|128=GATEWAY|1=879865|6=13.94|11=254|14=7500|17=VALE300047|31=13.94|32=7500|37=254|38=7500|39=2|40=2|44=13.94|54=1|55=VALE3|60=20211127-16:32:57.833|75=2021-11-27|150=F|151=0|207=BVMF|581=39|1010=104550|1011=RODRIGUEZ|453=1|448=RODRIGUEZ|447=D|452=36|10=179|
8=FIX.4.4|9=294|35=8|34=10487|49=SYSTEM|52=20211127-15:36:37.693|56=DROPCOPY|128=GATEWAY|1=849651|6=13|11=255|14=9500|17=VALE300049|31=13|32=4000|37=255|38=9500|39=2|40=2|44=13|54=1|55=VALE3|60=20211127-15:36:37.693|75=2021-11-27|150=F|151=0|207=BVMF|581=39|1010=123500|1011=BROWN|453=1|448=BROWN|447=D|452=36|10=132|
8=FIX.4.4|9=298|35=8|34=10489|49=SYSTEM|52=20211127-16:53:45.468|56=DROPCOPY|128=GATEWAY|1=918237|6=18.93|11=256|14=500|17=ITUB400031|31=18.93|32=200|37=256|38=500|39=2|40=2|44=18.93|54=2|55=ITUB4|60=20211127-16:53:45.468|75=2021-11-27|150=F|151=0|207=BVMF|581=39|1010=9465|1011=DAVIS|453=1|448=DAVIS|447=D|452=36|10=093|
8=FIX.4.4|9=318|35=8|34=10491|49=SYSTEM|52=20211127-14:29:54.941|56=DROPCOPY|128=GATEWAY|1=071264|6=18.01|11=258|14=12500|17=SLCE300034|31=18.01|32=12500|37=258|38=12500|39=2|40=2|44=18.01|54=2|55=SLCE3|60=20211127-14:29:54.941|75=2021-11-27|150=F|151=0|207=BVMF|581=39|1010=225125.00000000003|1011=JONES|453=1|448=JONES|447=D|452=36|10=223|
8=FIX.4.4|9=309|35=8|34=10493|49=SYSTEM|52=20211127-16:37:43.940|56=DROPCOPY|128=GATEWAY|1=918237|6=15.32|11=259|14=9500|17=POMO400060|31=15.32|32=9500|37=259|38=9500|39=2|40=2|44=15.32|54=2|55=POMO4|60=20211127-16:37:43.940|75=2021-11-27|150=F|151=0|207=BVMF|581=39|1010=145540|1011=WILLIAMS|453=1|448=WILLIAMS|447=D|452=36|10=030|
8=FIX.4.4|9=301|35=8|34=10494|49=SYSTEM|52=20211127-17:58:56.521|56=DROPCOPY|128=GATEWAY|1=498213|6=18.87|11=257|14=1500|17=BBAS300032|31=18.87|32=800|37=257|38=1500|39=2|40=2|44=18.87|54=1|55=BBAS3|60=20211127-17:58:56.521|75=2021-11-27|150=F|151=0|207=BVMF|581=39|1010=28305|1011=DAVIS|453=1|448=DAVIS|447=D|452=36|10=166|
8=FIX.4.4|9=310|35=8|34=10498|49=SYSTEM|52=20211127-10:31:47.787|56=DROPCOPY|128=GATEWAY|1=849651|6=15.99|11=261|14=10500|17=ITUB400032|31=15.99|32=10500|37=261|38=10500|39=2|40=2|44=15.99|54=2|55=ITUB4|60=20211127-10:31:47.787|75=2021-11-27|150=F|151=0|207=BVMF|581=39|1010=167895|1011=JOHNSON|453=1|448=JOHNSON|447=D|452=36|10=045|
8=FIX.4.4|9=304|35=8|34=10499|49=SYSTEM|52=20211127-17:41:15.592|56=DROPCOPY|128=GATEWAY|1=981727|6=11.13|11=260|14=13500|17=POMO400064|31=11.13|32=500|37=260|38=13500|39=2|40=2|44=11.13|54=2|55=POMO4|60=20211127-17:41:15.592|75=2021-11-27|150=F|151=0|207=BVMF|581=39|1010=150255|1011=JONES|453=1|448=JONES|447=D|452=36|10=090|
8=FIX.4.4|9=306|35=8|34=10500|49=SYSTEM|52=20211127-17:51:27.938|56=DROPCOPY|128=GATEWAY|1=981727|6=17.92|11=262|14=15500|17=GOAU400078|31=17.92|32=15500|37=262|38=15500|39=2|40=2|44=17.92|54=1|55=GOAU4|60=20211127-17:51:27.938|75=2021-11-27|150=F|151=0|207=BVMF|581=39|1010=277760|1011=SMITH|453=1|448=SMITH|447=D|452=36|10=237|
8=FIX.4.4|9=323|35=8|34=10502|49=SYSTEM|52=20211127-17:08:08.676|56=DROPCOPY|128=GATEWAY|1=918239|6=17.24|11=263|14=20500|17=BBAS300034|31=17.24|32=1000|37=263|38=20500|39=2|40=2|44=17.24|54=2|55=BBAS3|60=20211127-17:08:08.676|75=2021-11-27|150=F|151=0|207=BVMF|581=39|1010=353419.99999999994|1011=MARTINEZ|453=1|448=MARTINEZ|447=D|452=36|10=206|
8=FIX.4.4|9=305|35=8|34=10511|49=SYSTEM|52=20211127-14:55:44.217|56=DROPCOPY|128=GATEWAY|1=918237|6=11.37|11=267|14=16500|17=GOAU400080|31=11.37|32=5800|37=267|38=16500|39=2|40=2|44=11.37|54=2|55=GOAU4|60=20211127-14:55:44.217|75=2021-11-27|150=F|151=0|207=BVMF|581=39|1010=187605|1011=BROWN|453=1|448=BROWN|447=D|452=36|10=157|
8=FIX.4.4|9=298|35=8|34=10512|49=SYSTEM|52=20211127-15:43:30.415|56=DROPCOPY|128=GATEWAY|1=849651|6=13.13|11=264|14=500|17=IGTI300077|31=13.13|32=100|37=264|38=500|39=2|40=2|44=13.13|54=1|55=IGTI3|60=20211127-15:43:30.415|75=2021-11-27|150=F|151=0|207=BVMF|581=39|1010=6565|1011=DAVIS|453=1|448=DAVIS|447=D|452=36|10=000|
8=FIX.4.4|9=311|35=8|34=10514|49=SYSTEM|52=20211127-13:27:47.124|56=DROPCOPY|128=GATEWAY|1=918237|6=15.09|11=268|14=7500|17=IGTI300078|31=15.09|32=7500|37=268|38=7500|39=2|40=2|44=15.09|54=1|55=IGTI3|60=20211127-13:27:47.124|75=2021-11-27|150=F|151=0|207=BVMF|581=39|1010=113175|1011=RODRIGUEZ|453=1|448=RODRIGUEZ|447=D|452=36|10=166|
8=FIX.4.4|9=309|35=8|34=10517|49=SYSTEM|52=20211127-17:36:01.029|56=DROPCOPY|128=GATEWAY|1=849651|6=15.64|11=269|14=7500|17=VALE300051|31=15.64|32=7400|37=269|38=7500|39=2|40=2|44=15.64|54=1|55=VALE3|60=20211127-17:36:01.029|75=2021-11-27|150=F|151=0|207=BVMF|581=39|1010=117300|1011=WILLIAMS|453=1|448=WILLIAMS|447=D|452=36|10=232|
8=FIX.4.4|9=308|35=8|34=10518|49=SYSTEM|52=20211127-12:09:24.192|56=DROPCOPY|128=GATEWAY|1=071264|6=11.99|11=270|14=19500|17=BPAC1100044|31=11.99|32=19500|37=270|38=19500|39=2|40=2|44=11.99|54=2|55=BPAC11|60=20211127-12:09:24.192|75=2021-11-27|150=F|151=0|207=BVMF|581=39|1010=233805|1011=BROWN|453=1|448=BROWN|447=D|452=36|10=005|
8=FIX.4.4|9=308|35=8|34=10521|49=SYSTEM|52=20211127-13:32:35.739|56=DROPCOPY|128=GATEWAY|1=918239|6=11.76|11=273|14=12500|17=GOAU400081|31=11.76|32=12500|37=273|38=12500|39=2|40=2|44=11.76|54=1|55=GOAU4|60=20211127-13:32:35.739|75=2021-11-27|150=F|151=0|207=BVMF|581=39|1010=147000|1011=MILLER|453=1|448=MILLER|447=D|452=36|10=058|
8=FIX.4.4|9=312|35=8|34=10522|49=SYSTEM|52=20211127-14:14:55.280|56=DROPCOPY|128=GATEWAY|1=071264|6=14.64|11=274|14=14500|17=POMO400069|31=14.64|32=14500|37=274|38=14500|39=2|40=2|44=14.64|54=1|55=POMO4|60=20211127-14:14:55.280|75=2021-11-27|150=F|151=0|207=BVMF|581=39|1010=212280|1011=MARTINEZ|453=1|448=MARTINEZ|447=D|452=36|10=151|
8=FIX.4.4|9=308|35=8|34=10523|49=SYSTEM|52=20211127-12:16:23.926|56=DROPCOPY|128=GATEWAY|1=498213|6=10.94|11=275|14=14500|17=BBAS300039|31=10.94|32=14500|37=275|38=14500|39=2|40=2|44=10.94|54=1|55=BBAS3|60=20211127-12:16:23.926|75=2021-11-27|150=F|151=0|207=BVMF|581=39|1010=158630|1011=GARCIA|453=1|448=GARCIA|447=D|452=36|10=222|
8=FIX.4.4|9=303|35=8|34=10524|49=SYSTEM|52=20211127-16:25:35.156|56=DROPCOPY|128=GATEWAY|1=498213|6=17.72|11=276|14=9500|17=SLCE300035|31=17.72|32=9500|37=276|38=9500|39=2|40=2|44=17.72|54=2|55=SLCE3|60=20211127-16:25:35.156|75=2021-11-27|150=F|151=0|207=BVMF|581=39|1010=168340|1011=SMITH|453=1|448=SMITH|447=D|452=36|10=059|
8=FIX.4.4|9=306|35=8|34=10525|49=SYSTEM|52=20211127-17:45:18.041|56=DROPCOPY|128=GATEWAY|1=918237|6=15.23|11=265|14=21500|17=POMO400070|31=15.23|32=100|37=265|38=21500|39=2|40=2|44=15.23|54=2|55=POMO4|60=20211127-17:45:18.041|75=2021-11-27|150=F|151=0|207=BVMF|581=39|1010=327445|1011=GARCIA|453=1|448=GARCIA|447=D|452=36|10=173|
8=FIX.4.4|9=303|35=8|34=10529|49=SYSTEM|52=20211127-13:38:34.283|56=DROPCOPY|128=GATEWAY|1=164532|6=16.7|11=280|14=16500|17=SLCE300036|31=16.7|32=16500|37=280|38=16500|39=2|40=2|44=16.7|54=2|55=SLCE3|60=20211127-13:38:34.283|75=2021-11-27|150=F|151=0|207=BVMF|581=39|1010=275550|1011=JONES|453=1|448=JONES|447=D|452=36|10=026|
8=FIX.4.4|9=303|35=8|34=10533|49=SYSTEM|52=20211127-17:47:52.021|56=DROPCOPY|128=GATEWAY|1=849651|6=15.47|11=266|14=4500|17=BBAS300040|31=15.47|32=100|37=266|38=4500|39=2|40=2|44=15.47|54=2|55=BBAS3|60=20211127-17:47:52.021|75=2021-11-27|150=F|151=0|207=BVMF|581=39|1010=69615|1011=MILLER|453=1|448=MILLER|447=D|452=36|10=033|
8=FIX.4.4|9=324|35=8|34=10534|49=SYSTEM|52=20211127-13:01:58.928|56=DROPCOPY|128=GATEWAY|1=987453|6=10.88|11=278|14=20500|17=POMO400072|31=10.88|32=18500|37=278|38=20500|39=2|40=2|44=10.88|54=1|55=POMO4|60=20211127-13:01:58.928|75=2021-11-27|150=F|151=0|207=BVMF|581=39|1010=223040.00000000003|1011=MARTINEZ|453=1|448=MARTINEZ|447=D|452=36|10=254|
8=FIX.4.4|9=315|35=8|34=10536|49=SYSTEM|52=20211127-16:06:39.856|56=DROPCOPY|128=GATEWAY|1=164532|6=16.4|11=283|14=12500|17=ITUB400033|31=16.4|32=12500|37=283|38=12500|39=2|40=2|44=16.4|54=1|55=ITUB4|60=20211127-16:06:39.856|75=2021-11-27|150=F|151=0|207=BVMF|581=39|1010=204999.99999999997|1011=BROWN|453=1|448=BROWN|447=D|452=36|10=240|
8=FIX.4.4|9=311|35=8|34=10538|49=SYSTEM|52=20211127-16:24:21.294|56=DROPCOPY|128=GATEWAY|1=879865|6=15.41|11=285|14=7500|17=RAPT400056|31=15.41|32=7500|37=285|38=7500|39=2|40=2|44=15.41|54=2|55=RAPT4|60=20211127-16:24:21.294|75=2021-11-27|150=F|151=0|207=BVMF|581=39|1010=115575|1011=RODRIGUEZ|453=1|448=RODRIGUEZ|447=D|452=36|10=196|
8=FIX.4.4|9=306|35=8|34=10539|49=SYSTEM|52=20211127-13:19:57.719|56=DROPCOPY|128=GATEWAY|1=987453|6=12.17|11=271|14=20500|17=IGTI300081|31=12.17|32=20300|37=271|38=20500|39=2|40=2|44=12.17|54=1|55=IGTI3|60=20211127-13:19:57.719|75=2021-11-27|150=F|151=0|207=BVMF|581=39|1010=249485|1011=DAVIS|453=1|448=DAVIS|447=D|452=36|10=182|
8=FIX.4.4|9=306|35=8|34=10542|49=SYSTEM|52=20211127-15:27:16.937|56=DROPCOPY|128=GATEWAY|1=918239|6=10.64|11=279|14=19500|17=VALE300056|31=10.64|32=12700|37=279|38=19500|39=2|40=2|44=10.64|54=2|55=VALE3|60=20211127-15:27:16.937|75=2021-11-27|150=F|151=0|207=BVMF|581=39|1010=207480|1011=BROWN|453=1|448=BROWN|447=D|452=36|10=221|
8=FIX.4.4|9=312|35=8|34=10544|49=SYSTEM|52=20211127-15:50:54.852|56=DROPCOPY|128=GATEWAY|1=918237|6=17.86|11=287|14=17500|17=PETR400040|31=17.86|32=17500|37=287|38=17500|39=2|40=2|44=17.86|54=1|55=PETR4|60=20211127-15:50:54.852|75=2021-11-27|150=F|151=0|207=BVMF|581=39|1010=312550|1011=WILLIAMS|453=1|448=WILLIAMS|447=D|452=36|10=187|
8=FIX.4.4|9=306|35=8|34=10545|49=SYSTEM|52=20211127-12:23:48.677|56=DROPCOPY|128=GATEWAY|1=987453|6=18.64|11=288|14=12500|17=IGTI300084|31=18.64|32=12500|37=288|38=12500|39=2|40=2|44=18.64|54=1|55=IGTI3|60=20211127-12:23:48.677|75=2021-11-27|150=F|151=0|207=BVMF|581=39|1010=233000|1011=DAVIS|453=1|448=DAVIS|447=D|452=36|10=197|
8=FIX.4.4|9=305|35=8|34=10546|49=SYSTEM|52=20211127-17:21:55.224|56=DROPCOPY|128=GATEWAY|1=987453|6=11.51|11=286|14=17500|17=IGTI300085|31=11.51|32=7000|37=286|38=17500|39=2|40=2|44=11.51|54=1|55=IGTI3|60=20211127-17:21:55.224|75=2021-11-27|150=F|151=0|207=BVMF|581=39|1010=201425|1011=JONES|453=1|448=JONES|447=D|452=36|10=122|
8=FIX.4.4|9=310|35=8|34=10548|49=SYSTEM|52=20211127-14:13:22.134|56=DROPCOPY|128=GATEWAY|1=879865|6=16.36|11=282|14=16500|17=IGTI300086|31=16.36|32=13900|37=282|38=16500|39=2|40=2|44=16.36|54=2|55=IGTI3|60=20211127-14:13:22.134|75=2021-11-27|150=F|151=0|207=BVMF|581=39|1010=269940|1011=JOHNSON|453=1|448=JOHNSON|447=D|452=36|10=005|
8=FIX.4.4|9=318|35=8|34=10549|49=SYSTEM|52=20211127-16:39:58.474|56=DROPCOPY|128=GATEWAY|1=164532|6=17.31|11=290|14=23500|17=PETR400041|31=17.31|32=23500|37=290|38=23500|39=2|40=2|44=17.31|54=1|55=PETR4|60=20211127-16:39:58.474|75=2021-11-27|150=F|151=0|207=BVMF|581=39|1010=406784.99999999994|1011=JONES|453=1|448=JONES|447=D|452=36|10=134|
8=FIX.4.4|9=310|35=8|34=10551|49=SYSTEM|52=20211127-12:53:32.334|56=DROPCOPY|128=GATEWAY|1=879865|6=17.41|11=292|14=11500|17=BBAS300042|31=17.41|32=11500|37=292|38=11500|39=2|40=2|44=17.41|54=1|55=BBAS3|60=20211127-12:53:32.334|75=2021-11-27|150=F|151=0|207=BVMF|581=39|1010=200215|1011=JOHNSON|453=1|448=JOHNSON|447=D|452=36|10=171|
8=FIX.4.4|9=314|35=8|34=10552|49=SYSTEM|52=20211127-12:01:28.437|56=DROPCOPY|128=GATEWAY|1=987453|6=16.43|11=293|14=24500|17=RAPT400057|31=16.43|32=24500|37=293|38=24500|39=2|40=2|44=16.43|54=1|55=RAPT4|60=20211127-12:01:28.437|75=2021-11-27|150=F|151=0|207=BVMF|581=39|1010=402535|1011=RODRIGUEZ|453=1|448=RODRIGUEZ|447=D|452=36|10=069|
8=FIX.4.4|9=302|35=8|34=10554|49=SYSTEM|52=20211127-10:51:07.191|56=DROPCOPY|128=GATEWAY|1=918237|6=18.91|11=294|14=500|17=BBAS300043|31=18.91|32=500|37=294|38=500|39=2|40=2|44=18.91|54=1|55=BBAS3|60=20211127-10:51:07.191|75=2021-11-27|150=F|151=0|207=BVMF|581=39|1010=9455|1011=JOHNSON|453=1|448=JOHNSON|447=D|452=36|10=062|
8=FIX.4.4|9=302|35=8|34=10555|49=SYSTEM|52=20211127-10:11:49.053|56=DROPCOPY|128=GATEWAY|1=918237|6=14.11|11=295|14=1500|17=GOAU400084|31=14.11|32=1500|37=295|38=1500|39=2|40=2|44=14.11|54=1|55=GOAU4|60=20211127-10:11:49.053|75=2021-11-27|150=F|151=0|207=BVMF|581=39|1010=21165|1011=DAVIS|453=1|448=DAVIS|447=D|452=36|10=181|
8=FIX.4.4|9=317|35=8|34=10556|49=SYSTEM|52=20211127-17:54:13.650|56=DROPCOPY|128=GATEWAY|1=987453|6=19.24|11=277|14=12500|17=GOAU400085|31=19.24|32=7900|37=277|38=12500|39=2|40=2|44=19.24|54=2|55=GOAU4|60=20211127-17:54:13.650|75=2021-11-27|150=F|151=0|207=BVMF|581=39|1010=240499.99999999997|1011=JONES|453=1|448=JONES|447=D|452=36|10=073|
8=FIX.4.4|9=306|35=8|34=10559|49=SYSTEM|52=20211127-17:54:16.967|56=DROPCOPY|128=GATEWAY|1=918237|6=14.07|11=272|14=23500|17=BBAS300046|31=14.07|32=12300|37=272|38=23500|39=2|40=2|44=14.07|54=2|55=BBAS3|60=20211127-17:54:16.967|75=2021-11-27|150=F|151=0|207=BVMF|581=39|1010=330645|1011=BROWN|453=1|448=BROWN|447=D|452=36|10=179|
8=FIX.4.4|9=311|35=8|34=10560|49=SYSTEM|52=20211127-16:38:47.933|56=DROPCOPY|128=GATEWAY|1=918239|6=15.47|11=296|14=6500|17=BBAS300047|31=15.47|32=4500|37=296|38=6500|39=2|40=2|44=15.47|54=2|55=BBAS3|60=20211127-16:38:47.933|75=2021-11-27|150=F|151=0|207=BVMF|581=39|1010=100555|1011=RODRIGUEZ|453=1|448=RODRIGUEZ|447=D|452=36|10=151|
8=FIX.4.4|9=305|35=8|34=10561|49=SYSTEM|52=20211127-16:56:24.820|56=DROPCOPY|128=GATEWAY|1=071264|6=16.43|11=291|14=24500|17=IGTI300089|31=16.43|32=2400|37=291|38=24500|39=2|40=2|44=16.43|54=1|55=IGTI3|60=20211127-16:56:24.820|75=2021-11-27|150=F|151=0|207=BVMF|581=39|1010=402535|1011=DAVIS|453=1|448=DAVIS|447=D|452=36|10=111|
8=FIX.4.4|9=310|35=8|34=10562|49=SYSTEM|52=20211127-12:42:24.841|56=DROPCOPY|128=GATEWAY|1=498213|6=12.65|11=297|14=2500|17=POMO400073|31=12.65|32=2500|37=297|38=2500|39=2|40=2|44=12.65|54=2|55=POMO4|60=20211127-12:42:24.841|75=2021-11-27|150=F|151=0|207=BVMF|581=39|1010=31625|1011=RODRIGUEZ|453=1|448=RODRIGUEZ|447=D|452=36|10=122|
8=FIX.4.4|9=310|35=8|34=10564|49=SYSTEM|52=20211127-16:25:48.021|56=DROPCOPY|128=GATEWAY|1=879865|6=18.39|11=298|14=17500|17=POMO400074|31=18.39|32=17500|37=298|38=17500|39=2|40=2|44=18.39|54=2|55=POMO4|60=20211127-16:25:48.021|75=2021-11-27|150=F|151=0|207=BVMF|581=39|1010=321825|1011=JOHNSON|453=1|448=JOHNSON|447=D|452=36|10=068|
8=FIX.4.4|9=306|35=8|34=10567|49=SYSTEM|52=20211127-15:31:00.968|56=DROPCOPY|128=GATEWAY|1=879865|6=16.13|11=281|14=20500|17=VALE300057|31=16.13|32=18400|37=281|38=20500|39=2|40=2|44=16.13|54=2|55=VALE3|60=20211127-15:31:00.968|75=2021-11-27|150=F|151=0|207=BVMF|581=39|1010=330665|1011=SMITH|453=1|448=SMITH|447=D|452=36|10=193|
8=FIX.4.4|9=306|35=8|34=10568|49=SYSTEM|52=20211127-13:34:10.094|56=DROPCOPY|128=GATEWAY|1=987453|6=17.82|11=300|14=12500|17=VALE300058|31=17.82|32=12500|37=300|38=12500|39=2|40=2|44=17.82|54=1|55=VALE3|60=20211127-13:34:10.094|75=2021-11-27|150=F|151=0|207=BVMF|581=39|1010=222750|1011=SMITH|453=1|448=SMITH|447=D|452=36|10=168|
8=FIX.4.4|9=305|35=8|34=10571|49=SYSTEM|52=20211127-17:19:37.050|56=DROPCOPY|128=GATEWAY|1=071264|6=11.4|11=299|14=9500|17=BBAS300050|31=11.4|32=500|37=299|38=9500|39=2|40=2|44=11.4|54=2|55=BBAS3|60=20211127-17:19:37.050|75=2021-11-27|150=F|151=0|207=BVMF|581=39|1010=108300|1011=WILLIAMS|453=1|448=WILLIAMS|447=D|452=36|10=229|
8=FIX.4.4|9=307|35=8|34=10572|49=SYSTEM|52=20211127-16:49:36.615|56=DROPCOPY|128=GATEWAY|1=981727|6=10.01|11=284|14=12500|17=VALE300059|31=10.01|32=6500|37=284|38=12500|39=2|40=2|44=10.01|54=1|55=VALE3|60=20211127-16:49:36.615|75=2021-11-27|150=F|151=0|207=BVMF|581=39|1010=125125|1011=GARCIA|453=1|448=GARCIA|447=D|452=36|10=190|
8=FIX.4.4|9=308|35=8|34=10573|49=SYSTEM|52=20211127-12:30:23.689|56=DROPCOPY|128=GATEWAY|1=918237|6=14.02|11=301|14=6500|17=GOAU400087|31=14.02|32=3100|37=301|38=6500|39=2|40=2|44=14.02|54=1|55=GOAU4|60=20211127-12:30:23.689|75=2021-11-27|150=F|151=0|207=BVMF|581=39|1010=91130|1011=WILLIAMS|453=1|448=WILLIAMS|447=D|452=36|10=151|
