8=FIX.4.4|9=279|35=8|1=981727|6=14.79|11=1|14=1900|17=GOAU400001|31=14.79|32=1900|34=10001|37=1|38=5500|39=1|40=2|44=14.79|49=SYSTEM|52=20211127-13:12:47.720|54=2|55=GOAU4|56=DROPCOPY|60=20211127-13:12:47.720|75=2021-11-27|128=GATEWAY|150=F|151=3600|207=BVMF|581=39|453=1|448=BROWN|447=D|452=36|10=062|
8=FIX.4.4|9=279|35=8|1=918237|6=10.08|11=2|14=18500|17=BBAS300001|31=10.08|32=18500|34=10002|37=2|38=18500|39=2|40=2|44=10.08|49=SYSTEM|52=20211127-11:05:16.040|54=2|55=BBAS3|56=DROPCOPY|60=20211127-11:05:16.040|75=2021-11-27|128=GATEWAY|150=F|151=0|207=BVMF|581=39|453=1|448=DAVIS|447=D|452=36|10=208|
8=FIX.4.4|9=276|35=8|1=071264|6=13.75|11=3|14=2500|17=POMO400001|31=13.75|32=2500|34=10003|37=3|38=2500|39=2|40=2|44=13.75|49=SYSTEM|52=20211127-13:26:58.131|54=2|55=POMO4|56=DROPCOPY|60=20211127-13:26:58.131|75=2021-11-27|128=GATEWAY|150=F|151=0|207=BVMF|581=39|453=1|448=DAVIS|447=D|452=36|10=150|
8=FIX.4.4|9=284|35=8|1=987453|6=18.21|11=4|14=9500|17=POMO400002|31=18.21|32=9500|34=10004|37=4|38=23500|39=1|40=2|44=18.21|49=SYSTEM|52=20211127-10:46:11.783|54=1|55=POMO4|56=DROPCOPY|60=20211127-10:46:11.783|75=2021-11-27|128=GATEWAY|150=F|151=14000|207=BVMF|581=39|453=1|448=MARTINEZ|447=D|452=36|10=150|
8=FIX.4.4|9=284|35=8|1=987453|6=18.21|11=4|14=18800|17=POMO400003|31=18.21|32=9300|34=10005|37=4|38=23500|39=1|40=2|44=18.21|49=SYSTEM|52=20211127-11:59:18.016|54=1|55=POMO4|56=DROPCOPY|60=20211127-11:59:18.016|75=2021-11-27|128=GATEWAY|150=F|151=4700|207=BVMF|581=39|453=1|448=MARTINEZ|447=D|452=36|10=161|
8=FIX.4.4|9=279|35=8|1=164532|6=17.57|11=5|14=3500|17=RAPT400001|31=17.57|32=3500|34=10006|37=5|38=3500|39=2|40=2|44=17.57|49=SYSTEM|52=20211127-15:00:50.570|54=2|55=RAPT4|56=DROPCOPY|60=20211127-15:00:50.570|75=2021-11-27|128=GATEWAY|150=F|151=0|207=BVMF|581=39|453=1|448=MARTINEZ|447=D|452=36|10=141|
8=FIX.4.4|9=269|35=8|1=879865|6=20|11=6|14=2500|17=BPAC1100001|31=20|32=2500|34=10007|37=6|38=2500|39=2|40=2|44=20|49=SYSTEM|52=20211127-15:46:06.042|54=2|55=BPAC11|56=DROPCOPY|60=20211127-15:46:06.042|75=2021-11-27|128=GATEWAY|150=F|151=0|207=BVMF|581=39|453=1|448=DAVIS|447=D|452=36|10=243|
8=FIX.4.4|9=276|35=8|1=918239|6=18.8|11=7|14=11500|17=POMO400004|31=18.8|32=11500|34=10008|37=7|38=11500|39=2|40=2|44=18.8|49=SYSTEM|52=20211127-17:14:38.834|54=1|55=POMO4|56=DROPCOPY|60=20211127-17:14:38.834|75=2021-11-27|128=GATEWAY|150=F|151=0|207=BVMF|581=39|453=1|448=BROWN|447=D|452=36|10=215|
8=FIX.4.4|9=282|35=8|1=164532|6=16.13|11=8|14=16500|17=RAPT400002|31=16.13|32=16500|34=10009|37=8|38=16500|39=2|40=2|44=16.13|49=SYSTEM|52=20211127-11:31:49.479|54=1|55=RAPT4|56=DROPCOPY|60=20211127-11:31:49.479|75=2021-11-27|128=GATEWAY|150=F|151=0|207=BVMF|581=39|453=1|448=WILLIAMS|447=D|452=36|10=041|
8=FIX.4.4|9=281|35=8|1=987453|6=18.21|11=4|14=23500|17=POMO400005|31=18.21|32=4700|34=10010|37=4|38=23500|39=2|40=2|44=18.21|49=SYSTEM|52=20211127-12:37:20.339|54=1|55=POMO4|56=DROPCOPY|60=20211127-12:37:20.339|75=2021-11-27|128=GATEWAY|150=F|151=0|207=BVMF|581=39|453=1|448=MARTINEZ|447=D|452=36|10=246|
8=FIX.4.4|9=283|35=8|1=918237|6=18.87|11=9|14=3700|17=GOAU400002|31=18.87|32=3700|34=10011|37=9|38=11500|39=1|40=2|44=18.87|49=SYSTEM|52=20211127-10:51:15.490|54=1|55=GOAU4|56=DROPCOPY|60=20211127-10:51:15.490|75=2021-11-27|128=GATEWAY|150=F|151=7800|207=BVMF|581=39|453=1|448=MARTINEZ|447=D|452=36|10=098|
8=FIX.4.4|9=285|35=8|1=987453|6=11.97|11=10|14=10500|17=ITUB400001|31=11.97|32=10500|34=10012|37=10|38=10500|39=2|40=2|44=11.97|49=SYSTEM|52=20211127-17:52:36.433|54=2|55=ITUB4|56=DROPCOPY|60=20211127-17:52:36.433|75=2021-11-27|128=GATEWAY|150=F|151=0|207=BVMF|581=39|453=1|448=RODRIGUEZ|447=D|452=36|10=211|
8=FIX.4.4|9=276|35=8|1=981727|6=14.79|11=1|14=5500|17=GOAU400003|31=14.79|32=3600|34=10013|37=1|38=5500|39=2|40=2|44=14.79|49=SYSTEM|52=20211127-16:16:35.798|54=2|55=GOAU4|56=DROPCOPY|60=20211127-16:16:35.798|75=2021-11-27|128=GATEWAY|150=F|151=0|207=BVMF|581=39|453=1|448=BROWN|447=D|452=36|10=205|
8=FIX.4.4|9=281|35=8|1=071264|6=17.93|11=11|14=16500|17=GOAU400004|31=17.93|32=16500|34=10014|37=11|38=16500|39=2|40=2|44=17.93|49=SYSTEM|52=20211127-14:08:05.927|54=1|55=GOAU4|56=DROPCOPY|60=20211127-14:08:05.927|75=2021-11-27|128=GATEWAY|150=F|151=0|207=BVMF|581=39|453=1|448=SMITH|447=D|452=36|10=155|
8=FIX.4.4|9=280|35=8|1=164532|6=15.7|11=12|14=5300|17=IGTI300001|31=15.7|32=5300|34=10015|37=12|38=13500|39=1|40=2|44=15.7|49=SYSTEM|52=20211127-17:01:55.555|54=2|55=IGTI3|56=DROPCOPY|60=20211127-17:01:55.555|75=2021-11-27|128=GATEWAY|150=F|151=8200|207=BVMF|581=39|453=1|448=MILLER|447=D|452=36|10=097|
8=FIX.4.4|9=278|35=8|1=164532|6=15.7|11=12|14=13500|17=IGTI300002|31=15.7|32=8200|34=10016|37=12|38=13500|39=2|40=2|44=15.7|49=SYSTEM|52=20211127-17:06:29.016|54=2|55=IGTI3|56=DROPCOPY|60=20211127-17:06:29.016|75=2021-11-27|128=GATEWAY|150=F|151=0|207=BVMF|581=39|453=1|448=MILLER|447=D|452=36|10=000|
8=FIX.4.4|9=282|35=8|1=498213|6=15.47|11=13|14=1300|17=ITUB400002|31=15.47|32=1300|34=10017|37=13|38=2500|39=1|40=2|44=15.47|49=SYSTEM|52=20211127-16:11:44.660|54=1|55=ITUB4|56=DROPCOPY|60=20211127-16:11:44.660|75=2021-11-27|128=GATEWAY|150=F|151=1200|207=BVMF|581=39|453=1|448=GARCIA|447=D|452=36|10=176|
8=FIX.4.4|9=280|35=8|1=164532|6=12.95|11=14|14=8500|17=GOAU400005|31=12.95|32=8500|34=10018|37=14|38=8500|39=2|40=2|44=12.95|49=SYSTEM|52=20211127-16:36:00.000|54=1|55=GOAU4|56=DROPCOPY|60=20211127-16:36:00.000|75=2021-11-27|128=GATEWAY|150=F|151=0|207=BVMF|581=39|453=1|448=JOHNSON|447=D|452=36|10=130|
8=FIX.4.4|9=279|35=8|1=498213|6=15.47|11=13|14=2500|17=ITUB400003|31=15.47|32=1200|34=10019|37=13|38=2500|39=2|40=2|44=15.47|49=SYSTEM|52=20211127-17:30:49.578|54=1|55=ITUB4|56=DROPCOPY|60=20211127-17:30:49.578|75=2021-11-27|128=GATEWAY|150=F|151=0|207=BVMF|581=39|453=1|448=GARCIA|447=D|452=36|10=071|
8=FIX.4.4|9=279|35=8|1=498213|6=17.3|11=15|14=9000|17=POMO400006|31=17.3|32=9000|34=10020|37=15|38=17500|39=1|40=2|44=17.3|49=SYSTEM|52=20211127-17:21:37.737|54=2|55=POMO4|56=DROPCOPY|60=20211127-17:21:37.737|75=2021-11-27|128=GATEWAY|150=F|151=8500|207=BVMF|581=39|453=1|448=SMITH|447=D|452=36|10=095|
8=FIX.4.4|9=284|35=8|1=071264|6=10.19|11=16|14=1800|17=PETR400001|31=10.19|32=1800|34=10021|37=16|38=3500|39=1|40=2|44=10.19|49=SYSTEM|52=20211127-11:02:06.824|54=1|55=PETR4|56=DROPCOPY|60=20211127-11:02:06.824|75=2021-11-27|128=GATEWAY|150=F|151=1700|207=BVMF|581=39|453=1|448=WILLIAMS|447=D|452=36|10=104|
8=FIX.4.4|9=281|35=8|1=498213|6=13.07|11=17|14=17500|17=VALE300001|31=13.07|32=17500|34=10022|37=17|38=17500|39=2|40=2|44=13.07|49=SYSTEM|52=20211127-10:15:31.676|54=1|55=VALE3|56=DROPCOPY|60=20211127-10:15:31.676|75=2021-11-27|128=GATEWAY|150=F|151=0|207=BVMF|581=39|453=1|448=JONES|447=D|452=36|10=118|
8=FIX.4.4|9=281|35=8|1=498213|6=15.79|11=18|14=1200|17=PETR400002|31=15.79|32=1200|34=10023|37=18|38=1500|39=1|40=2|44=15.79|49=SYSTEM|52=20211127-14:33:42.976|54=2|55=PETR4|56=DROPCOPY|60=20211127-14:33:42.976|75=2021-11-27|128=GATEWAY|150=F|151=300|207=BVMF|581=39|453=1|448=GARCIA|447=D|452=36|10=181|
8=FIX.4.4|9=288|35=8|1=071264|6=15.08|11=19|14=13000|17=SLCE300001|31=15.08|32=13000|34=10024|37=19|38=17500|39=1|40=2|44=15.08|49=SYSTEM|52=20211127-11:57:57.606|54=2|55=SLCE3|56=DROPCOPY|60=20211127-11:57:57.606|75=2021-11-27|128=GATEWAY|150=F|151=4500|207=BVMF|581=39|453=1|448=RODRIGUEZ|447=D|452=36|10=086|
8=FIX.4.4|9=282|35=8|1=918237|6=18.87|11=9|14=3900|17=GOAU400006|31=18.87|32=200|34=10025|37=9|38=11500|39=1|40=2|44=18.87|49=SYSTEM|52=20211127-15:55:00.329|54=1|55=GOAU4|56=DROPCOPY|60=20211127-15:55:00.329|75=2021-11-27|128=GATEWAY|150=F|151=7600|207=BVMF|581=39|453=1|448=MARTINEZ|447=D|452=36|10=058|
8=FIX.4.4|9=286|35=8|1=071264|6=15.08|11=19|14=13900|17=SLCE300002|31=15.08|32=900|34=10026|37=19|38=17500|39=1|40=2|44=15.08|49=SYSTEM|52=20211127-14:51:08.256|54=2|55=SLCE3|56=DROPCOPY|60=20211127-14:51:08.256|75=2021-11-27|128=GATEWAY|150=F|151=3600|207=BVMF|581=39|453=1|448=RODRIGUEZ|447=D|452=36|10=249|
8=FIX.4.4|9=287|35=8|1=918237|6=10.62|11=20|14=22300|17=IGTI300003|31=10.62|32=22300|34=10027|37=20|38=22500|39=1|40=2|44=10.62|49=SYSTEM|52=20211127-14:13:32.942|54=1|55=IGTI3|56=DROPCOPY|60=20211127-14:13:32.942|75=2021-11-27|128=GATEWAY|150=F|151=200|207=BVMF|581=39|453=1|448=RODRIGUEZ|447=D|452=36|10=009|
8=FIX.4.4|9=286|35=8|1=918239|6=19.28|11=21|14=16600|17=POMO400007|31=19.28|32=16600|34=10028|37=21|38=20500|39=1|40=2|44=19.28|49=SYSTEM|52=20211127-13:47:08.149|54=1|55=POMO4|56=DROPCOPY|60=20211127-13:47:08.149|75=2021-11-27|128=GATEWAY|150=F|151=3900|207=BVMF|581=39|453=1|448=JOHNSON|447=D|452=36|10=008|
8=FIX.4.4|9=281|35=8|1=849651|6=17.29|11=22|14=3500|17=GOAU400007|31=17.29|32=3500|34=10029|37=22|38=3500|39=2|40=2|44=17.29|49=SYSTEM|52=20211127-14:13:19.050|54=1|55=GOAU4|56=DROPCOPY|60=20211127-14:13:19.050|75=2021-11-27|128=GATEWAY|150=F|151=0|207=BVMF|581=39|453=1|448=WILLIAMS|447=D|452=36|10=219|
8=FIX.4.4|9=283|35=8|1=918237|6=10.62|11=20|14=22500|17=IGTI300004|31=10.62|32=200|34=10030|37=20|38=22500|39=2|40=2|44=10.62|49=SYSTEM|52=20211127-14:40:55.800|54=1|55=IGTI3|56=DROPCOPY|60=20211127-14:40:55.800|75=2021-11-27|128=GATEWAY|150=F|151=0|207=BVMF|581=39|453=1|448=RODRIGUEZ|447=D|452=36|10=056|
8=FIX.4.4|9=281|35=8|1=071264|6=10.19|11=16|14=3500|17=PETR400003|31=10.19|32=1700|34=10031|37=16|38=3500|39=2|40=2|44=10.19|49=SYSTEM|52=20211127-12:03:40.685|54=1|55=PETR4|56=DROPCOPY|60=20211127-12:03:40.685|75=2021-11-27|128=GATEWAY|150=F|151=0|207=BVMF|581=39|453=1|448=WILLIAMS|447=D|452=36|10=217|
8=FIX.4.4|9=278|35=8|1=498213|6=17.3|11=15|14=9300|17=POMO400008|31=17.3|32=300|34=10032|37=15|38=17500|39=1|40=2|44=17.3|49=SYSTEM|52=20211127-17:51:48.813|54=2|55=POMO4|56=DROPCOPY|60=20211127-17:51:48.813|75=2021-11-27|128=GATEWAY|150=F|151=8200|207=BVMF|581=39|453=1|448=SMITH|447=D|452=36|10=045|
8=FIX.4.4|9=277|35=8|1=498213|6=17.3|11=15|14=17500|17=POMO400009|31=17.3|32=8200|34=10033|37=15|38=17500|39=2|40=2|44=17.3|49=SYSTEM|52=20211127-17:55:41.112|54=2|55=POMO4|56=DROPCOPY|60=20211127-17:55:41.112|75=2021-11-27|128=GATEWAY|150=F|151=0|207=BVMF|581=39|453=1|448=SMITH|447=D|452=36|10=231|
8=FIX.4.4|9=278|35=8|1=498213|6=15.79|11=18|14=1500|17=PETR400004|31=15.79|32=300|34=10034|37=18|38=1500|39=2|40=2|44=15.79|49=SYSTEM|52=20211127-15:05:20.248|54=2|55=PETR4|56=DROPCOPY|60=20211127-15:05:20.248|75=2021-11-27|128=GATEWAY|150=F|151=0|207=BVMF|581=39|453=1|448=GARCIA|447=D|452=36|10=024|
8=FIX.4.4|9=287|35=8|1=071264|6=15.08|11=19|14=15800|17=SLCE300003|31=15.08|32=1900|34=10035|37=19|38=17500|39=1|40=2|44=15.08|49=SYSTEM|52=20211127-16:16:44.131|54=2|55=SLCE3|56=DROPCOPY|60=20211127-16:16:44.131|75=2021-11-27|128=GATEWAY|150=F|151=1700|207=BVMF|581=39|453=1|448=RODRIGUEZ|447=D|452=36|10=034|
8=FIX.4.4|9=283|35=8|1=918237|6=18.87|11=9|14=6500|17=GOAU400008|31=18.87|32=2600|34=10036|37=9|38=11500|39=1|40=2|44=18.87|49=SYSTEM|52=20211127-16:07:11.449|54=1|55=GOAU4|56=DROPCOPY|60=20211127-16:07:11.449|75=2021-11-27|128=GATEWAY|150=F|151=5000|207=BVMF|581=39|453=1|448=MARTINEZ|447=D|452=36|10=114|
8=FIX.4.4|9=282|35=8|1=918239|6=19.28|11=21|14=20500|17=POMO400010|31=19.28|32=3900|34=10037|37=21|38=20500|39=2|40=2|44=19.28|49=SYSTEM|52=20211127-14:05:52.837|54=1|55=POMO4|56=DROPCOPY|60=20211127-14:05:52.837|75=2021-11-27|128=GATEWAY|150=F|151=0|207=BVMF|581=39|453=1|448=JOHNSON|447=D|452=36|10=040|
8=FIX.4.4|9=283|35=8|1=918239|6=19.58|11=23|14=3300|17=GOAU400009|31=19.58|32=3300|34=10038|37=23|38=18500|39=1|40=2|44=19.58|49=SYSTEM|52=20211127-16:58:04.644|54=1|55=GOAU4|56=DROPCOPY|60=20211127-16:58:04.644|75=2021-11-27|128=GATEWAY|150=F|151=15200|207=BVMF|581=39|453=1|448=JONES|447=D|452=36|10=030|
8=FIX.4.4|9=284|35=8|1=071264|6=15.08|11=19|14=17500|17=SLCE300004|31=15.08|32=1700|34=10039|37=19|38=17500|39=2|40=2|44=15.08|49=SYSTEM|52=20211127-16:50:35.315|54=2|55=SLCE3|56=DROPCOPY|60=20211127-16:50:35.315|75=2021-11-27|128=GATEWAY|150=F|151=0|207=BVMF|581=39|453=1|448=RODRIGUEZ|447=D|452=36|10=142|
8=FIX.4.4|9=283|35=8|1=981727|6=18.36|11=24|14=2100|17=GOAU400010|31=18.36|32=2100|34=10040|37=24|38=2500|39=1|40=2|44=18.36|49=SYSTEM|52=20211127-11:30:24.522|54=2|55=GOAU4|56=DROPCOPY|60=20211127-11:30:24.522|75=2021-11-27|128=GATEWAY|150=F|151=400|207=BVMF|581=39|453=1|448=MARTINEZ|447=D|452=36|10=043|
8=FIX.4.4|9=281|35=8|1=918237|6=18.87|11=9|14=11500|17=GOAU400011|31=18.87|32=5000|34=10041|37=9|38=11500|39=2|40=2|44=18.87|49=SYSTEM|52=20211127-16:56:48.712|54=1|55=GOAU4|56=DROPCOPY|60=20211127-16:56:48.712|75=2021-11-27|128=GATEWAY|150=F|151=0|207=BVMF|581=39|453=1|448=MARTINEZ|447=D|452=36|10=009|
8=FIX.4.4|9=281|35=8|1=918239|6=17.6|11=25|14=21500|17=POMO400011|31=17.6|32=21500|34=10042|37=25|38=21500|39=2|40=2|44=17.6|49=SYSTEM|52=20211127-16:40:27.817|54=1|55=POMO4|56=DROPCOPY|60=20211127-16:40:27.817|75=2021-11-27|128=GATEWAY|150=F|151=0|207=BVMF|581=39|453=1|448=MARTINEZ|447=D|452=36|10=005|
8=FIX.4.4|9=281|35=8|1=918239|6=19.58|11=23|14=18500|17=GOAU400012|31=19.58|32=15200|34=10043|37=23|38=18500|39=2|40=2|44=19.58|49=SYSTEM|52=20211127-17:38:22.220|54=1|55=GOAU4|56=DROPCOPY|60=20211127-17:38:22.220|75=2021-11-27|128=GATEWAY|150=F|151=0|207=BVMF|581=39|453=1|448=JONES|447=D|452=36|10=159|
8=FIX.4.4|9=284|35=8|1=987453|6=18.94|11=26|14=2400|17=IGTI300005|31=18.94|32=2400|34=10044|37=26|38=11500|39=1|40=2|44=18.94|49=SYSTEM|52=20211127-12:23:34.635|54=1|55=IGTI3|56=DROPCOPY|60=20211127-12:23:34.635|75=2021-11-27|128=GATEWAY|150=F|151=9100|207=BVMF|581=39|453=1|448=JOHNSON|447=D|452=36|10=120|
8=FIX.4.4|9=283|35=8|1=879865|6=11.66|11=27|14=100|17=PETR400005|31=11.66|32=100|34=10045|37=27|38=1500|39=1|40=2|44=11.66|49=SYSTEM|52=20211127-15:31:47.651|54=1|55=PETR4|56=DROPCOPY|60=20211127-15:31:47.651|75=2021-11-27|128=GATEWAY|150=F|151=1400|207=BVMF|581=39|453=1|448=RODRIGUEZ|447=D|452=36|10=139|
8=FIX.4.4|9=282|35=8|1=879865|6=11.66|11=27|14=1500|17=PETR400006|31=11.66|32=1400|34=10046|37=27|38=1500|39=2|40=2|44=11.66|49=SYSTEM|52=20211127-17:23:38.986|54=1|55=PETR4|56=DROPCOPY|60=20211127-17:23:38.986|75=2021-11-27|128=GATEWAY|150=F|151=0|207=BVMF|581=39|453=1|448=RODRIGUEZ|447=D|452=36|10=125|
8=FIX.4.4|9=280|35=8|1=981727|6=18.36|11=24|14=2500|17=GOAU400013|31=18.36|32=400|34=10047|37=24|38=2500|39=2|40=2|44=18.36|49=SYSTEM|52=20211127-15:49:41.935|54=2|55=GOAU4|56=DROPCOPY|60=20211127-15:49:41.935|75=2021-11-27|128=GATEWAY|150=F|151=0|207=BVMF|581=39|453=1|448=MARTINEZ|447=D|452=36|10=206|
8=FIX.4.4|9=282|35=8|1=987453|6=18.94|11=26|14=11500|17=IGTI300006|31=18.94|32=9100|34=10048|37=26|38=11500|39=2|40=2|44=18.94|49=SYSTEM|52=20211127-15:16:57.920|54=1|55=IGTI3|56=DROPCOPY|60=20211127-15:16:57.920|75=2021-11-27|128=GATEWAY|150=F|151=0|207=BVMF|581=39|453=1|448=JOHNSON|447=D|452=36|10=037|
8=FIX.4.4|9=281|35=8|1=879865|6=17.09|11=28|14=600|17=POMO400012|31=17.09|32=600|34=10049|37=28|38=23500|39=1|40=2|44=17.09|49=SYSTEM|52=20211127-13:36:41.635|54=1|55=POMO4|56=DROPCOPY|60=20211127-13:36:41.635|75=2021-11-27|128=GATEWAY|150=F|151=22900|207=BVMF|581=39|453=1|448=JONES|447=D|452=36|10=206|
8=FIX.4.4|9=281|35=8|1=879865|6=17.09|11=28|14=23500|17=POMO400013|31=17.09|32=22900|34=10050|37=28|38=23500|39=2|40=2|44=17.09|49=SYSTEM|52=20211127-15:24:40.308|54=1|55=POMO4|56=DROPCOPY|60=20211127-15:24:40.308|75=2021-11-27|128=GATEWAY|150=F|151=0|207=BVMF|581=39|453=1|448=JONES|447=D|452=36|10=188|
8=FIX.4.4|9=285|35=8|1=918239|6=12.23|11=29|14=17800|17=GOAU400014|31=12.23|32=17800|34=10051|37=29|38=19500|39=1|40=2|44=12.23|49=SYSTEM|52=20211127-10:58:00.839|54=1|55=GOAU4|56=DROPCOPY|60=20211127-10:58:00.839|75=2021-11-27|128=GATEWAY|150=F|151=1700|207=BVMF|581=39|453=1|448=MILLER|447=D|452=36|10=121|
8=FIX.4.4|9=281|35=8|1=918239|6=12.23|11=29|14=19500|17=GOAU400015|31=12.23|32=1700|34=10052|37=29|38=19500|39=2|40=2|44=12.23|49=SYSTEM|52=20211127-12:25:46.645|54=1|55=GOAU4|56=DROPCOPY|60=20211127-12:25:46.645|75=2021-11-27|128=GATEWAY|150=F|151=0|207=BVMF|581=39|453=1|448=MILLER|447=D|452=36|10=169|
8=FIX.4.4|9=276|35=8|1=879865|6=16.1|11=30|14=900|17=SLCE300005|31=16.1|32=900|34=10053|37=30|38=4500|39=1|40=2|44=16.1|49=SYSTEM|52=20211127-17:40:21.586|54=1|55=SLCE3|56=DROPCOPY|60=20211127-17:40:21.586|75=2021-11-27|128=GATEWAY|150=F|151=3600|207=BVMF|581=39|453=1|448=SMITH|447=D|452=36|10=151|
8=FIX.4.4|9=275|35=8|1=879865|6=16.1|11=30|14=4500|17=SLCE300006|31=16.1|32=3600|34=10054|37=30|38=4500|39=2|40=2|44=16.1|49=SYSTEM|52=20211127-17:40:33.754|54=1|55=SLCE3|56=DROPCOPY|60=20211127-17:40:33.754|75=2021-11-27|128=GATEWAY|150=F|151=0|207=BVMF|581=39|453=1|448=SMITH|447=D|452=36|10=096|
8=FIX.4.4|9=282|35=8|1=981727|6=13.71|11=31|14=6500|17=GOAU400016|31=13.71|32=6500|34=10055|37=31|38=6500|39=2|40=2|44=13.71|49=SYSTEM|52=20211127-12:10:38.868|54=1|55=GOAU4|56=DROPCOPY|60=20211127-12:10:38.868|75=2021-11-27|128=GATEWAY|150=F|151=0|207=BVMF|581=39|453=1|448=RODRIGUEZ|447=D|452=36|10=067|
8=FIX.4.4|9=283|35=8|1=498213|6=11.43|11=32|14=19500|17=IGTI300007|31=11.43|32=19500|34=10056|37=32|38=19500|39=2|40=2|44=11.43|49=SYSTEM|52=20211127-13:20:56.237|54=2|55=IGTI3|56=DROPCOPY|60=20211127-13:20:56.237|75=2021-11-27|128=GATEWAY|150=F|151=0|207=BVMF|581=39|453=1|448=JOHNSON|447=D|452=36|10=040|
8=FIX.4.4|9=283|35=8|1=987453|6=19.63|11=33|14=11500|17=GOAU400017|31=19.63|32=11500|34=10057|37=33|38=11500|39=2|40=2|44=19.63|49=SYSTEM|52=20211127-12:41:09.618|54=1|55=GOAU4|56=DROPCOPY|60=20211127-12:41:09.618|75=2021-11-27|128=GATEWAY|150=F|151=0|207=BVMF|581=39|453=1|448=JOHNSON|447=D|452=36|10=064|
8=FIX.4.4|9=284|35=8|1=987453|6=10.45|11=34|14=5300|17=IGTI300008|31=10.45|32=5300|34=10058|37=34|38=17500|39=1|40=2|44=10.45|49=SYSTEM|52=20211127-12:15:54.202|54=1|55=IGTI3|56=DROPCOPY|60=20211127-12:15:54.202|75=2021-11-27|128=GATEWAY|150=F|151=12200|207=BVMF|581=39|453=1|448=GARCIA|447=D|452=36|10=009|
8=FIX.4.4|9=283|35=8|1=498213|6=16.66|11=35|14=2800|17=RAPT400003|31=16.66|32=2800|34=10059|37=35|38=10500|39=1|40=2|44=16.66|49=SYSTEM|52=20211127-11:20:11.540|54=1|55=RAPT4|56=DROPCOPY|60=20211127-11:20:11.540|75=2021-11-27|128=GATEWAY|150=F|151=7700|207=BVMF|581=39|453=1|448=MILLER|447=D|452=36|10=020|
8=FIX.4.4|9=282|35=8|1=987453|6=10.45|11=34|14=17500|17=IGTI300009|31=10.45|32=12200|34=10060|37=34|38=17500|39=2|40=2|44=10.45|49=SYSTEM|52=20211127-15:22:05.408|54=1|55=IGTI3|56=DROPCOPY|60=20211127-15:22:05.408|75=2021-11-27|128=GATEWAY|150=F|151=0|207=BVMF|581=39|453=1|448=GARCIA|447=D|452=36|10=169|
8=FIX.4.4|9=281|35=8|1=164532|6=19.39|11=36|14=18500|17=VALE300002|31=19.39|32=18500|34=10061|37=36|38=18500|39=2|40=2|44=19.39|49=SYSTEM|52=20211127-17:58:25.586|54=2|55=VALE3|56=DROPCOPY|60=20211127-17:58:25.586|75=2021-11-27|128=GATEWAY|150=F|151=0|207=BVMF|581=39|453=1|448=BROWN|447=D|452=36|10=198|
8=FIX.4.4|9=285|35=8|1=849651|6=10.54|11=37|14=6400|17=IGTI300010|31=10.54|32=6400|34=10062|37=37|38=10500|39=1|40=2|44=10.54|49=SYSTEM|52=20211127-14:46:30.247|54=1|55=IGTI3|56=DROPCOPY|60=20211127-14:46:30.247|75=2021-11-27|128=GATEWAY|150=F|151=4100|207=BVMF|581=39|453=1|448=WILLIAMS|447=D|452=36|10=155|
8=FIX.4.4|9=281|35=8|1=849651|6=13.38|11=38|14=18500|17=POMO400014|31=13.38|32=18500|34=10063|37=38|38=18500|39=2|40=2|44=13.38|49=SYSTEM|52=20211127-11:55:08.789|54=1|55=POMO4|56=DROPCOPY|60=20211127-11:55:08.789|75=2021-11-27|128=GATEWAY|150=F|151=0|207=BVMF|581=39|453=1|448=SMITH|447=D|452=36|10=228|
8=FIX.4.4|9=283|35=8|1=849651|6=10.54|11=37|14=10500|17=IGTI300011|31=10.54|32=4100|34=10064|37=37|38=10500|39=2|40=2|44=10.54|49=SYSTEM|52=20211127-16:10:21.118|54=1|55=IGTI3|56=DROPCOPY|60=20211127-16:10:21.118|75=2021-11-27|128=GATEWAY|150=F|151=0|207=BVMF|581=39|453=1|448=WILLIAMS|447=D|452=36|10=027|
8=FIX.4.4|9=282|35=8|1=879865|6=13.77|11=39|14=7900|17=RAPT400004|31=13.77|32=7900|34=10065|37=39|38=11500|39=1|40=2|44=13.77|49=SYSTEM|52=20211127-13:35:16.816|54=1|55=RAPT4|56=DROPCOPY|60=20211127-13:35:16.816|75=2021-11-27|128=GATEWAY|150=F|151=3600|207=BVMF|581=39|453=1|448=SMITH|447=D|452=36|10=020|
8=FIX.4.4|9=284|35=8|1=164532|6=18.83|11=40|14=2500|17=POMO400015|31=18.83|32=2500|34=10066|37=40|38=4500|39=1|40=2|44=18.83|49=SYSTEM|52=20211127-12:03:05.864|54=1|55=POMO4|56=DROPCOPY|60=20211127-12:03:05.864|75=2021-11-27|128=GATEWAY|150=F|151=2000|207=BVMF|581=39|453=1|448=MARTINEZ|447=D|452=36|10=149|
8=FIX.4.4|9=287|35=8|1=918239|6=15.36|11=41|14=11200|17=IGTI300012|31=15.36|32=11200|34=10067|37=41|38=18500|39=1|40=2|44=15.36|49=SYSTEM|52=20211127-11:58:34.333|54=1|55=IGTI3|56=DROPCOPY|60=20211127-11:58:34.333|75=2021-11-27|128=GATEWAY|150=F|151=7300|207=BVMF|581=39|453=1|448=WILLIAMS|447=D|452=36|10=009|
8=FIX.4.4|9=282|35=8|1=071264|6=14.59|11=42|14=9800|17=ITUB400004|31=14.59|32=9800|34=10068|37=42|38=16500|39=1|40=2|44=14.59|49=SYSTEM|52=20211127-11:10:16.963|54=1|55=ITUB4|56=DROPCOPY|60=20211127-11:10:16.963|75=2021-11-27|128=GATEWAY|150=F|151=6700|207=BVMF|581=39|453=1|448=DAVIS|447=D|452=36|10=226|
8=FIX.4.4|9=283|35=8|1=498213|6=11.82|11=43|14=4500|17=BPAC1100002|31=11.82|32=4500|34=10069|37=43|38=4500|39=2|40=2|44=11.82|49=SYSTEM|52=20211127-14:49:51.850|54=1|55=BPAC11|56=DROPCOPY|60=20211127-14:49:51.850|75=2021-11-27|128=GATEWAY|150=F|151=0|207=BVMF|581=39|453=1|448=MARTINEZ|447=D|452=36|10=028|
8=FIX.4.4|9=283|35=8|1=498213|6=11.26|11=44|14=8600|17=VALE300003|31=11.26|32=8600|34=10070|37=44|38=21500|39=1|40=2|44=11.26|49=SYSTEM|52=20211127-10:55:49.291|54=1|55=VALE3|56=DROPCOPY|60=20211127-10:55:49.291|75=2021-11-27|128=GATEWAY|150=F|151=12900|207=BVMF|581=39|453=1|448=BROWN|447=D|452=36|10=247|
8=FIX.4.4|9=281|35=8|1=849651|6=17.92|11=45|14=18500|17=VALE300004|31=17.92|32=18500|34=10071|37=45|38=18500|39=2|40=2|44=17.92|49=SYSTEM|52=20211127-17:13:46.762|54=1|55=VALE3|56=DROPCOPY|60=20211127-17:13:46.762|75=2021-11-27|128=GATEWAY|150=F|151=0|207=BVMF|581=39|453=1|448=BROWN|447=D|452=36|10=183|
8=FIX.4.4|9=281|35=8|1=498213|6=11.26|11=44|14=21500|17=VALE300005|31=11.26|32=12900|34=10072|37=44|38=21500|39=2|40=2|44=11.26|49=SYSTEM|52=20211127-14:04:53.794|54=1|55=VALE3|56=DROPCOPY|60=20211127-14:04:53.794|75=2021-11-27|128=GATEWAY|150=F|151=0|207=BVMF|581=39|453=1|448=BROWN|447=D|452=36|10=136|
8=FIX.4.4|9=282|35=8|1=987453|6=14.43|11=46|14=7000|17=VALE300006|31=14.43|32=7000|34=10073|37=46|38=9500|39=1|40=2|44=14.43|49=SYSTEM|52=20211127-14:50:05.909|54=1|55=VALE3|56=DROPCOPY|60=20211127-14:50:05.909|75=2021-11-27|128=GATEWAY|150=F|151=2500|207=BVMF|581=39|453=1|448=GARCIA|447=D|452=36|10=187|
8=FIX.4.4|9=279|35=8|1=498213|6=15.97|11=47|14=9500|17=SLCE300007|31=15.97|32=9500|34=10074|37=47|38=9500|39=2|40=2|44=15.97|49=SYSTEM|52=20211127-16:41:56.386|54=1|55=SLCE3|56=DROPCOPY|60=20211127-16:41:56.386|75=2021-11-27|128=GATEWAY|150=F|151=0|207=BVMF|581=39|453=1|448=GARCIA|447=D|452=36|10=094|
8=FIX.4.4|9=278|35=8|1=918239|6=12.4|11=48|14=18500|17=BBAS300002|31=12.4|32=18500|34=10075|37=48|38=18500|39=2|40=2|44=12.4|49=SYSTEM|52=20211127-14:29:08.413|54=2|55=BBAS3|56=DROPCOPY|60=20211127-14:29:08.413|75=2021-11-27|128=GATEWAY|150=F|151=0|207=BVMF|581=39|453=1|448=BROWN|447=D|452=36|10=231|
8=FIX.4.4|9=280|35=8|1=164532|6=14.07|11=49|14=3500|17=POMO400016|31=14.07|32=3500|34=10076|37=49|38=3500|39=2|40=2|44=14.07|49=SYSTEM|52=20211127-14:35:54.841|54=2|55=POMO4|56=DROPCOPY|60=20211127-14:35:54.841|75=2021-11-27|128=GATEWAY|150=F|151=0|207=BVMF|581=39|453=1|448=JOHNSON|447=D|452=36|10=191|
8=FIX.4.4|9=282|35=8|1=879865|6=13.77|11=39|14=11400|17=RAPT400005|31=13.77|32=3500|34=10077|37=39|38=11500|39=1|40=2|44=13.77|49=SYSTEM|52=20211127-14:06:01.042|54=1|55=RAPT4|56=DROPCOPY|60=20211127-14:06:01.042|75=2021-11-27|128=GATEWAY|150=F|151=100|207=BVMF|581=39|453=1|448=SMITH|447=D|452=36|10=222|
8=FIX.4.4|9=281|35=8|1=987453|6=14.43|11=46|14=7100|17=VALE300007|31=14.43|32=100|34=10078|37=46|38=9500|39=1|40=2|44=14.43|49=SYSTEM|52=20211127-15:20:04.532|54=1|55=VALE3|56=DROPCOPY|60=20211127-15:20:04.532|75=2021-11-27|128=GATEWAY|150=F|151=2400|207=BVMF|581=39|453=1|448=GARCIA|447=D|452=36|10=116|
8=FIX.4.4|9=281|35=8|1=987453|6=14.43|11=46|14=8700|17=VALE300008|31=14.43|32=1600|34=10079|37=46|38=9500|39=1|40=2|44=14.43|49=SYSTEM|52=20211127-15:35:49.982|54=1|55=VALE3|56=DROPCOPY|60=20211127-15:35:49.982|75=2021-11-27|128=GATEWAY|150=F|151=800|207=BVMF|581=39|453=1|448=GARCIA|447=D|452=36|10=181|
8=FIX.4.4|9=281|35=8|1=164532|6=18.83|11=40|14=4500|17=POMO400017|31=18.83|32=2000|34=10080|37=40|38=4500|39=2|40=2|44=18.83|49=SYSTEM|52=20211127-16:02:32.122|54=1|55=POMO4|56=DROPCOPY|60=20211127-16:02:32.122|75=2021-11-27|128=GATEWAY|150=F|151=0|207=BVMF|581=39|453=1|448=MARTINEZ|447=D|452=36|10=232|
8=FIX.4.4|9=283|35=8|1=918237|6=18.64|11=50|14=8000|17=GOAU400018|31=18.64|32=8000|34=10081|37=50|38=10500|39=1|40=2|44=18.64|49=SYSTEM|52=20211127-12:26:41.272|54=2|55=GOAU4|56=DROPCOPY|60=20211127-12:26:41.272|75=2021-11-27|128=GATEWAY|150=F|151=2500|207=BVMF|581=39|453=1|448=MILLER|447=D|452=36|10=010|
8=FIX.4.4|9=283|35=8|1=918239|6=14.96|11=51|14=6100|17=RAPT400006|31=14.96|32=6100|34=10082|37=51|38=19500|39=1|40=2|44=14.96|49=SYSTEM|52=20211127-11:48:24.997|54=2|55=RAPT4|56=DROPCOPY|60=20211127-11:48:24.997|75=2021-11-27|128=GATEWAY|150=F|151=13400|207=BVMF|581=39|453=1|448=SMITH|447=D|452=36|10=065|
8=FIX.4.4|9=283|35=8|1=918237|6=18.57|11=52|14=20500|17=ITUB400005|31=18.57|32=20500|34=10083|37=52|38=20500|39=2|40=2|44=18.57|49=SYSTEM|52=20211127-16:33:24.706|54=1|55=ITUB4|56=DROPCOPY|60=20211127-16:33:24.706|75=2021-11-27|128=GATEWAY|150=F|151=0|207=BVMF|581=39|453=1|448=JOHNSON|447=D|452=36|10=078|
8=FIX.4.4|9=286|35=8|1=918239|6=18.26|11=53|14=4500|17=PETR400007|31=18.26|32=4500|34=10084|37=53|38=24500|39=1|40=2|44=18.26|49=SYSTEM|52=20211127-17:36:35.065|54=2|55=PETR4|56=DROPCOPY|60=20211127-17:36:35.065|75=2021-11-27|128=GATEWAY|150=F|151=20000|207=BVMF|581=39|453=1|448=MARTINEZ|447=D|452=36|10=023|
8=FIX.4.4|9=280|35=8|1=071264|6=14.59|11=42|14=16500|17=ITUB400006|31=14.59|32=6700|34=10085|37=42|38=16500|39=2|40=2|44=14.59|49=SYSTEM|52=20211127-12:30:08.010|54=1|55=ITUB4|56=DROPCOPY|60=20211127-12:30:08.010|75=2021-11-27|128=GATEWAY|150=F|151=0|207=BVMF|581=39|453=1|448=DAVIS|447=D|452=36|10=082|
8=FIX.4.4|9=285|35=8|1=918239|6=16.64|11=54|14=11500|17=IGTI300013|31=16.64|32=11500|34=10086|37=54|38=23500|39=1|40=2|44=16.64|49=SYSTEM|52=20211127-12:42:19.030|54=1|55=IGTI3|56=DROPCOPY|60=20211127-12:42:19.030|75=2021-11-27|128=GATEWAY|150=F|151=12000|207=BVMF|581=39|453=1|448=SMITH|447=D|452=36|10=083|
8=FIX.4.4|9=280|35=8|1=164532|6=18.54|11=55|14=5500|17=POMO400018|31=18.54|32=5500|34=10087|37=55|38=5500|39=2|40=2|44=18.54|49=SYSTEM|52=20211127-16:55:03.082|54=1|55=POMO4|56=DROPCOPY|60=20211127-16:55:03.082|75=2021-11-27|128=GATEWAY|150=F|151=0|207=BVMF|581=39|453=1|448=JOHNSON|447=D|452=36|10=202|
8=FIX.4.4|9=286|35=8|1=987453|6=11.76|11=56|14=11100|17=SLCE300008|31=11.76|32=11100|34=10088|37=56|38=12500|39=1|40=2|44=11.76|49=SYSTEM|52=20211127-11:36:47.270|54=2|55=SLCE3|56=DROPCOPY|60=20211127-11:36:47.270|75=2021-11-27|128=GATEWAY|150=F|151=1400|207=BVMF|581=39|453=1|448=JOHNSON|447=D|452=36|10=197|
8=FIX.4.4|9=278|35=8|1=987453|6=14.43|11=46|14=9500|17=VALE300009|31=14.43|32=800|34=10089|37=46|38=9500|39=2|40=2|44=14.43|49=SYSTEM|52=20211127-16:58:39.675|54=1|55=VALE3|56=DROPCOPY|60=20211127-16:58:39.675|75=2021-11-27|128=GATEWAY|150=F|151=0|207=BVMF|581=39|453=1|448=GARCIA|447=D|452=36|10=046|
8=FIX.4.4|9=280|35=8|1=498213|6=17.19|11=57|14=8500|17=IGTI300014|31=17.19|32=8500|34=10090|37=57|38=8500|39=2|40=2|44=17.19|49=SYSTEM|52=20211127-11:28:39.288|54=1|55=IGTI3|56=DROPCOPY|60=20211127-11:28:39.288|75=2021-11-27|128=GATEWAY|150=F|151=0|207=BVMF|581=39|453=1|448=JOHNSON|447=D|452=36|10=205|
8=FIX.4.4|9=281|35=8|1=987453|6=18.32|11=58|14=4700|17=BBAS300003|31=18.32|32=4700|34=10091|37=58|38=6500|39=1|40=2|44=18.32|49=SYSTEM|52=20211127-17:23:17.306|54=2|55=BBAS3|56=DROPCOPY|60=20211127-17:23:17.306|75=2021-11-27|128=GATEWAY|150=F|151=1800|207=BVMF|581=39|453=1|448=DAVIS|447=D|452=36|10=117|
8=FIX.4.4|9=283|35=8|1=918239|6=16.64|11=54|14=11800|17=IGTI300015|31=16.64|32=300|34=10092|37=54|38=23500|39=1|40=2|44=16.64|49=SYSTEM|52=20211127-16:34:54.299|54=1|55=IGTI3|56=DROPCOPY|60=20211127-16:34:54.299|75=2021-11-27|128=GATEWAY|150=F|151=11700|207=BVMF|581=39|453=1|448=SMITH|447=D|452=36|10=031|
8=FIX.4.4|9=282|35=8|1=987453|6=17.45|11=59|14=100|17=POMO400019|31=17.45|32=100|34=10093|37=59|38=3500|39=1|40=2|44=17.45|49=SYSTEM|52=20211127-12:42:58.264|54=2|55=POMO4|56=DROPCOPY|60=20211127-12:42:58.264|75=2021-11-27|128=GATEWAY|150=F|151=3400|207=BVMF|581=39|453=1|448=MARTINEZ|447=D|452=36|10=084|
8=FIX.4.4|9=283|35=8|1=918237|6=12.44|11=60|14=14500|17=GOAU400019|31=12.44|32=14500|34=10094|37=60|38=14500|39=2|40=2|44=12.44|49=SYSTEM|52=20211127-15:02:22.201|54=2|55=GOAU4|56=DROPCOPY|60=20211127-15:02:22.201|75=2021-11-27|128=GATEWAY|150=F|151=0|207=BVMF|581=39|453=1|448=JOHNSON|447=D|452=36|10=013|
8=FIX.4.4|9=282|35=8|1=164532|6=11.97|11=61|14=15500|17=IGTI300016|31=11.97|32=15500|34=10095|37=61|38=15500|39=2|40=2|44=11.97|49=SYSTEM|52=20211127-15:44:55.716|54=1|55=IGTI3|56=DROPCOPY|60=20211127-15:44:55.716|75=2021-11-27|128=GATEWAY|150=F|151=0|207=BVMF|581=39|453=1|448=MILLER|447=D|452=36|10=238|
8=FIX.4.4|9=279|35=8|1=879865|6=13.77|11=39|14=11500|17=RAPT400007|31=13.77|32=100|34=10096|37=39|38=11500|39=2|40=2|44=13.77|49=SYSTEM|52=20211127-16:40:26.055|54=1|55=RAPT4|56=DROPCOPY|60=20211127-16:40:26.055|75=2021-11-27|128=GATEWAY|150=F|151=0|207=BVMF|581=39|453=1|448=SMITH|447=D|452=36|10=103|
8=FIX.4.4|9=281|35=8|1=987453|6=17.45|11=59|14=3500|17=POMO400020|31=17.45|32=3400|34=10097|37=59|38=3500|39=2|40=2|44=17.45|49=SYSTEM|52=20211127-13:32:10.035|54=2|55=POMO4|56=DROPCOPY|60=20211127-13:32:10.035|75=2021-11-27|128=GATEWAY|150=F|151=0|207=BVMF|581=39|453=1|448=MARTINEZ|447=D|452=36|10=006|
8=FIX.4.4|9=284|35=8|1=849651|6=11.7|11=62|14=6000|17=RAPT400008|31=11.7|32=6000|34=10098|37=62|38=19500|39=1|40=2|44=11.7|49=SYSTEM|52=20211127-13:54:38.737|54=1|55=RAPT4|56=DROPCOPY|60=20211127-13:54:38.737|75=2021-11-27|128=GATEWAY|150=F|151=13500|207=BVMF|581=39|453=1|448=RODRIGUEZ|447=D|452=36|10=203|
8=FIX.4.4|9=281|35=8|1=918237|6=19.44|11=63|14=18500|17=IGTI300017|31=19.44|32=18500|34=10099|37=63|38=18500|39=2|40=2|44=19.44|49=SYSTEM|52=20211127-17:18:10.479|54=2|55=IGTI3|56=DROPCOPY|60=20211127-17:18:10.479|75=2021-11-27|128=GATEWAY|150=F|151=0|207=BVMF|581=39|453=1|448=DAVIS|447=D|452=36|10=187|
8=FIX.4.4|9=281|35=8|1=879865|6=18.47|11=64|14=23500|17=IGTI300018|31=18.47|32=23500|34=10100|37=64|38=23500|39=2|40=2|44=18.47|49=SYSTEM|52=20211127-16:09:37.992|54=1|55=IGTI3|56=DROPCOPY|60=20211127-16:09:37.992|75=2021-11-27|128=GATEWAY|150=F|151=0|207=BVMF|581=39|453=1|448=JONES|447=D|452=36|10=203|
8=FIX.4.4|9=280|35=8|1=071264|6=14.57|11=65|14=8500|17=BPAC1100003|31=14.57|32=8500|34=10101|37=65|38=8500|39=2|40=2|44=14.57|49=SYSTEM|52=20211127-15:29:43.492|54=2|55=BPAC11|56=DROPCOPY|60=20211127-15:29:43.492|75=2021-11-27|128=GATEWAY|150=F|151=0|207=BVMF|581=39|453=1|448=SMITH|447=D|452=36|10=073|
8=FIX.4.4|9=282|35=8|1=918237|6=15.7|11=66|14=18500|17=PETR400008|31=15.7|32=18500|34=10102|37=66|38=18500|39=2|40=2|44=15.7|49=SYSTEM|52=20211127-13:45:02.020|54=1|55=PETR4|56=DROPCOPY|60=20211127-13:45:02.020|75=2021-11-27|128=GATEWAY|150=F|151=0|207=BVMF|581=39|453=1|448=RODRIGUEZ|447=D|452=36|10=075|
8=FIX.4.4|9=289|35=8|1=849651|6=10.75|11=67|14=13600|17=BPAC1100004|31=10.75|32=13600|34=10103|37=67|38=23500|39=1|40=2|44=10.75|49=SYSTEM|52=20211127-10:55:14.072|54=1|55=BPAC11|56=DROPCOPY|60=20211127-10:55:14.072|75=2021-11-27|128=GATEWAY|150=F|151=9900|207=BVMF|581=39|453=1|448=WILLIAMS|447=D|452=36|10=066|
8=FIX.4.4|9=282|35=8|1=981727|6=15.47|11=68|14=6100|17=GOAU400020|31=15.47|32=6100|34=10104|37=68|38=14500|39=1|40=2|44=15.47|49=SYSTEM|52=20211127-16:38:00.502|54=2|55=GOAU4|56=DROPCOPY|60=20211127-16:38:00.502|75=2021-11-27|128=GATEWAY|150=F|151=8400|207=BVMF|581=39|453=1|448=SMITH|447=D|452=36|10=209|
8=FIX.4.4|9=283|35=8|1=918239|6=14.96|11=51|14=11600|17=RAPT400009|31=14.96|32=5500|34=10105|37=51|38=19500|39=1|40=2|44=14.96|49=SYSTEM|52=20211127-16:00:26.951|54=2|55=RAPT4|56=DROPCOPY|60=20211127-16:00:26.951|75=2021-11-27|128=GATEWAY|150=F|151=7900|207=BVMF|581=39|453=1|448=SMITH|447=D|452=36|10=046|
8=FIX.4.4|9=286|35=8|1=164532|6=16.89|11=69|14=13600|17=GOAU400021|31=16.89|32=13600|34=10106|37=69|38=15500|39=1|40=2|44=16.89|49=SYSTEM|52=20211127-13:33:02.043|54=1|55=GOAU4|56=DROPCOPY|60=20211127-13:33:02.043|75=2021-11-27|128=GATEWAY|150=F|151=1900|207=BVMF|581=39|453=1|448=JOHNSON|447=D|452=36|10=212|
8=FIX.4.4|9=282|35=8|1=987453|6=11.76|11=56|14=12500|17=SLCE300009|31=11.76|32=1400|34=10107|37=56|38=12500|39=2|40=2|44=11.76|49=SYSTEM|52=20211127-11:51:16.866|54=2|55=SLCE3|56=DROPCOPY|60=20211127-11:51:16.866|75=2021-11-27|128=GATEWAY|150=F|151=0|207=BVMF|581=39|453=1|448=JOHNSON|447=D|452=36|10=005|
8=FIX.4.4|9=282|35=8|1=164532|6=12.26|11=70|14=3500|17=PETR400009|31=12.26|32=3500|34=10108|37=70|38=3500|39=2|40=2|44=12.26|49=SYSTEM|52=20211127-15:19:08.493|54=2|55=PETR4|56=DROPCOPY|60=20211127-15:19:08.493|75=2021-11-27|128=GATEWAY|150=F|151=0|207=BVMF|581=39|453=1|448=RODRIGUEZ|447=D|452=36|10=086|
8=FIX.4.4|9=284|35=8|1=164532|6=12.75|11=71|14=10500|17=IGTI300019|31=12.75|32=10500|34=10109|37=71|38=10500|39=2|40=2|44=12.75|49=SYSTEM|52=20211127-12:15:01.369|54=2|55=IGTI3|56=DROPCOPY|60=20211127-12:15:01.369|75=2021-11-27|128=GATEWAY|150=F|151=0|207=BVMF|581=39|453=1|448=MARTINEZ|447=D|452=36|10=107|
8=FIX.4.4|9=285|35=8|1=849651|6=10.75|11=67|14=23500|17=BPAC1100005|31=10.75|32=9900|34=10110|37=67|38=23500|39=2|40=2|44=10.75|49=SYSTEM|52=20211127-15:04:32.164|54=1|55=BPAC11|56=DROPCOPY|60=20211127-15:04:32.164|75=2021-11-27|128=GATEWAY|150=F|151=0|207=BVMF|581=39|453=1|448=WILLIAMS|447=D|452=36|10=118|
8=FIX.4.4|9=281|35=8|1=981727|6=19.85|11=72|14=24500|17=ITUB400007|31=19.85|32=24500|34=10111|37=72|38=24500|39=2|40=2|44=19.85|49=SYSTEM|52=20211127-11:06:47.687|54=2|55=ITUB4|56=DROPCOPY|60=20211127-11:06:47.687|75=2021-11-27|128=GATEWAY|150=F|151=0|207=BVMF|581=39|453=1|448=JONES|447=D|452=36|10=209|
8=FIX.4.4|9=281|35=8|1=849651|6=12.56|11=73|14=6500|17=POMO400021|31=12.56|32=6500|34=10112|37=73|38=6500|39=2|40=2|44=12.56|49=SYSTEM|52=20211127-13:47:06.275|54=1|55=POMO4|56=DROPCOPY|60=20211127-13:47:06.275|75=2021-11-27|128=GATEWAY|150=F|151=0|207=BVMF|581=39|453=1|448=MARTINEZ|447=D|452=36|10=018|
8=FIX.4.4|9=281|35=8|1=918237|6=10.12|11=74|14=7500|17=VALE300010|31=10.12|32=7500|34=10113|37=74|38=7500|39=2|40=2|44=10.12|49=SYSTEM|52=20211127-15:23:41.662|54=1|55=VALE3|56=DROPCOPY|60=20211127-15:23:41.662|75=2021-11-27|128=GATEWAY|150=F|151=0|207=BVMF|581=39|453=1|448=WILLIAMS|447=D|452=36|10=187|
8=FIX.4.4|9=281|35=8|1=918237|6=18.64|11=50|14=10500|17=GOAU400022|31=18.64|32=2500|34=10114|37=50|38=10500|39=2|40=2|44=18.64|49=SYSTEM|52=20211127-13:10:07.211|54=2|55=GOAU4|56=DROPCOPY|60=20211127-13:10:07.211|75=2021-11-27|128=GATEWAY|150=F|151=0|207=BVMF|581=39|453=1|448=MILLER|447=D|452=36|10=129|
8=FIX.4.4|9=281|35=8|1=918239|6=16.64|11=54|14=23500|17=IGTI300020|31=16.64|32=11700|34=10115|37=54|38=23500|39=2|40=2|44=16.64|49=SYSTEM|52=20211127-16:59:22.399|54=1|55=IGTI3|56=DROPCOPY|60=20211127-16:59:22.399|75=2021-11-27|128=GATEWAY|150=F|151=0|207=BVMF|581=39|453=1|448=SMITH|447=D|452=36|10=185|
8=FIX.4.4|9=285|35=8|1=918237|6=12.85|11=75|14=8200|17=BPAC1100006|31=12.85|32=8200|34=10116|37=75|38=22500|39=1|40=2|44=12.85|49=SYSTEM|52=20211127-13:52:04.871|54=1|55=BPAC11|56=DROPCOPY|60=20211127-13:52:04.871|75=2021-11-27|128=GATEWAY|150=F|151=14300|207=BVMF|581=39|453=1|448=JONES|447=D|452=36|10=054|
8=FIX.4.4|9=280|35=8|1=071264|6=16.14|11=76|14=4300|17=BBAS300004|31=16.14|32=4300|34=10117|37=76|38=4500|39=1|40=2|44=16.14|49=SYSTEM|52=20211127-17:52:24.753|54=1|55=BBAS3|56=DROPCOPY|60=20211127-17:52:24.753|75=2021-11-27|128=GATEWAY|150=F|151=200|207=BVMF|581=39|453=1|448=BROWN|447=D|452=36|10=057|
8=FIX.4.4|9=275|35=8|1=498213|6=18.7|11=77|14=9500|17=GOAU400023|31=18.7|32=9500|34=10118|37=77|38=9500|39=2|40=2|44=18.7|49=SYSTEM|52=20211127-13:48:21.692|54=2|55=GOAU4|56=DROPCOPY|60=20211127-13:48:21.692|75=2021-11-27|128=GATEWAY|150=F|151=0|207=BVMF|581=39|453=1|448=DAVIS|447=D|452=36|10=144|
8=FIX.4.4|9=278|35=8|1=987453|6=18.32|11=58|14=6500|17=BBAS300005|31=18.32|32=1800|34=10119|37=58|38=6500|39=2|40=2|44=18.32|49=SYSTEM|52=20211127-17:37:43.257|54=2|55=BBAS3|56=DROPCOPY|60=20211127-17:37:43.257|75=2021-11-27|128=GATEWAY|150=F|151=0|207=BVMF|581=39|453=1|448=DAVIS|447=D|452=36|10=246|
8=FIX.4.4|9=284|35=8|1=918237|6=16.39|11=78|14=11500|17=IGTI300021|31=16.39|32=11500|34=10120|37=78|38=11500|39=2|40=2|44=16.39|49=SYSTEM|52=20211127-10:08:25.619|54=2|55=IGTI3|56=DROPCOPY|60=20211127-10:08:25.619|75=2021-11-27|128=GATEWAY|150=F|151=0|207=BVMF|581=39|453=1|448=MARTINEZ|447=D|452=36|10=139|
8=FIX.4.4|9=285|35=8|1=981727|6=14.52|11=79|14=3500|17=BPAC1100007|31=14.52|32=3500|34=10121|37=79|38=24500|39=1|40=2|44=14.52|49=SYSTEM|52=20211127-11:40:21.231|54=1|55=BPAC11|56=DROPCOPY|60=20211127-11:40:21.231|75=2021-11-27|128=GATEWAY|150=F|151=21000|207=BVMF|581=39|453=1|448=BROWN|447=D|452=36|10=021|
8=FIX.4.4|9=282|35=8|1=918239|6=14.96|11=51|14=19200|17=RAPT400010|31=14.96|32=7600|34=10122|37=51|38=19500|39=1|40=2|44=14.96|49=SYSTEM|52=20211127-16:20:44.723|54=2|55=RAPT4|56=DROPCOPY|60=20211127-16:20:44.723|75=2021-11-27|128=GATEWAY|150=F|151=300|207=BVMF|581=39|453=1|448=SMITH|447=D|452=36|10=236|
8=FIX.4.4|9=282|35=8|1=849651|6=11.7|11=62|14=19500|17=RAPT400011|31=11.7|32=13500|34=10123|37=62|38=19500|39=2|40=2|44=11.7|49=SYSTEM|52=20211127-15:13:36.320|54=1|55=RAPT4|56=DROPCOPY|60=20211127-15:13:36.320|75=2021-11-27|128=GATEWAY|150=F|151=0|207=BVMF|581=39|453=1|448=RODRIGUEZ|447=D|452=36|10=058|
8=FIX.4.4|9=284|35=8|1=164532|6=17.88|11=80|14=2300|17=RAPT400012|31=17.88|32=2300|34=10124|37=80|38=3500|39=1|40=2|44=17.88|49=SYSTEM|52=20211127-13:04:12.874|54=2|55=RAPT4|56=DROPCOPY|60=20211127-13:04:12.874|75=2021-11-27|128=GATEWAY|150=F|151=1200|207=BVMF|581=39|453=1|448=WILLIAMS|447=D|452=36|10=144|
8=FIX.4.4|9=283|35=8|1=498213|6=16.66|11=35|14=5100|17=RAPT400013|31=16.66|32=2300|34=10125|37=35|38=10500|39=1|40=2|44=16.66|49=SYSTEM|52=20211127-14:53:52.291|54=1|55=RAPT4|56=DROPCOPY|60=20211127-14:53:52.291|75=2021-11-27|128=GATEWAY|150=F|151=5400|207=BVMF|581=39|453=1|448=MILLER|447=D|452=36|10=035|
8=FIX.4.4|9=286|35=8|1=918239|6=15.36|11=41|14=15800|17=IGTI300022|31=15.36|32=4600|34=10126|37=41|38=18500|39=1|40=2|44=15.36|49=SYSTEM|52=20211127-12:26:05.750|54=1|55=IGTI3|56=DROPCOPY|60=20211127-12:26:05.750|75=2021-11-27|128=GATEWAY|150=F|151=2700|207=BVMF|581=39|453=1|448=WILLIAMS|447=D|452=36|10=222|
8=FIX.4.4|9=284|35=8|1=849651|6=16.29|11=81|14=17500|17=PETR400010|31=16.29|32=17500|34=10127|37=81|38=17500|39=2|40=2|44=16.29|49=SYSTEM|52=20211127-14:35:13.908|54=1|55=PETR4|56=DROPCOPY|60=20211127-14:35:13.908|75=2021-11-27|128=GATEWAY|150=F|151=0|207=BVMF|581=39|453=1|448=MARTINEZ|447=D|452=36|10=183|
8=FIX.4.4|9=286|35=8|1=981727|6=14.52|11=79|14=11100|17=BPAC1100008|31=14.52|32=7600|34=10128|37=79|38=24500|39=1|40=2|44=14.52|49=SYSTEM|52=20211127-12:47:36.163|54=1|55=BPAC11|56=DROPCOPY|60=20211127-12:47:36.163|75=2021-11-27|128=GATEWAY|150=F|151=13400|207=BVMF|581=39|453=1|448=BROWN|447=D|452=36|10=119|
8=FIX.4.4|9=282|35=8|1=987453|6=10.31|11=82|14=16500|17=GOAU400024|31=10.31|32=16500|34=10129|37=82|38=16500|39=2|40=2|44=10.31|49=SYSTEM|52=20211127-12:26:46.993|54=1|55=GOAU4|56=DROPCOPY|60=20211127-12:26:46.993|75=2021-11-27|128=GATEWAY|150=F|151=0|207=BVMF|581=39|453=1|448=MILLER|447=D|452=36|10=228|
8=FIX.4.4|9=287|35=8|1=164532|6=13.11|11=83|14=15900|17=VALE300011|31=13.11|32=15900|34=10130|37=83|38=22500|39=1|40=2|44=13.11|49=SYSTEM|52=20211127-11:22:47.776|54=2|55=VALE3|56=DROPCOPY|60=20211127-11:22:47.776|75=2021-11-27|128=GATEWAY|150=F|151=6600|207=BVMF|581=39|453=1|448=WILLIAMS|447=D|452=36|10=251|
8=FIX.4.4|9=281|35=8|1=918239|6=14.96|11=51|14=19400|17=RAPT400014|31=14.96|32=200|34=10131|37=51|38=19500|39=1|40=2|44=14.96|49=SYSTEM|52=20211127-16:31:21.004|54=2|55=RAPT4|56=DROPCOPY|60=20211127-16:31:21.004|75=2021-11-27|128=GATEWAY|150=F|151=100|207=BVMF|581=39|453=1|448=SMITH|447=D|452=36|10=158|
8=FIX.4.4|9=280|35=8|1=987453|6=19.83|11=84|14=3500|17=IGTI300023|31=19.83|32=3500|34=10132|37=84|38=3500|39=2|40=2|44=19.83|49=SYSTEM|52=20211127-15:28:37.948|54=2|55=IGTI3|56=DROPCOPY|60=20211127-15:28:37.948|75=2021-11-27|128=GATEWAY|150=F|151=0|207=BVMF|581=39|453=1|448=JOHNSON|447=D|452=36|10=216|
8=FIX.4.4|9=286|35=8|1=981727|6=14.52|11=79|14=22600|17=BPAC1100009|31=14.52|32=11500|34=10133|37=79|38=24500|39=1|40=2|44=14.52|49=SYSTEM|52=20211127-14:03:56.127|54=1|55=BPAC11|56=DROPCOPY|60=20211127-14:03:56.127|75=2021-11-27|128=GATEWAY|150=F|151=1900|207=BVMF|581=39|453=1|448=BROWN|447=D|452=36|10=111|
8=FIX.4.4|9=282|35=8|1=164532|6=14.23|11=85|14=22500|17=SLCE300010|31=14.23|32=22500|34=10134|37=85|38=22500|39=2|40=2|44=14.23|49=SYSTEM|52=20211127-14:40:50.367|54=1|55=SLCE3|56=DROPCOPY|60=20211127-14:40:50.367|75=2021-11-27|128=GATEWAY|150=F|151=0|207=BVMF|581=39|453=1|448=GARCIA|447=D|452=36|10=150|
8=FIX.4.4|9=282|35=8|1=849651|6=17.08|11=86|14=5500|17=IGTI300024|31=17.08|32=5500|34=10135|37=86|38=5500|39=2|40=2|44=17.08|49=SYSTEM|52=20211127-10:08:12.227|54=2|55=IGTI3|56=DROPCOPY|60=20211127-10:08:12.227|75=2021-11-27|128=GATEWAY|150=F|151=0|207=BVMF|581=39|453=1|448=RODRIGUEZ|447=D|452=36|10=066|
8=FIX.4.4|9=280|35=8|1=981727|6=15.47|11=68|14=14500|17=GOAU400025|31=15.47|32=8400|34=10136|37=68|38=14500|39=2|40=2|44=15.47|49=SYSTEM|52=20211127-17:01:06.716|54=2|55=GOAU4|56=DROPCOPY|60=20211127-17:01:06.716|75=2021-11-27|128=GATEWAY|150=F|151=0|207=BVMF|581=39|453=1|448=SMITH|447=D|452=36|10=126|
8=FIX.4.4|9=283|35=8|1=918239|6=14.07|11=87|14=24500|17=PETR400011|31=14.07|32=24500|34=10137|37=87|38=24500|39=2|40=2|44=14.07|49=SYSTEM|52=20211127-15:29:34.397|54=2|55=PETR4|56=DROPCOPY|60=20211127-15:29:34.397|75=2021-11-27|128=GATEWAY|150=F|151=0|207=BVMF|581=39|453=1|448=JOHNSON|447=D|452=36|10=115|
8=FIX.4.4|9=282|35=8|1=918237|6=13.06|11=88|14=10500|17=BBAS300006|31=13.06|32=10500|34=10138|37=88|38=10500|39=2|40=2|44=13.06|49=SYSTEM|52=20211127-13:49:24.197|54=1|55=BBAS3|56=DROPCOPY|60=20211127-13:49:24.197|75=2021-11-27|128=GATEWAY|150=F|151=0|207=BVMF|581=39|453=1|448=GARCIA|447=D|452=36|10=155|
8=FIX.4.4|9=282|35=8|1=981727|6=14.52|11=79|14=24500|17=BPAC1100010|31=14.52|32=1900|34=10139|37=79|38=24500|39=2|40=2|44=14.52|49=SYSTEM|52=20211127-16:16:13.550|54=1|55=BPAC11|56=DROPCOPY|60=20211127-16:16:13.550|75=2021-11-27|128=GATEWAY|150=F|151=0|207=BVMF|581=39|453=1|448=BROWN|447=D|452=36|10=162|
8=FIX.4.4|9=285|35=8|1=918239|6=15.36|11=41|14=18100|17=IGTI300025|31=15.36|32=2300|34=10140|37=41|38=18500|39=1|40=2|44=15.36|49=SYSTEM|52=20211127-13:17:39.616|54=1|55=IGTI3|56=DROPCOPY|60=20211127-13:17:39.616|75=2021-11-27|128=GATEWAY|150=F|151=400|207=BVMF|581=39|453=1|448=WILLIAMS|447=D|452=36|10=176|
8=FIX.4.4|9=277|35=8|1=071264|6=16.14|11=76|14=4500|17=BBAS300007|31=16.14|32=200|34=10141|37=76|38=4500|39=2|40=2|44=16.14|49=SYSTEM|52=20211127-17:54:36.669|54=1|55=BBAS3|56=DROPCOPY|60=20211127-17:54:36.669|75=2021-11-27|128=GATEWAY|150=F|151=0|207=BVMF|581=39|453=1|448=BROWN|447=D|452=36|10=193|
8=FIX.4.4|9=286|35=8|1=164532|6=13.11|11=83|14=18200|17=VALE300012|31=13.11|32=2300|34=10142|37=83|38=22500|39=1|40=2|44=13.11|49=SYSTEM|52=20211127-14:06:55.747|54=2|55=VALE3|56=DROPCOPY|60=20211127-14:06:55.747|75=2021-11-27|128=GATEWAY|150=F|151=4300|207=BVMF|581=39|453=1|448=WILLIAMS|447=D|452=36|10=191|
8=FIX.4.4|9=283|35=8|1=498213|6=16.66|11=35|14=10000|17=RAPT400015|31=16.66|32=4900|34=10143|37=35|38=10500|39=1|40=2|44=16.66|49=SYSTEM|52=20211127-16:09:37.707|54=1|55=RAPT4|56=DROPCOPY|60=20211127-16:09:37.707|75=2021-11-27|128=GATEWAY|150=F|151=500|207=BVMF|581=39|453=1|448=MILLER|447=D|452=36|10=052|
8=FIX.4.4|9=273|35=8|1=071264|6=11|11=89|14=6100|17=BBAS300008|31=11|32=6100|34=10144|37=89|38=8500|39=1|40=2|44=11|49=SYSTEM|52=20211127-10:08:07.834|54=2|55=BBAS3|56=DROPCOPY|60=20211127-10:08:07.834|75=2021-11-27|128=GATEWAY|150=F|151=2400|207=BVMF|581=39|453=1|448=GARCIA|447=D|452=36|10=205|
8=FIX.4.4|9=287|35=8|1=918239|6=18.26|11=53|14=19200|17=PETR400012|31=18.26|32=14700|34=10145|37=53|38=24500|39=1|40=2|44=18.26|49=SYSTEM|52=20211127-17:44:03.510|54=2|55=PETR4|56=DROPCOPY|60=20211127-17:44:03.510|75=2021-11-27|128=GATEWAY|150=F|151=5300|207=BVMF|581=39|453=1|448=MARTINEZ|447=D|452=36|10=056|
8=FIX.4.4|9=282|35=8|1=164532|6=16.89|11=69|14=15500|17=GOAU400026|31=16.89|32=1900|34=10146|37=69|38=15500|39=2|40=2|44=16.89|49=SYSTEM|52=20211127-15:04:55.744|54=1|55=GOAU4|56=DROPCOPY|60=20211127-15:04:55.744|75=2021-11-27|128=GATEWAY|150=F|151=0|207=BVMF|581=39|453=1|448=JOHNSON|447=D|452=36|10=049|
8=FIX.4.4|9=279|35=8|1=918239|6=14.96|11=51|14=19500|17=RAPT400016|31=14.96|32=100|34=10147|37=51|38=19500|39=2|40=2|44=14.96|49=SYSTEM|52=20211127-16:54:44.372|54=2|55=RAPT4|56=DROPCOPY|60=20211127-16:54:44.372|75=2021-11-27|128=GATEWAY|150=F|151=0|207=BVMF|581=39|453=1|448=SMITH|447=D|452=36|10=114|
8=FIX.4.4|9=278|35=8|1=918237|6=15.85|11=90|14=6500|17=ITUB400008|31=15.85|32=6500|34=10148|37=90|38=6500|39=2|40=2|44=15.85|49=SYSTEM|52=20211127-17:48:06.728|54=1|55=ITUB4|56=DROPCOPY|60=20211127-17:48:06.728|75=2021-11-27|128=GATEWAY|150=F|151=0|207=BVMF|581=39|453=1|448=JONES|447=D|452=36|10=071|
8=FIX.4.4|9=283|35=8|1=918237|6=12.85|11=75|14=22500|17=BPAC1100011|31=12.85|32=14300|34=10149|37=75|38=22500|39=2|40=2|44=12.85|49=SYSTEM|52=20211127-16:31:40.178|54=1|55=BPAC11|56=DROPCOPY|60=20211127-16:31:40.178|75=2021-11-27|128=GATEWAY|150=F|151=0|207=BVMF|581=39|453=1|448=JONES|447=D|452=36|10=204|
8=FIX.4.4|9=285|35=8|1=071264|6=18.92|11=91|14=10100|17=ITUB400009|31=18.92|32=10100|34=10150|37=91|38=24500|39=1|40=2|44=18.92|49=SYSTEM|52=20211127-14:40:13.777|54=2|55=ITUB4|56=DROPCOPY|60=20211127-14:40:13.777|75=2021-11-27|128=GATEWAY|150=F|151=14400|207=BVMF|581=39|453=1|448=JONES|447=D|452=36|10=111|
8=FIX.4.4|9=282|35=8|1=981727|6=12.65|11=92|14=16500|17=SLCE300011|31=12.65|32=16500|34=10151|37=92|38=16500|39=2|40=2|44=12.65|49=SYSTEM|52=20211127-12:24:03.689|54=1|55=SLCE3|56=DROPCOPY|60=20211127-12:24:03.689|75=2021-11-27|128=GATEWAY|150=F|151=0|207=BVMF|581=39|453=1|448=GARCIA|447=D|452=36|10=190|
8=FIX.4.4|9=281|35=8|1=918237|6=19.48|11=93|14=14500|17=GOAU400027|31=19.48|32=14500|34=10152|37=93|38=14500|39=2|40=2|44=19.48|49=SYSTEM|52=20211127-15:53:46.860|54=1|55=GOAU4|56=DROPCOPY|60=20211127-15:53:46.860|75=2021-11-27|128=GATEWAY|150=F|151=0|207=BVMF|581=39|453=1|448=BROWN|447=D|452=36|10=200|
8=FIX.4.4|9=282|35=8|1=498213|6=16.66|11=35|14=10400|17=RAPT400017|31=16.66|32=400|34=10153|37=35|38=10500|39=1|40=2|44=16.66|49=SYSTEM|52=20211127-16:41:09.806|54=1|55=RAPT4|56=DROPCOPY|60=20211127-16:41:09.806|75=2021-11-27|128=GATEWAY|150=F|151=100|207=BVMF|581=39|453=1|448=MILLER|447=D|452=36|10=243|
8=FIX.4.4|9=282|35=8|1=164532|6=17.88|11=80|14=3000|17=RAPT400018|31=17.88|32=700|34=10154|37=80|38=3500|39=1|40=2|44=17.88|49=SYSTEM|52=20211127-15:34:19.355|54=2|55=RAPT4|56=DROPCOPY|60=20211127-15:34:19.355|75=2021-11-27|128=GATEWAY|150=F|151=500|207=BVMF|581=39|453=1|448=WILLIAMS|447=D|452=36|10=069|
8=FIX.4.4|9=280|35=8|1=164532|6=17.88|11=80|14=3500|17=RAPT400019|31=17.88|32=500|34=10155|37=80|38=3500|39=2|40=2|44=17.88|49=SYSTEM|52=20211127-16:20:19.688|54=2|55=RAPT4|56=DROPCOPY|60=20211127-16:20:19.688|75=2021-11-27|128=GATEWAY|150=F|151=0|207=BVMF|581=39|453=1|448=WILLIAMS|447=D|452=36|10=238|
8=FIX.4.4|9=281|35=8|1=071264|6=15.16|11=94|14=19500|17=POMO400022|31=15.16|32=19500|34=10156|37=94|38=19500|39=2|40=2|44=15.16|49=SYSTEM|52=20211127-12:17:02.401|54=1|55=POMO4|56=DROPCOPY|60=20211127-12:17:02.401|75=2021-11-27|128=GATEWAY|150=F|151=0|207=BVMF|581=39|453=1|448=JONES|447=D|452=36|10=160|
8=FIX.4.4|9=281|35=8|1=071264|6=18.92|11=91|14=24500|17=ITUB400010|31=18.92|32=14400|34=10157|37=91|38=24500|39=2|40=2|44=18.92|49=SYSTEM|52=20211127-16:32:05.212|54=2|55=ITUB4|56=DROPCOPY|60=20211127-16:32:05.212|75=2021-11-27|128=GATEWAY|150=F|151=0|207=BVMF|581=39|453=1|448=JONES|447=D|452=36|10=154|
8=FIX.4.4|9=284|35=8|1=918239|6=15.36|11=41|14=18400|17=IGTI300026|31=15.36|32=300|34=10158|37=41|38=18500|39=1|40=2|44=15.36|49=SYSTEM|52=20211127-13:20:09.012|54=1|55=IGTI3|56=DROPCOPY|60=20211127-13:20:09.012|75=2021-11-27|128=GATEWAY|150=F|151=100|207=BVMF|581=39|453=1|448=WILLIAMS|447=D|452=36|10=097|
8=FIX.4.4|9=278|35=8|1=498213|6=19.61|11=95|14=3500|17=VALE300013|31=19.61|32=3500|34=10159|37=95|38=3500|39=2|40=2|44=19.61|49=SYSTEM|52=20211127-15:46:08.869|54=1|55=VALE3|56=DROPCOPY|60=20211127-15:46:08.869|75=2021-11-27|128=GATEWAY|150=F|151=0|207=BVMF|581=39|453=1|448=BROWN|447=D|452=36|10=052|
8=FIX.4.4|9=281|35=8|1=987453|6=15.71|11=96|14=12500|17=GOAU400028|31=15.71|32=12500|34=10160|37=96|38=12500|39=2|40=2|44=15.71|49=SYSTEM|52=20211127-15:56:57.183|54=2|55=GOAU4|56=DROPCOPY|60=20211127-15:56:57.183|75=2021-11-27|128=GATEWAY|150=F|151=0|207=BVMF|581=39|453=1|448=SMITH|447=D|452=36|10=186|
8=FIX.4.4|9=283|35=8|1=849651|6=13.88|11=97|14=20300|17=VALE300014|31=13.88|32=20300|34=10161|37=97|38=20500|39=1|40=2|44=13.88|49=SYSTEM|52=20211127-17:41:48.732|54=2|55=VALE3|56=DROPCOPY|60=20211127-17:41:48.732|75=2021-11-27|128=GATEWAY|150=F|151=200|207=BVMF|581=39|453=1|448=SMITH|447=D|452=36|10=017|
8=FIX.4.4|9=283|35=8|1=987453|6=13.27|11=98|14=3300|17=IGTI300027|31=13.27|32=3300|34=10162|37=98|38=9500|39=1|40=2|44=13.27|49=SYSTEM|52=20211127-17:47:54.388|54=2|55=IGTI3|56=DROPCOPY|60=20211127-17:47:54.388|75=2021-11-27|128=GATEWAY|150=F|151=6200|207=BVMF|581=39|453=1|448=JOHNSON|447=D|452=36|10=109|
8=FIX.4.4|9=281|35=8|1=981727|6=14.61|11=99|14=17500|17=POMO400023|31=14.61|32=17500|34=10163|37=99|38=17500|39=2|40=2|44=14.61|49=SYSTEM|52=20211127-15:33:16.374|54=2|55=POMO4|56=DROPCOPY|60=20211127-15:33:16.374|75=2021-11-27|128=GATEWAY|150=F|151=0|207=BVMF|581=39|453=1|448=BROWN|447=D|452=36|10=214|
8=FIX.4.4|9=286|35=8|1=071264|6=18.26|11=100|14=9100|17=VALE300015|31=18.26|32=9100|34=10164|37=100|38=21500|39=1|40=2|44=18.26|49=SYSTEM|52=20211127-13:30:23.276|54=1|55=VALE3|56=DROPCOPY|60=20211127-13:30:23.276|75=2021-11-27|128=GATEWAY|150=F|151=12400|207=BVMF|581=39|453=1|448=MILLER|447=D|452=36|10=127|
8=FIX.4.4|9=289|35=8|1=879865|6=19.59|11=101|14=11900|17=BPAC1100012|31=19.59|32=11900|34=10165|37=101|38=15500|39=1|40=2|44=19.59|49=SYSTEM|52=20211127-14:43:07.107|54=2|55=BPAC11|56=DROPCOPY|60=20211127-14:43:07.107|75=2021-11-27|128=GATEWAY|150=F|151=3600|207=BVMF|581=39|453=1|448=MILLER|447=D|452=36|10=032|
8=FIX.4.4|9=282|35=8|1=918239|6=15.36|11=41|14=18500|17=IGTI300028|31=15.36|32=100|34=10166|37=41|38=18500|39=2|40=2|44=15.36|49=SYSTEM|52=20211127-14:58:40.887|54=1|55=IGTI3|56=DROPCOPY|60=20211127-14:58:40.887|75=2021-11-27|128=GATEWAY|150=F|151=0|207=BVMF|581=39|453=1|448=WILLIAMS|447=D|452=36|10=053|
8=FIX.4.4|9=283|35=8|1=987453|6=14.36|11=102|14=6500|17=GOAU400029|31=14.36|32=6500|34=10167|37=102|38=6500|39=2|40=2|44=14.36|49=SYSTEM|52=20211127-10:52:51.697|54=1|55=GOAU4|56=DROPCOPY|60=20211127-10:52:51.697|75=2021-11-27|128=GATEWAY|150=F|151=0|207=BVMF|581=39|453=1|448=MARTINEZ|447=D|452=36|10=095|
8=FIX.4.4|9=287|35=8|1=918237|6=12.12|11=103|14=5600|17=POMO400024|31=12.12|32=5600|34=10168|37=103|38=24500|39=1|40=2|44=12.12|49=SYSTEM|52=20211127-15:52:15.604|54=1|55=POMO4|56=DROPCOPY|60=20211127-15:52:15.604|75=2021-11-27|128=GATEWAY|150=F|151=18900|207=BVMF|581=39|453=1|448=JOHNSON|447=D|452=36|10=009|
8=FIX.4.4|9=280|35=8|1=498213|6=16.66|11=35|14=10500|17=RAPT400020|31=16.66|32=100|34=10169|37=35|38=10500|39=2|40=2|44=16.66|49=SYSTEM|52=20211127-16:46:32.348|54=1|55=RAPT4|56=DROPCOPY|60=20211127-16:46:32.348|75=2021-11-27|128=GATEWAY|150=F|151=0|207=BVMF|581=39|453=1|448=MILLER|447=D|452=36|10=148|
8=FIX.4.4|9=283|35=8|1=981727|6=13.79|11=104|14=3500|17=VALE300016|31=13.79|32=3500|34=10170|37=104|38=3500|39=2|40=2|44=13.79|49=SYSTEM|52=20211127-16:46:45.507|54=2|55=VALE3|56=DROPCOPY|60=20211127-16:46:45.507|75=2021-11-27|128=GATEWAY|150=F|151=0|207=BVMF|581=39|453=1|448=WILLIAMS|447=D|452=36|10=083|
8=FIX.4.4|9=283|35=8|1=164532|6=13.11|11=83|14=22500|17=VALE300017|31=13.11|32=4300|34=10171|37=83|38=22500|39=2|40=2|44=13.11|49=SYSTEM|52=20211127-16:19:53.490|54=2|55=VALE3|56=DROPCOPY|60=20211127-16:19:53.490|75=2021-11-27|128=GATEWAY|150=F|151=0|207=BVMF|581=39|453=1|448=WILLIAMS|447=D|452=36|10=043|
8=FIX.4.4|9=287|35=8|1=918237|6=12.12|11=103|14=8500|17=POMO400025|31=12.12|32=2900|34=10172|37=103|38=24500|39=1|40=2|44=12.12|49=SYSTEM|52=20211127-16:09:08.703|54=1|55=POMO4|56=DROPCOPY|60=20211127-16:09:08.703|75=2021-11-27|128=GATEWAY|150=F|151=16000|207=BVMF|581=39|453=1|448=JOHNSON|447=D|452=36|10=006|
8=FIX.4.4|9=285|35=8|1=981727|6=14.22|11=105|14=1000|17=RAPT400021|31=14.22|32=1000|34=10173|37=105|38=22500|39=1|40=2|44=14.22|49=SYSTEM|52=20211127-10:36:57.835|54=2|55=RAPT4|56=DROPCOPY|60=20211127-10:36:57.835|75=2021-11-27|128=GATEWAY|150=F|151=21500|207=BVMF|581=39|453=1|448=BROWN|447=D|452=36|10=101|
8=FIX.4.4|9=285|35=8|1=498213|6=13.76|11=106|14=21500|17=GOAU400030|31=13.76|32=21500|34=10174|37=106|38=21500|39=2|40=2|44=13.76|49=SYSTEM|52=20211127-17:31:24.966|54=1|55=GOAU4|56=DROPCOPY|60=20211127-17:31:24.966|75=2021-11-27|128=GATEWAY|150=F|151=0|207=BVMF|581=39|453=1|448=JOHNSON|447=D|452=36|10=161|
8=FIX.4.4|9=283|35=8|1=918237|6=10.3|11=107|14=200|17=GOAU400031|31=10.3|32=200|34=10175|37=107|38=12500|39=1|40=2|44=10.3|49=SYSTEM|52=20211127-12:33:41.544|54=1|55=GOAU4|56=DROPCOPY|60=20211127-12:33:41.544|75=2021-11-27|128=GATEWAY|150=F|151=12300|207=BVMF|581=39|453=1|448=WILLIAMS|447=D|452=36|10=019|
8=FIX.4.4|9=287|35=8|1=164532|6=19.02|11=108|14=3100|17=RAPT400022|31=19.02|32=3100|34=10176|37=108|38=17500|39=1|40=2|44=19.02|49=SYSTEM|52=20211127-13:36:37.714|54=1|55=RAPT4|56=DROPCOPY|60=20211127-13:36:37.714|75=2021-11-27|128=GATEWAY|150=F|151=14400|207=BVMF|581=39|453=1|448=JOHNSON|447=D|452=36|10=008|
8=FIX.4.4|9=272|35=8|1=071264|6=11|11=89|14=6800|17=BBAS300009|31=11|32=700|34=10177|37=89|38=8500|39=1|40=2|44=11|49=SYSTEM|52=20211127-15:36:33.688|54=2|55=BBAS3|56=DROPCOPY|60=20211127-15:36:33.688|75=2021-11-27|128=GATEWAY|150=F|151=1700|207=BVMF|581=39|453=1|448=GARCIA|447=D|452=36|10=196|
8=FIX.4.4|9=280|35=8|1=981727|6=19.91|11=109|14=3500|17=VALE300018|31=19.91|32=3500|34=10178|37=109|38=3500|39=2|40=2|44=19.91|49=SYSTEM|52=20211127-16:02:40.595|54=2|55=VALE3|56=DROPCOPY|60=20211127-16:02:40.595|75=2021-11-27|128=GATEWAY|150=F|151=0|207=BVMF|581=39|453=1|448=SMITH|447=D|452=36|10=123|
8=FIX.4.4|9=283|35=8|1=987453|6=13.27|11=98|14=5800|17=IGTI300029|31=13.27|32=2500|34=10179|37=98|38=9500|39=1|40=2|44=13.27|49=SYSTEM|52=20211127-17:56:30.217|54=2|55=IGTI3|56=DROPCOPY|60=20211127-17:56:30.217|75=2021-11-27|128=GATEWAY|150=F|151=3700|207=BVMF|581=39|453=1|448=JOHNSON|447=D|452=36|10=099|
8=FIX.4.4|9=288|35=8|1=879865|6=19.59|11=101|14=14200|17=BPAC1100013|31=19.59|32=2300|34=10180|37=101|38=15500|39=1|40=2|44=19.59|49=SYSTEM|52=20211127-16:27:43.511|54=2|55=BPAC11|56=DROPCOPY|60=20211127-16:27:43.511|75=2021-11-27|128=GATEWAY|150=F|151=1300|207=BVMF|581=39|453=1|448=MILLER|447=D|452=36|10=228|
8=FIX.4.4|9=288|35=8|1=918237|6=12.12|11=103|14=18700|17=POMO400026|31=12.12|32=10200|34=10181|37=103|38=24500|39=1|40=2|44=12.12|49=SYSTEM|52=20211127-17:03:59.526|54=1|55=POMO4|56=DROPCOPY|60=20211127-17:03:59.526|75=2021-11-27|128=GATEWAY|150=F|151=5800|207=BVMF|581=39|453=1|448=JOHNSON|447=D|452=36|10=065|
8=FIX.4.4|9=287|35=8|1=879865|6=19.59|11=101|14=14300|17=BPAC1100014|31=19.59|32=100|34=10182|37=101|38=15500|39=1|40=2|44=19.59|49=SYSTEM|52=20211127-17:18:47.098|54=2|55=BPAC11|56=DROPCOPY|60=20211127-17:18:47.098|75=2021-11-27|128=GATEWAY|150=F|151=1200|207=BVMF|581=39|453=1|448=MILLER|447=D|452=36|10=208|
8=FIX.4.4|9=290|35=8|1=071264|6=10.66|11=110|14=11800|17=IGTI300030|31=10.66|32=11800|34=10183|37=110|38=13500|39=1|40=2|44=10.66|49=SYSTEM|52=20211127-13:34:43.371|54=1|55=IGTI3|56=DROPCOPY|60=20211127-13:34:43.371|75=2021-11-27|128=GATEWAY|150=F|151=1700|207=BVMF|581=39|453=1|448=RODRIGUEZ|447=D|452=36|10=164|
8=FIX.4.4|9=286|35=8|1=071264|6=10.66|11=110|14=13500|17=IGTI300031|31=10.66|32=1700|34=10184|37=110|38=13500|39=2|40=2|44=10.66|49=SYSTEM|52=20211127-14:52:29.998|54=1|55=IGTI3|56=DROPCOPY|60=20211127-14:52:29.998|75=2021-11-27|128=GATEWAY|150=F|151=0|207=BVMF|581=39|453=1|448=RODRIGUEZ|447=D|452=36|10=009|
8=FIX.4.4|9=272|35=8|1=071264|6=11|11=89|14=8300|17=BBAS300010|31=11|32=1500|34=10185|37=89|38=8500|39=1|40=2|44=11|49=SYSTEM|52=20211127-17:00:34.641|54=2|55=BBAS3|56=DROPCOPY|60=20211127-17:00:34.641|75=2021-11-27|128=GATEWAY|150=F|151=200|207=BVMF|581=39|453=1|448=GARCIA|447=D|452=36|10=143|
8=FIX.4.4|9=286|35=8|1=918237|6=12.7|11=111|14=10400|17=RAPT400023|31=12.7|32=10400|34=10186|37=111|38=16500|39=1|40=2|44=12.7|49=SYSTEM|52=20211127-16:40:12.849|54=2|55=RAPT4|56=DROPCOPY|60=20211127-16:40:12.849|75=2021-11-27|128=GATEWAY|150=F|151=6100|207=BVMF|581=39|453=1|448=MARTINEZ|447=D|452=36|10=235|
8=FIX.4.4|9=286|35=8|1=918239|6=18.26|11=53|14=22300|17=PETR400013|31=18.26|32=3100|34=10187|37=53|38=24500|39=1|40=2|44=18.26|49=SYSTEM|52=20211127-17:54:16.143|54=2|55=PETR4|56=DROPCOPY|60=20211127-17:54:16.143|75=2021-11-27|128=GATEWAY|150=F|151=2200|207=BVMF|581=39|453=1|448=MARTINEZ|447=D|452=36|10=011|
8=FIX.4.4|9=281|35=8|1=918239|6=13.17|11=112|14=3500|17=BBAS300011|31=13.17|32=3500|34=10188|37=112|38=3500|39=2|40=2|44=13.17|49=SYSTEM|52=20211127-12:46:53.309|54=2|55=BBAS3|56=DROPCOPY|60=20211127-12:46:53.309|75=2021-11-27|128=GATEWAY|150=F|151=0|207=BVMF|581=39|453=1|448=MILLER|447=D|452=36|10=114|
8=FIX.4.4|9=282|35=8|1=918237|6=12.7|11=111|14=16500|17=RAPT400024|31=12.7|32=6100|34=10189|37=111|38=16500|39=2|40=2|44=12.7|49=SYSTEM|52=20211127-17:08:25.490|54=2|55=RAPT4|56=DROPCOPY|60=20211127-17:08:25.490|75=2021-11-27|128=GATEWAY|150=F|151=0|207=BVMF|581=39|453=1|448=MARTINEZ|447=D|452=36|10=048|
8=FIX.4.4|9=283|35=8|1=918239|6=18.26|11=53|14=24500|17=PETR400014|31=18.26|32=2200|34=10190|37=53|38=24500|39=2|40=2|44=18.26|49=SYSTEM|52=20211127-17:55:58.327|54=2|55=PETR4|56=DROPCOPY|60=20211127-17:55:58.327|75=2021-11-27|128=GATEWAY|150=F|151=0|207=BVMF|581=39|453=1|448=MARTINEZ|447=D|452=36|10=138|
8=FIX.4.4|9=286|35=8|1=071264|6=15.72|11=113|14=11500|17=VALE300019|31=15.72|32=11500|34=10191|37=113|38=11500|39=2|40=2|44=15.72|49=SYSTEM|52=20211127-11:19:37.555|54=2|55=VALE3|56=DROPCOPY|60=20211127-11:19:37.555|75=2021-11-27|128=GATEWAY|150=F|151=0|207=BVMF|581=39|453=1|448=MARTINEZ|447=D|452=36|10=210|
8=FIX.4.4|9=286|35=8|1=987453|6=14.91|11=114|14=13500|17=GOAU400032|31=14.91|32=13500|34=10192|37=114|38=13500|39=2|40=2|44=14.91|49=SYSTEM|52=20211127-11:57:43.142|54=2|55=GOAU4|56=DROPCOPY|60=20211127-11:57:43.142|75=2021-11-27|128=GATEWAY|150=F|151=0|207=BVMF|581=39|453=1|448=WILLIAMS|447=D|452=36|10=214|
8=FIX.4.4|9=285|35=8|1=164532|6=19.02|11=108|14=17500|17=RAPT400025|31=19.02|32=14400|34=10193|37=108|38=17500|39=2|40=2|44=19.02|49=SYSTEM|52=20211127-13:52:19.031|54=1|55=RAPT4|56=DROPCOPY|60=20211127-13:52:19.031|75=2021-11-27|128=GATEWAY|150=F|151=0|207=BVMF|581=39|453=1|448=JOHNSON|447=D|452=36|10=154|
8=FIX.4.4|9=291|35=8|1=164532|6=15.17|11=115|14=11000|17=BPAC1100015|31=15.17|32=11000|34=10194|37=115|38=12500|39=1|40=2|44=15.17|49=SYSTEM|52=20211127-10:58:41.821|54=1|55=BPAC11|56=DROPCOPY|60=20211127-10:58:41.821|75=2021-11-27|128=GATEWAY|150=F|151=1500|207=BVMF|581=39|453=1|448=WILLIAMS|447=D|452=36|10=126|
8=FIX.4.4|9=283|35=8|1=987453|6=13.27|11=98|14=7700|17=IGTI300032|31=13.27|32=1900|34=10195|37=98|38=9500|39=1|40=2|44=13.27|49=SYSTEM|52=20211127-17:57:32.278|54=2|55=IGTI3|56=DROPCOPY|60=20211127-17:57:32.278|75=2021-11-27|128=GATEWAY|150=F|151=1800|207=BVMF|581=39|453=1|448=JOHNSON|447=D|452=36|10=114|
8=FIX.4.4|9=269|35=8|1=071264|6=11|11=89|14=8500|17=BBAS300012|31=11|32=200|34=10196|37=89|38=8500|39=2|40=2|44=11|49=SYSTEM|52=20211127-17:14:21.366|54=2|55=BBAS3|56=DROPCOPY|60=20211127-17:14:21.366|75=2021-11-27|128=GATEWAY|150=F|151=0|207=BVMF|581=39|453=1|448=GARCIA|447=D|452=36|10=016|
8=FIX.4.4|9=282|35=8|1=987453|6=13.27|11=98|14=9400|17=IGTI300033|31=13.27|32=1700|34=10197|37=98|38=9500|39=1|40=2|44=13.27|49=SYSTEM|52=20211127-17:59:00.060|54=2|55=IGTI3|56=DROPCOPY|60=20211127-17:59:00.060|75=2021-11-27|128=GATEWAY|150=F|151=100|207=BVMF|581=39|453=1|448=JOHNSON|447=D|452=36|10=029|
8=FIX.4.4|9=283|35=8|1=849651|6=10.34|11=116|14=14500|17=POMO400027|31=10.34|32=14500|34=10198|37=116|38=14500|39=2|40=2|44=10.34|49=SYSTEM|52=20211127-16:19:48.814|54=2|55=POMO4|56=DROPCOPY|60=20211127-16:19:48.814|75=2021-11-27|128=GATEWAY|150=F|151=0|207=BVMF|581=39|453=1|448=BROWN|447=D|452=36|10=044|
8=FIX.4.4|9=286|35=8|1=498213|6=11.93|11=117|14=16700|17=RAPT400026|31=11.93|32=16700|34=10199|37=117|38=20500|39=1|40=2|44=11.93|49=SYSTEM|52=20211127-12:42:53.679|54=1|55=RAPT4|56=DROPCOPY|60=20211127-12:42:53.679|75=2021-11-27|128=GATEWAY|150=F|151=3800|207=BVMF|581=39|453=1|448=SMITH|447=D|452=36|10=202|
8=FIX.4.4|9=283|35=8|1=918237|6=10.3|11=107|14=12500|17=GOAU400033|31=10.3|32=12300|34=10200|37=107|38=12500|39=2|40=2|44=10.3|49=SYSTEM|52=20211127-14:40:33.424|54=1|55=GOAU4|56=DROPCOPY|60=20211127-14:40:33.424|75=2021-11-27|128=GATEWAY|150=F|151=0|207=BVMF|581=39|453=1|448=WILLIAMS|447=D|452=36|10=011|
8=FIX.4.4|9=284|35=8|1=071264|6=13.78|11=118|14=1500|17=BPAC1100016|31=13.78|32=1500|34=10201|37=118|38=1500|39=2|40=2|44=13.78|49=SYSTEM|52=20211127-12:54:34.690|54=1|55=BPAC11|56=DROPCOPY|60=20211127-12:54:34.690|75=2021-11-27|128=GATEWAY|150=F|151=0|207=BVMF|581=39|453=1|448=JOHNSON|447=D|452=36|10=048|
8=FIX.4.4|9=282|35=8|1=498213|6=12.06|11=119|14=3500|17=RAPT400027|31=12.06|32=3500|34=10202|37=119|38=3500|39=2|40=2|44=12.06|49=SYSTEM|52=20211127-11:20:26.209|54=2|55=RAPT4|56=DROPCOPY|60=20211127-11:20:26.209|75=2021-11-27|128=GATEWAY|150=F|151=0|207=BVMF|581=39|453=1|448=JOHNSON|447=D|452=36|10=243|
8=FIX.4.4|9=286|35=8|1=879865|6=19.59|11=101|14=15100|17=BPAC1100017|31=19.59|32=800|34=10203|37=101|38=15500|39=1|40=2|44=19.59|49=SYSTEM|52=20211127-17:46:03.318|54=2|55=BPAC11|56=DROPCOPY|60=20211127-17:46:03.318|75=2021-11-27|128=GATEWAY|150=F|151=400|207=BVMF|581=39|453=1|448=MILLER|447=D|452=36|10=139|
8=FIX.4.4|9=279|35=8|1=849651|6=13.88|11=97|14=20500|17=VALE300020|31=13.88|32=200|34=10204|37=97|38=20500|39=2|40=2|44=13.88|49=SYSTEM|52=20211127-17:53:01.292|54=2|55=VALE3|56=DROPCOPY|60=20211127-17:53:01.292|75=2021-11-27|128=GATEWAY|150=F|151=0|207=BVMF|581=39|453=1|448=SMITH|447=D|452=36|10=065|
8=FIX.4.4|9=298|35=8|1=071264|6=18.25999999999999|11=100|14=13600|17=VALE300021|31=18.26|32=4500|34=10205|37=100|38=21500|39=1|40=2|44=18.26|49=SYSTEM|52=20211127-15:20:40.544|54=1|55=VALE3|56=DROPCOPY|60=20211127-15:20:40.544|75=2021-11-27|128=GATEWAY|150=F|151=7900|207=BVMF|581=39|453=1|448=MILLER|447=D|452=36|10=042|
8=FIX.4.4|9=284|35=8|1=879865|6=19.59|11=101|14=15500|17=BPAC1100018|31=19.59|32=400|34=10206|37=101|38=15500|39=2|40=2|44=19.59|49=SYSTEM|52=20211127-17:48:37.864|54=2|55=BPAC11|56=DROPCOPY|60=20211127-17:48:37.864|75=2021-11-27|128=GATEWAY|150=F|151=0|207=BVMF|581=39|453=1|448=MILLER|447=D|452=36|10=072|
8=FIX.4.4|9=287|35=8|1=164532|6=15.17|11=115|14=12500|17=BPAC1100019|31=15.17|32=1500|34=10207|37=115|38=12500|39=2|40=2|44=15.17|49=SYSTEM|52=20211127-14:54:05.729|54=1|55=BPAC11|56=DROPCOPY|60=20211127-14:54:05.729|75=2021-11-27|128=GATEWAY|150=F|151=0|207=BVMF|581=39|453=1|448=WILLIAMS|447=D|452=36|10=213|
8=FIX.4.4|9=279|35=8|1=987453|6=13.27|11=98|14=9500|17=IGTI300034|31=13.27|32=100|34=10208|37=98|38=9500|39=2|40=2|44=13.27|49=SYSTEM|52=20211127-17:59:43.904|54=2|55=IGTI3|56=DROPCOPY|60=20211127-17:59:43.904|75=2021-11-27|128=GATEWAY|150=F|151=0|207=BVMF|581=39|453=1|448=JOHNSON|447=D|452=36|10=163|
8=FIX.4.4|9=287|35=8|1=918237|6=18.08|11=120|14=2400|17=BPAC1100020|31=18.08|32=2400|34=10209|37=120|38=3500|39=1|40=2|44=18.08|49=SYSTEM|52=20211127-17:13:07.566|54=1|55=BPAC11|56=DROPCOPY|60=20211127-17:13:07.566|75=2021-11-27|128=GATEWAY|150=F|151=1100|207=BVMF|581=39|453=1|448=JOHNSON|447=D|452=36|10=195|
8=FIX.4.4|9=280|35=8|1=918237|6=15.77|11=121|14=3500|17=IGTI300035|31=15.77|32=3500|34=10210|37=121|38=3500|39=2|40=2|44=15.77|49=SYSTEM|52=20211127-10:34:26.300|54=1|55=IGTI3|56=DROPCOPY|60=20211127-10:34:26.300|75=2021-11-27|128=GATEWAY|150=F|151=0|207=BVMF|581=39|453=1|448=SMITH|447=D|452=36|10=076|
8=FIX.4.4|9=285|35=8|1=918239|6=15.94|11=122|14=2400|17=IGTI300036|31=15.94|32=2400|34=10211|37=122|38=9500|39=1|40=2|44=15.94|49=SYSTEM|52=20211127-17:45:09.502|54=1|55=IGTI3|56=DROPCOPY|60=20211127-17:45:09.502|75=2021-11-27|128=GATEWAY|150=F|151=7100|207=BVMF|581=39|453=1|448=JOHNSON|447=D|452=36|10=163|
8=FIX.4.4|9=286|35=8|1=071264|6=18.26|11=100|14=17500|17=VALE300022|31=18.26|32=3900|34=10212|37=100|38=21500|39=1|40=2|44=18.26|49=SYSTEM|52=20211127-16:39:29.336|54=1|55=VALE3|56=DROPCOPY|60=20211127-16:39:29.336|75=2021-11-27|128=GATEWAY|150=F|151=4000|207=BVMF|581=39|453=1|448=MILLER|447=D|452=36|10=151|
8=FIX.4.4|9=284|35=8|1=918239|6=11.72|11=123|14=1000|17=GOAU400034|31=11.72|32=1000|34=10213|37=123|38=1500|39=1|40=2|44=11.72|49=SYSTEM|52=20211127-17:19:13.078|54=1|55=GOAU4|56=DROPCOPY|60=20211127-17:19:13.078|75=2021-11-27|128=GATEWAY|150=F|151=500|207=BVMF|581=39|453=1|448=JOHNSON|447=D|452=36|10=079|
8=FIX.4.4|9=282|35=8|1=498213|6=11.93|11=117|14=20500|17=RAPT400028|31=11.93|32=3800|34=10214|37=117|38=20500|39=2|40=2|44=11.93|49=SYSTEM|52=20211127-12:43:21.347|54=1|55=RAPT4|56=DROPCOPY|60=20211127-12:43:21.347|75=2021-11-27|128=GATEWAY|150=F|151=0|207=BVMF|581=39|453=1|448=SMITH|447=D|452=36|10=208|
8=FIX.4.4|9=286|35=8|1=918237|6=18.08|11=120|14=2500|17=BPAC1100021|31=18.08|32=100|34=10215|37=120|38=3500|39=1|40=2|44=18.08|49=SYSTEM|52=20211127-17:25:04.660|54=1|55=BPAC11|56=DROPCOPY|60=20211127-17:25:04.660|75=2021-11-27|128=GATEWAY|150=F|151=1000|207=BVMF|581=39|453=1|448=JOHNSON|447=D|452=36|10=129|
8=FIX.4.4|9=285|35=8|1=918237|6=18.08|11=120|14=2700|17=BPAC1100022|31=18.08|32=200|34=10216|37=120|38=3500|39=1|40=2|44=18.08|49=SYSTEM|52=20211127-17:25:37.700|54=1|55=BPAC11|56=DROPCOPY|60=20211127-17:25:37.700|75=2021-11-27|128=GATEWAY|150=F|151=800|207=BVMF|581=39|453=1|448=JOHNSON|447=D|452=36|10=094|
8=FIX.4.4|9=285|35=8|1=918239|6=15.94|11=122|14=7000|17=IGTI300037|31=15.94|32=4600|34=10217|37=122|38=9500|39=1|40=2|44=15.94|49=SYSTEM|52=20211127-17:52:49.808|54=1|55=IGTI3|56=DROPCOPY|60=20211127-17:52:49.808|75=2021-11-27|128=GATEWAY|150=F|151=2500|207=BVMF|581=39|453=1|448=JOHNSON|447=D|452=36|10=196|
8=FIX.4.4|9=283|35=8|1=981727|6=14.22|11=105|14=22500|17=RAPT400029|31=14.22|32=21500|34=10218|37=105|38=22500|39=2|40=2|44=14.22|49=SYSTEM|52=20211127-15:34:54.614|54=2|55=RAPT4|56=DROPCOPY|60=20211127-15:34:54.614|75=2021-11-27|128=GATEWAY|150=F|151=0|207=BVMF|581=39|453=1|448=BROWN|447=D|452=36|10=009|
8=FIX.4.4|9=284|35=8|1=918237|6=12.12|11=103|14=24500|17=POMO400028|31=12.12|32=5800|34=10219|37=103|38=24500|39=2|40=2|44=12.12|49=SYSTEM|52=20211127-17:30:30.903|54=1|55=POMO4|56=DROPCOPY|60=20211127-17:30:30.903|75=2021-11-27|128=GATEWAY|150=F|151=0|207=BVMF|581=39|453=1|448=JOHNSON|447=D|452=36|10=098|
8=FIX.4.4|9=283|35=8|1=918237|6=18.08|11=120|14=3500|17=BPAC1100023|31=18.08|32=800|34=10220|37=120|38=3500|39=2|40=2|44=18.08|49=SYSTEM|52=20211127-17:26:12.796|54=1|55=BPAC11|56=DROPCOPY|60=20211127-17:26:12.796|75=2021-11-27|128=GATEWAY|150=F|151=0|207=BVMF|581=39|453=1|448=JOHNSON|447=D|452=36|10=008|
8=FIX.4.4|9=283|35=8|1=918239|6=11.72|11=123|14=1300|17=GOAU400035|31=11.72|32=300|34=10221|37=123|38=1500|39=1|40=2|44=11.72|49=SYSTEM|52=20211127-17:36:10.400|54=1|55=GOAU4|56=DROPCOPY|60=20211127-17:36:10.400|75=2021-11-27|128=GATEWAY|150=F|151=200|207=BVMF|581=39|453=1|448=JOHNSON|447=D|452=36|10=002|
8=FIX.4.4|9=280|35=8|1=918237|6=18.26|11=124|14=9500|17=POMO400029|31=18.26|32=9500|34=10222|37=124|38=9500|39=2|40=2|44=18.26|49=SYSTEM|52=20211127-10:23:11.149|54=2|55=POMO4|56=DROPCOPY|60=20211127-10:23:11.149|75=2021-11-27|128=GATEWAY|150=F|151=0|207=BVMF|581=39|453=1|448=JONES|447=D|452=36|10=128|
8=FIX.4.4|9=280|35=8|1=987453|6=10.2|11=125|14=300|17=SLCE300012|31=10.2|32=300|34=10223|37=125|38=15500|39=1|40=2|44=10.2|49=SYSTEM|52=20211127-15:04:44.822|54=1|55=SLCE3|56=DROPCOPY|60=20211127-15:04:44.822|75=2021-11-27|128=GATEWAY|150=F|151=15200|207=BVMF|581=39|453=1|448=JONES|447=D|452=36|10=042|
8=FIX.4.4|9=283|35=8|1=918239|6=11.72|11=123|14=1400|17=GOAU400036|31=11.72|32=100|34=10224|37=123|38=1500|39=1|40=2|44=11.72|49=SYSTEM|52=20211127-17:50:40.886|54=1|55=GOAU4|56=DROPCOPY|60=20211127-17:50:40.886|75=2021-11-27|128=GATEWAY|150=F|151=100|207=BVMF|581=39|453=1|448=JOHNSON|447=D|452=36|10=038|
8=FIX.4.4|9=281|35=8|1=918239|6=11.72|11=123|14=1500|17=GOAU400037|31=11.72|32=100|34=10225|37=123|38=1500|39=2|40=2|44=11.72|49=SYSTEM|52=20211127-17:57:31.219|54=1|55=GOAU4|56=DROPCOPY|60=20211127-17:57:31.219|75=2021-11-27|128=GATEWAY|150=F|151=0|207=BVMF|581=39|453=1|448=JOHNSON|447=D|452=36|10=193|
8=FIX.4.4|9=280|35=8|1=987453|6=10.2|11=125|14=15500|17=SLCE300013|31=10.2|32=15200|34=10226|37=125|38=15500|39=2|40=2|44=10.2|49=SYSTEM|52=20211127-16:30:56.849|54=1|55=SLCE3|56=DROPCOPY|60=20211127-16:30:56.849|75=2021-11-27|128=GATEWAY|150=F|151=0|207=BVMF|581=39|453=1|448=JONES|447=D|452=36|10=076|
8=FIX.4.4|9=283|35=8|1=071264|6=18.26|11=100|14=21500|17=VALE300023|31=18.26|32=4000|34=10227|37=100|38=21500|39=2|40=2|44=18.26|49=SYSTEM|52=20211127-17:03:54.159|54=1|55=VALE3|56=DROPCOPY|60=20211127-17:03:54.159|75=2021-11-27|128=GATEWAY|150=F|151=0|207=BVMF|581=39|453=1|448=MILLER|447=D|452=36|10=237|
8=FIX.4.4|9=282|35=8|1=918239|6=15.94|11=122|14=9500|17=IGTI300038|31=15.94|32=2500|34=10228|37=122|38=9500|39=2|40=2|44=15.94|49=SYSTEM|52=20211127-17:54:27.244|54=1|55=IGTI3|56=DROPCOPY|60=20211127-17:54:27.244|75=2021-11-27|128=GATEWAY|150=F|151=0|207=BVMF|581=39|453=1|448=JOHNSON|447=D|452=36|10=034|
8=FIX.4.4|9=282|35=8|1=918237|6=17.97|11=126|14=7500|17=BPAC1100024|31=17.97|32=7500|34=10229|37=126|38=7500|39=2|40=2|44=17.97|49=SYSTEM|52=20211127-17:20:30.173|54=1|55=BPAC11|56=DROPCOPY|60=20211127-17:20:30.173|75=2021-11-27|128=GATEWAY|150=F|151=0|207=BVMF|581=39|453=1|448=JONES|447=D|452=36|10=172|
8=FIX.4.4|9=284|35=8|1=071264|6=14.08|11=127|14=24500|17=VALE300024|31=14.08|32=24500|34=10230|37=127|38=24500|39=2|40=2|44=14.08|49=SYSTEM|52=20211127-14:22:55.792|54=1|55=VALE3|56=DROPCOPY|60=20211127-14:22:55.792|75=2021-11-27|128=GATEWAY|150=F|151=0|207=BVMF|581=39|453=1|448=GARCIA|447=D|452=36|10=018|
8=FIX.4.4|9=281|35=8|1=164532|6=13.3|11=128|14=8500|17=BBAS300013|31=13.3|32=8500|34=10231|37=128|38=8500|39=2|40=2|44=13.3|49=SYSTEM|52=20211127-16:04:40.717|54=1|55=BBAS3|56=DROPCOPY|60=20211127-16:04:40.717|75=2021-11-27|128=GATEWAY|150=F|151=0|207=BVMF|581=39|453=1|448=RODRIGUEZ|447=D|452=36|10=203|
8=FIX.4.4|9=280|35=8|1=918237|6=18.59|11=129|14=1500|17=ITUB400011|31=18.59|32=1500|34=10232|37=129|38=1500|39=2|40=2|44=18.59|49=SYSTEM|52=20211127-13:30:37.110|54=1|55=ITUB4|56=DROPCOPY|60=20211127-13:30:37.110|75=2021-11-27|128=GATEWAY|150=F|151=0|207=BVMF|581=39|453=1|448=SMITH|447=D|452=36|10=109|
8=FIX.4.4|9=283|35=8|1=498213|6=14.59|11=130|14=4400|17=POMO400030|31=14.59|32=4400|34=10233|37=130|38=7500|39=1|40=2|44=14.59|49=SYSTEM|52=20211127-16:58:41.963|54=2|55=POMO4|56=DROPCOPY|60=20211127-16:58:41.963|75=2021-11-27|128=GATEWAY|150=F|151=3100|207=BVMF|581=39|453=1|448=BROWN|447=D|452=36|10=050|
8=FIX.4.4|9=288|35=8|1=879865|6=18.01|11=131|14=7200|17=RAPT400030|31=18.01|32=7200|34=10234|37=131|38=13500|39=1|40=2|44=18.01|49=SYSTEM|52=20211127-14:02:44.057|54=2|55=RAPT4|56=DROPCOPY|60=20211127-14:02:44.057|75=2021-11-27|128=GATEWAY|150=F|151=6300|207=BVMF|581=39|453=1|448=RODRIGUEZ|447=D|452=36|10=110|
8=FIX.4.4|9=286|35=8|1=164532|6=13.89|11=132|14=11700|17=ITUB400012|31=13.89|32=11700|34=10235|37=132|38=18500|39=1|40=2|44=13.89|49=SYSTEM|52=20211127-14:36:58.332|54=1|55=ITUB4|56=DROPCOPY|60=20211127-14:36:58.332|75=2021-11-27|128=GATEWAY|150=F|151=6800|207=BVMF|581=39|453=1|448=BROWN|447=D|452=36|10=186|
8=FIX.4.4|9=285|35=8|1=981727|6=16.33|11=133|14=11500|17=GOAU400038|31=16.33|32=11500|34=10236|37=133|38=11500|39=2|40=2|44=16.33|49=SYSTEM|52=20211127-10:13:13.137|54=1|55=GOAU4|56=DROPCOPY|60=20211127-10:13:13.137|75=2021-11-27|128=GATEWAY|150=F|151=0|207=BVMF|581=39|453=1|448=JOHNSON|447=D|452=36|10=122|
8=FIX.4.4|9=282|35=8|1=164532|6=13.89|11=132|14=18500|17=ITUB400013|31=13.89|32=6800|34=10237|37=132|38=18500|39=2|40=2|44=13.89|49=SYSTEM|52=20211127-15:25:09.774|54=1|55=ITUB4|56=DROPCOPY|60=20211127-15:25:09.774|75=2021-11-27|128=GATEWAY|150=F|151=0|207=BVMF|581=39|453=1|448=BROWN|447=D|452=36|10=000|
8=FIX.4.4|9=280|35=8|1=498213|6=14.59|11=130|14=7500|17=POMO400031|31=14.59|32=3100|34=10238|37=130|38=7500|39=2|40=2|44=14.59|49=SYSTEM|52=20211127-17:26:32.019|54=2|55=POMO4|56=DROPCOPY|60=20211127-17:26:32.019|75=2021-11-27|128=GATEWAY|150=F|151=0|207=BVMF|581=39|453=1|448=BROWN|447=D|452=36|10=138|
8=FIX.4.4|9=281|35=8|1=164532|6=14.58|11=134|14=800|17=GOAU400039|31=14.58|32=800|34=10239|37=134|38=2500|39=1|40=2|44=14.58|49=SYSTEM|52=20211127-10:03:58.351|54=2|55=GOAU4|56=DROPCOPY|60=20211127-10:03:58.351|75=2021-11-27|128=GATEWAY|150=F|151=1700|207=BVMF|581=39|453=1|448=DAVIS|447=D|452=36|10=140|
8=FIX.4.4|9=288|35=8|1=879865|6=18.01|11=131|14=13300|17=RAPT400031|31=18.01|32=6100|34=10240|37=131|38=13500|39=1|40=2|44=18.01|49=SYSTEM|52=20211127-16:19:32.026|54=2|55=RAPT4|56=DROPCOPY|60=20211127-16:19:32.026|75=2021-11-27|128=GATEWAY|150=F|151=200|207=BVMF|581=39|453=1|448=RODRIGUEZ|447=D|452=36|10=103|
8=FIX.4.4|9=286|35=8|1=164532|6=12.04|11=135|14=11300|17=IGTI300039|31=12.04|32=11300|34=10241|37=135|38=15500|39=1|40=2|44=12.04|49=SYSTEM|52=20211127-15:09:10.398|54=2|55=IGTI3|56=DROPCOPY|60=20211127-15:09:10.398|75=2021-11-27|128=GATEWAY|150=F|151=4200|207=BVMF|581=39|453=1|448=BROWN|447=D|452=36|10=124|
8=FIX.4.4|9=286|35=8|1=987453|6=18.45|11=136|14=13000|17=PETR400015|31=18.45|32=13000|34=10242|37=136|38=21500|39=1|40=2|44=18.45|49=SYSTEM|52=20211127-13:52:49.222|54=1|55=PETR4|56=DROPCOPY|60=20211127-13:52:49.222|75=2021-11-27|128=GATEWAY|150=F|151=8500|207=BVMF|581=39|453=1|448=JONES|447=D|452=36|10=179|
8=FIX.4.4|9=284|35=8|1=849651|6=16.91|11=137|14=3600|17=GOAU400040|31=16.91|32=3600|34=10243|37=137|38=13500|39=1|40=2|44=16.91|49=SYSTEM|52=20211127-14:31:35.210|54=1|55=GOAU4|56=DROPCOPY|60=20211127-14:31:35.210|75=2021-11-27|128=GATEWAY|150=F|151=9900|207=BVMF|581=39|453=1|448=SMITH|447=D|452=36|10=048|
8=FIX.4.4|9=286|35=8|1=981727|6=18.53|11=138|14=14500|17=RAPT400032|31=18.53|32=14500|34=10244|37=138|38=14500|39=2|40=2|44=18.53|49=SYSTEM|52=20211127-17:26:31.982|54=1|55=RAPT4|56=DROPCOPY|60=20211127-17:26:31.982|75=2021-11-27|128=GATEWAY|150=F|151=0|207=BVMF|581=39|453=1|448=WILLIAMS|447=D|452=36|10=018|
8=FIX.4.4|9=285|35=8|1=879865|6=18.01|11=131|14=13500|17=RAPT400033|31=18.01|32=200|34=10245|37=131|38=13500|39=2|40=2|44=18.01|49=SYSTEM|52=20211127-17:33:49.945|54=2|55=RAPT4|56=DROPCOPY|60=20211127-17:33:49.945|75=2021-11-27|128=GATEWAY|150=F|151=0|207=BVMF|581=39|453=1|448=RODRIGUEZ|447=D|452=36|10=245|
8=FIX.4.4|9=285|35=8|1=164532|6=12.04|11=135|14=14200|17=IGTI300040|31=12.04|32=2900|34=10246|37=135|38=15500|39=1|40=2|44=12.04|49=SYSTEM|52=20211127-17:05:40.822|54=2|55=IGTI3|56=DROPCOPY|60=20211127-17:05:40.822|75=2021-11-27|128=GATEWAY|150=F|151=1300|207=BVMF|581=39|453=1|448=BROWN|447=D|452=36|10=064|
8=FIX.4.4|9=280|35=8|1=164532|6=14.58|11=134|14=2500|17=GOAU400041|31=14.58|32=1700|34=10247|37=134|38=2500|39=2|40=2|44=14.58|49=SYSTEM|52=20211127-10:31:47.111|54=2|55=GOAU4|56=DROPCOPY|60=20211127-10:31:47.111|75=2021-11-27|128=GATEWAY|150=F|151=0|207=BVMF|581=39|453=1|448=DAVIS|447=D|452=36|10=061|
8=FIX.4.4|9=285|35=8|1=987453|6=18.45|11=136|14=20400|17=PETR400016|31=18.45|32=7400|34=10248|37=136|38=21500|39=1|40=2|44=18.45|49=SYSTEM|52=20211127-14:49:28.347|54=1|55=PETR4|56=DROPCOPY|60=20211127-14:49:28.347|75=2021-11-27|128=GATEWAY|150=F|151=1100|207=BVMF|581=39|453=1|448=JONES|447=D|452=36|10=159|
8=FIX.4.4|9=283|35=8|1=987453|6=18.55|11=139|14=5500|17=IGTI300041|31=18.55|32=5500|34=10249|37=139|38=5500|39=2|40=2|44=18.55|49=SYSTEM|52=20211127-16:03:37.535|54=1|55=IGTI3|56=DROPCOPY|60=20211127-16:03:37.535|75=2021-11-27|128=GATEWAY|150=F|151=0|207=BVMF|581=39|453=1|448=WILLIAMS|447=D|452=36|10=108|
8=FIX.4.4|9=282|35=8|1=987453|6=18.45|11=136|14=21500|17=PETR400017|31=18.45|32=1100|34=10250|37=136|38=21500|39=2|40=2|44=18.45|49=SYSTEM|52=20211127-15:33:24.393|54=1|55=PETR4|56=DROPCOPY|60=20211127-15:33:24.393|75=2021-11-27|128=GATEWAY|150=F|151=0|207=BVMF|581=39|453=1|448=JONES|447=D|452=36|10=236|
8=FIX.4.4|9=284|35=8|1=849651|6=16.91|11=137|14=7400|17=GOAU400042|31=16.91|32=3800|34=10251|37=137|38=13500|39=1|40=2|44=16.91|49=SYSTEM|52=20211127-17:08:54.127|54=1|55=GOAU4|56=DROPCOPY|60=20211127-17:08:54.127|75=2021-11-27|128=GATEWAY|150=F|151=6100|207=BVMF|581=39|453=1|448=SMITH|447=D|452=36|10=072|
8=FIX.4.4|9=283|35=8|1=918237|6=16.84|11=140|14=5100|17=PETR400018|31=16.84|32=5100|34=10252|37=140|38=5500|39=1|40=2|44=16.84|49=SYSTEM|52=20211127-11:51:40.578|54=2|55=PETR4|56=DROPCOPY|60=20211127-11:51:40.578|75=2021-11-27|128=GATEWAY|150=F|151=400|207=BVMF|581=39|453=1|448=GARCIA|447=D|452=36|10=017|
8=FIX.4.4|9=280|35=8|1=918237|6=16.84|11=140|14=5500|17=PETR400019|31=16.84|32=400|34=10253|37=140|38=5500|39=2|40=2|44=16.84|49=SYSTEM|52=20211127-13:25:39.902|54=2|55=PETR4|56=DROPCOPY|60=20211127-13:25:39.902|75=2021-11-27|128=GATEWAY|150=F|151=0|207=BVMF|581=39|453=1|448=GARCIA|447=D|452=36|10=131|
8=FIX.4.4|9=282|35=8|1=849651|6=16.91|11=137|14=13500|17=GOAU400043|31=16.91|32=6100|34=10254|37=137|38=13500|39=2|40=2|44=16.91|49=SYSTEM|52=20211127-17:49:32.866|54=1|55=GOAU4|56=DROPCOPY|60=20211127-17:49:32.866|75=2021-11-27|128=GATEWAY|150=F|151=0|207=BVMF|581=39|453=1|448=SMITH|447=D|452=36|10=244|
8=FIX.4.4|9=290|35=8|1=164532|6=12.47|11=141|14=20300|17=PETR400020|31=12.47|32=20300|34=10255|37=141|38=21500|39=1|40=2|44=12.47|49=SYSTEM|52=20211127-12:25:17.613|54=2|55=PETR4|56=DROPCOPY|60=20211127-12:25:17.613|75=2021-11-27|128=GATEWAY|150=F|151=1200|207=BVMF|581=39|453=1|448=RODRIGUEZ|447=D|452=36|10=188|
8=FIX.4.4|9=286|35=8|1=164532|6=12.47|11=141|14=21500|17=PETR400021|31=12.47|32=1200|34=10256|37=141|38=21500|39=2|40=2|44=12.47|49=SYSTEM|52=20211127-16:26:55.827|54=2|55=PETR4|56=DROPCOPY|60=20211127-16:26:55.827|75=2021-11-27|128=GATEWAY|150=F|151=0|207=BVMF|581=39|453=1|448=RODRIGUEZ|447=D|452=36|10=030|
8=FIX.4.4|9=288|35=8|1=981727|6=18.79|11=142|14=2000|17=BPAC1100025|31=18.79|32=2000|34=10257|37=142|38=3500|39=1|40=2|44=18.79|49=SYSTEM|52=20211127-10:41:49.026|54=1|55=BPAC11|56=DROPCOPY|60=20211127-10:41:49.026|75=2021-11-27|128=GATEWAY|150=F|151=1500|207=BVMF|581=39|453=1|448=WILLIAMS|447=D|452=36|10=029|
8=FIX.4.4|9=282|35=8|1=164532|6=12.04|11=135|14=15500|17=IGTI300042|31=12.04|32=1300|34=10258|37=135|38=15500|39=2|40=2|44=12.04|49=SYSTEM|52=20211127-17:30:40.921|54=2|55=IGTI3|56=DROPCOPY|60=20211127-17:30:40.921|75=2021-11-27|128=GATEWAY|150=F|151=0|207=BVMF|581=39|453=1|448=BROWN|447=D|452=36|10=168|
8=FIX.4.4|9=285|35=8|1=981727|6=18.79|11=142|14=3500|17=BPAC1100026|31=18.79|32=1500|34=10259|37=142|38=3500|39=2|40=2|44=18.79|49=SYSTEM|52=20211127-13:35:52.152|54=1|55=BPAC11|56=DROPCOPY|60=20211127-13:35:52.152|75=2021-11-27|128=GATEWAY|150=F|151=0|207=BVMF|581=39|453=1|448=WILLIAMS|447=D|452=36|10=146|
8=FIX.4.4|9=280|35=8|1=987453|6=18.55|11=143|14=1500|17=IGTI300043|31=18.55|32=1500|34=10260|37=143|38=1500|39=2|40=2|44=18.55|49=SYSTEM|52=20211127-16:03:48.881|54=2|55=IGTI3|56=DROPCOPY|60=20211127-16:03:48.881|75=2021-11-27|128=GATEWAY|150=F|151=0|207=BVMF|581=39|453=1|448=BROWN|447=D|452=36|10=129|
8=FIX.4.4|9=286|35=8|1=164532|6=13.61|11=144|14=18500|17=PETR400022|31=13.61|32=18500|34=10261|37=144|38=18500|39=2|40=2|44=13.61|49=SYSTEM|52=20211127-11:12:44.148|54=2|55=PETR4|56=DROPCOPY|60=20211127-11:12:44.148|75=2021-11-27|128=GATEWAY|150=F|151=0|207=BVMF|581=39|453=1|448=WILLIAMS|447=D|452=36|10=230|
8=FIX.4.4|9=286|35=8|1=981727|6=11.92|11=145|14=3700|17=BPAC1100027|31=11.92|32=3700|34=10262|37=145|38=12500|39=1|40=2|44=11.92|49=SYSTEM|52=20211127-11:36:20.633|54=1|55=BPAC11|56=DROPCOPY|60=20211127-11:36:20.633|75=2021-11-27|128=GATEWAY|150=F|151=8800|207=BVMF|581=39|453=1|448=JONES|447=D|452=36|10=094|
8=FIX.4.4|9=281|35=8|1=071264|6=13.55|11=146|14=300|17=GOAU400044|31=13.55|32=300|34=10263|37=146|38=9500|39=1|40=2|44=13.55|49=SYSTEM|52=20211127-16:01:11.814|54=1|55=GOAU4|56=DROPCOPY|60=20211127-16:01:11.814|75=2021-11-27|128=GATEWAY|150=F|151=9200|207=BVMF|581=39|453=1|448=SMITH|447=D|452=36|10=133|
8=FIX.4.4|9=283|35=8|1=071264|6=13.55|11=146|14=5900|17=GOAU400045|31=13.55|32=5600|34=10264|37=146|38=9500|39=1|40=2|44=13.55|49=SYSTEM|52=20211127-16:45:52.156|54=1|55=GOAU4|56=DROPCOPY|60=20211127-16:45:52.156|75=2021-11-27|128=GATEWAY|150=F|151=3600|207=BVMF|581=39|453=1|448=SMITH|447=D|452=36|10=018|
8=FIX.4.4|9=280|35=8|1=071264|6=13.55|11=146|14=9500|17=GOAU400046|31=13.55|32=3600|34=10265|37=146|38=9500|39=2|40=2|44=13.55|49=SYSTEM|52=20211127-17:32:45.864|54=1|55=GOAU4|56=DROPCOPY|60=20211127-17:32:45.864|75=2021-11-27|128=GATEWAY|150=F|151=0|207=BVMF|581=39|453=1|448=SMITH|447=D|452=36|10=129|
8=FIX.4.4|9=284|35=8|1=981727|6=11.92|11=145|14=12500|17=BPAC1100028|31=11.92|32=8800|34=10266|37=145|38=12500|39=2|40=2|44=11.92|49=SYSTEM|52=20211127-15:48:27.769|54=1|55=BPAC11|56=DROPCOPY|60=20211127-15:48:27.769|75=2021-11-27|128=GATEWAY|150=F|151=0|207=BVMF|581=39|453=1|448=JONES|447=D|452=36|10=038|
8=FIX.4.4|9=285|35=8|1=918237|6=16.19|11=147|14=17500|17=IGTI300044|31=16.19|32=17500|34=10267|37=147|38=17500|39=2|40=2|44=16.19|49=SYSTEM|52=20211127-13:30:53.921|54=1|55=IGTI3|56=DROPCOPY|60=20211127-13:30:53.921|75=2021-11-27|128=GATEWAY|150=F|151=0|207=BVMF|581=39|453=1|448=JOHNSON|447=D|452=36|10=173|
8=FIX.4.4|9=288|35=8|1=879865|6=14.29|11=148|14=4600|17=RAPT400034|31=14.29|32=4600|34=10268|37=148|38=22500|39=1|40=2|44=14.29|49=SYSTEM|52=20211127-16:39:18.764|54=1|55=RAPT4|56=DROPCOPY|60=20211127-16:39:18.764|75=2021-11-27|128=GATEWAY|150=F|151=17900|207=BVMF|581=39|453=1|448=MARTINEZ|447=D|452=36|10=167|
8=FIX.4.4|9=289|35=8|1=879865|6=14.29|11=148|14=20900|17=RAPT400035|31=14.29|32=16300|34=10269|37=148|38=22500|39=1|40=2|44=14.29|49=SYSTEM|52=20211127-17:38:59.666|54=1|55=RAPT4|56=DROPCOPY|60=20211127-17:38:59.666|75=2021-11-27|128=GATEWAY|150=F|151=1600|207=BVMF|581=39|453=1|448=MARTINEZ|447=D|452=36|10=221|
8=FIX.4.4|9=284|35=8|1=918239|6=11.8|11=149|14=8100|17=VALE300025|31=11.8|32=8100|34=10270|37=149|38=19500|39=1|40=2|44=11.8|49=SYSTEM|52=20211127-17:39:23.123|54=1|55=VALE3|56=DROPCOPY|60=20211127-17:39:23.123|75=2021-11-27|128=GATEWAY|150=F|151=11400|207=BVMF|581=39|453=1|448=JOHNSON|447=D|452=36|10=099|
8=FIX.4.4|9=288|35=8|1=981727|6=11.64|11=150|14=3900|17=POMO400032|31=11.64|32=3900|34=10271|37=150|38=13500|39=1|40=2|44=11.64|49=SYSTEM|52=20211127-10:35:56.094|54=1|55=POMO4|56=DROPCOPY|60=20211127-10:35:56.094|75=2021-11-27|128=GATEWAY|150=F|151=9600|207=BVMF|581=39|453=1|448=RODRIGUEZ|447=D|452=36|10=143|
8=FIX.4.4|9=282|35=8|1=918239|6=11.8|11=149|14=19500|17=VALE300026|31=11.8|32=11400|34=10272|37=149|38=19500|39=2|40=2|44=11.8|49=SYSTEM|52=20211127-17:46:55.703|54=1|55=VALE3|56=DROPCOPY|60=20211127-17:46:55.703|75=2021-11-27|128=GATEWAY|150=F|151=0|207=BVMF|581=39|453=1|448=JOHNSON|447=D|452=36|10=016|
8=FIX.4.4|9=289|35=8|1=981727|6=11.64|11=150|14=11000|17=POMO400033|31=11.64|32=7100|34=10273|37=150|38=13500|39=1|40=2|44=11.64|49=SYSTEM|52=20211127-12:22:30.044|54=1|55=POMO4|56=DROPCOPY|60=20211127-12:22:30.044|75=2021-11-27|128=GATEWAY|150=F|151=2500|207=BVMF|581=39|453=1|448=RODRIGUEZ|447=D|452=36|10=143|
8=FIX.4.4|9=283|35=8|1=849651|6=11.89|11=151|14=12500|17=POMO400034|31=11.89|32=12500|34=10274|37=151|38=12500|39=2|40=2|44=11.89|49=SYSTEM|52=20211127-16:38:13.559|54=2|55=POMO4|56=DROPCOPY|60=20211127-16:38:13.559|75=2021-11-27|128=GATEWAY|150=F|151=0|207=BVMF|581=39|453=1|448=DAVIS|447=D|452=36|10=043|
8=FIX.4.4|9=286|35=8|1=981727|6=11.64|11=150|14=13500|17=POMO400035|31=11.64|32=2500|34=10275|37=150|38=13500|39=2|40=2|44=11.64|49=SYSTEM|52=20211127-15:33:20.615|54=1|55=POMO4|56=DROPCOPY|60=20211127-15:33:20.615|75=2021-11-27|128=GATEWAY|150=F|151=0|207=BVMF|581=39|453=1|448=RODRIGUEZ|447=D|452=36|10=016|
8=FIX.4.4|9=285|35=8|1=849651|6=16.27|11=152|14=3800|17=IGTI300045|31=16.27|32=3800|34=10276|37=152|38=12500|39=1|40=2|44=16.27|49=SYSTEM|52=20211127-10:09:32.100|54=2|55=IGTI3|56=DROPCOPY|60=20211127-10:09:32.100|75=2021-11-27|128=GATEWAY|150=F|151=8700|207=BVMF|581=39|453=1|448=GARCIA|447=D|452=36|10=078|
8=FIX.4.4|9=287|35=8|1=987453|6=17.73|11=153|14=7400|17=BPAC1100029|31=17.73|32=7400|34=10277|37=153|38=21500|39=1|40=2|44=17.73|49=SYSTEM|52=20211127-11:46:44.847|54=1|55=BPAC11|56=DROPCOPY|60=20211127-11:46:44.847|75=2021-11-27|128=GATEWAY|150=F|151=14100|207=BVMF|581=39|453=1|448=SMITH|447=D|452=36|10=192|
8=FIX.4.4|9=288|35=8|1=987453|6=17.73|11=153|14=10600|17=BPAC1100030|31=17.73|32=3200|34=10278|37=153|38=21500|39=1|40=2|44=17.73|49=SYSTEM|52=20211127-16:05:17.325|54=1|55=BPAC11|56=DROPCOPY|60=20211127-16:05:17.325|75=2021-11-27|128=GATEWAY|150=F|151=10900|207=BVMF|581=39|453=1|448=SMITH|447=D|452=36|10=210|
8=FIX.4.4|9=286|35=8|1=879865|6=14.29|11=148|14=21700|17=RAPT400036|31=14.29|32=800|34=10279|37=148|38=22500|39=1|40=2|44=14.29|49=SYSTEM|52=20211127-17:45:09.550|54=1|55=RAPT4|56=DROPCOPY|60=20211127-17:45:09.550|75=2021-11-27|128=GATEWAY|150=F|151=800|207=BVMF|581=39|453=1|448=MARTINEZ|447=D|452=36|10=044|
8=FIX.4.4|9=285|35=8|1=987453|6=17.73|11=153|14=21500|17=BPAC1100031|31=17.73|32=10900|34=10280|37=153|38=21500|39=2|40=2|44=17.73|49=SYSTEM|52=20211127-17:25:18.686|54=1|55=BPAC11|56=DROPCOPY|60=20211127-17:25:18.686|75=2021-11-27|128=GATEWAY|150=F|151=0|207=BVMF|581=39|453=1|448=SMITH|447=D|452=36|10=082|
8=FIX.4.4|9=286|35=8|1=879865|6=14.29|11=148|14=22000|17=RAPT400037|31=14.29|32=300|34=10281|37=148|38=22500|39=1|40=2|44=14.29|49=SYSTEM|52=20211127-17:46:35.715|54=1|55=RAPT4|56=DROPCOPY|60=20211127-17:46:35.715|75=2021-11-27|128=GATEWAY|150=F|151=500|207=BVMF|581=39|453=1|448=MARTINEZ|447=D|452=36|10=030|
8=FIX.4.4|9=283|35=8|1=849651|6=16.27|11=152|14=12500|17=IGTI300046|31=16.27|32=8700|34=10282|37=152|38=12500|39=2|40=2|44=16.27|49=SYSTEM|52=20211127-11:59:17.331|54=2|55=IGTI3|56=DROPCOPY|60=20211127-11:59:17.331|75=2021-11-27|128=GATEWAY|150=F|151=0|207=BVMF|581=39|453=1|448=GARCIA|447=D|452=36|10=251|
8=FIX.4.4|9=284|35=8|1=879865|6=14.29|11=148|14=22500|17=RAPT400038|31=14.29|32=500|34=10283|37=148|38=22500|39=2|40=2|44=14.29|49=SYSTEM|52=20211127-17:55:24.534|54=1|55=RAPT4|56=DROPCOPY|60=20211127-17:55:24.534|75=2021-11-27|128=GATEWAY|150=F|151=0|207=BVMF|581=39|453=1|448=MARTINEZ|447=D|452=36|10=188|
8=FIX.4.4|9=280|35=8|1=849651|6=15.83|11=154|14=4500|17=IGTI300047|31=15.83|32=4500|34=10284|37=154|38=4500|39=2|40=2|44=15.83|49=SYSTEM|52=20211127-14:32:26.577|54=1|55=IGTI3|56=DROPCOPY|60=20211127-14:32:26.577|75=2021-11-27|128=GATEWAY|150=F|151=0|207=BVMF|581=39|453=1|448=JONES|447=D|452=36|10=129|
8=FIX.4.4|9=289|35=8|1=879865|6=15.27|11=155|14=10300|17=ITUB400014|31=15.27|32=10300|34=10285|37=155|38=16500|39=1|40=2|44=15.27|49=SYSTEM|52=20211127-12:23:46.619|54=1|55=ITUB4|56=DROPCOPY|60=20211127-12:23:46.619|75=2021-11-27|128=GATEWAY|150=F|151=6200|207=BVMF|581=39|453=1|448=WILLIAMS|447=D|452=36|10=152|
8=FIX.4.4|9=285|35=8|1=879865|6=15.27|11=155|14=16500|17=ITUB400015|31=15.27|32=6200|34=10286|37=155|38=16500|39=2|40=2|44=15.27|49=SYSTEM|52=20211127-14:53:18.374|54=1|55=ITUB4|56=DROPCOPY|60=20211127-14:53:18.374|75=2021-11-27|128=GATEWAY|150=F|151=0|207=BVMF|581=39|453=1|448=WILLIAMS|447=D|452=36|10=223|
8=FIX.4.4|9=283|35=8|1=987453|6=13.03|11=156|14=20500|17=BBAS300014|31=13.03|32=20500|34=10287|37=156|38=20500|39=2|40=2|44=13.03|49=SYSTEM|52=20211127-10:03:40.619|54=1|55=BBAS3|56=DROPCOPY|60=20211127-10:03:40.619|75=2021-11-27|128=GATEWAY|150=F|151=0|207=BVMF|581=39|453=1|448=JONES|447=D|452=36|10=176|
8=FIX.4.4|9=278|35=8|1=849651|6=16.5|11=157|14=3500|17=GOAU400047|31=16.5|32=3500|34=10288|37=157|38=3500|39=2|40=2|44=16.5|49=SYSTEM|52=20211127-16:06:25.425|54=1|55=GOAU4|56=DROPCOPY|60=20211127-16:06:25.425|75=2021-11-27|128=GATEWAY|150=F|151=0|207=BVMF|581=39|453=1|448=GARCIA|447=D|452=36|10=012|
8=FIX.4.4|9=286|35=8|1=498213|6=19.99|11=158|14=16800|17=GOAU400048|31=19.99|32=16800|34=10289|37=158|38=21500|39=1|40=2|44=19.99|49=SYSTEM|52=20211127-16:44:51.222|54=2|55=GOAU4|56=DROPCOPY|60=20211127-16:44:51.222|75=2021-11-27|128=GATEWAY|150=F|151=4700|207=BVMF|581=39|453=1|448=BROWN|447=D|452=36|10=219|
8=FIX.4.4|9=285|35=8|1=498213|6=19.99|11=158|14=18600|17=GOAU400049|31=19.99|32=1800|34=10290|37=158|38=21500|39=1|40=2|44=19.99|49=SYSTEM|52=20211127-17:12:00.899|54=2|55=GOAU4|56=DROPCOPY|60=20211127-17:12:00.899|75=2021-11-27|128=GATEWAY|150=F|151=2900|207=BVMF|581=39|453=1|448=BROWN|447=D|452=36|10=177|
8=FIX.4.4|9=283|35=8|1=164532|6=10.98|11=159|14=24500|17=BBAS300015|31=10.98|32=24500|34=10291|37=159|38=24500|39=2|40=2|44=10.98|49=SYSTEM|52=20211127-13:38:05.390|54=1|55=BBAS3|56=DROPCOPY|60=20211127-13:38:05.390|75=2021-11-27|128=GATEWAY|150=F|151=0|207=BVMF|581=39|453=1|448=BROWN|447=D|452=36|10=233|
8=FIX.4.4|9=284|35=8|1=498213|6=19.99|11=158|14=19000|17=GOAU400050|31=19.99|32=400|34=10292|37=158|38=21500|39=1|40=2|44=19.99|49=SYSTEM|52=20211127-17:41:23.985|54=2|55=GOAU4|56=DROPCOPY|60=20211127-17:41:23.985|75=2021-11-27|128=GATEWAY|150=F|151=2500|207=BVMF|581=39|453=1|448=BROWN|447=D|452=36|10=114|
8=FIX.4.4|9=284|35=8|1=498213|6=19.99|11=158|14=19800|17=GOAU400051|31=19.99|32=800|34=10293|37=158|38=21500|39=1|40=2|44=19.99|49=SYSTEM|52=20211127-17:49:30.783|54=2|55=GOAU4|56=DROPCOPY|60=20211127-17:49:30.783|75=2021-11-27|128=GATEWAY|150=F|151=1700|207=BVMF|581=39|453=1|448=BROWN|447=D|452=36|10=133|
8=FIX.4.4|9=286|35=8|1=164532|6=12.32|11=160|14=18400|17=RAPT400039|31=12.32|32=18400|34=10294|37=160|38=20500|39=1|40=2|44=12.32|49=SYSTEM|52=20211127-17:28:39.170|54=2|55=RAPT4|56=DROPCOPY|60=20211127-17:28:39.170|75=2021-11-27|128=GATEWAY|150=F|151=2100|207=BVMF|581=39|453=1|448=SMITH|447=D|452=36|10=163|
8=FIX.4.4|9=284|35=8|1=164532|6=12.32|11=160|14=20400|17=RAPT400040|31=12.32|32=2000|34=10295|37=160|38=20500|39=1|40=2|44=12.32|49=SYSTEM|52=20211127-17:39:21.101|54=2|55=RAPT4|56=DROPCOPY|60=20211127-17:39:21.101|75=2021-11-27|128=GATEWAY|150=F|151=100|207=BVMF|581=39|453=1|448=SMITH|447=D|452=36|10=012|
8=FIX.4.4|9=281|35=8|1=071264|6=18.6|11=161|14=1500|17=PETR400023|31=18.6|32=1500|34=10296|37=161|38=1500|39=2|40=2|44=18.6|49=SYSTEM|52=20211127-10:22:13.989|54=1|55=PETR4|56=DROPCOPY|60=20211127-10:22:13.989|75=2021-11-27|128=GATEWAY|150=F|151=0|207=BVMF|581=39|453=1|448=RODRIGUEZ|447=D|452=36|10=037|
8=FIX.4.4|9=280|35=8|1=981727|6=12.22|11=162|14=8500|17=POMO400036|31=12.22|32=8500|34=10297|37=162|38=8500|39=2|40=2|44=12.22|49=SYSTEM|52=20211127-10:51:46.548|54=1|55=POMO4|56=DROPCOPY|60=20211127-10:51:46.548|75=2021-11-27|128=GATEWAY|150=F|151=0|207=BVMF|581=39|453=1|448=BROWN|447=D|452=36|10=145|
8=FIX.4.4|9=281|35=8|1=164532|6=12.32|11=160|14=20500|17=RAPT400041|31=12.32|32=100|34=10298|37=160|38=20500|39=2|40=2|44=12.32|49=SYSTEM|52=20211127-17:40:25.016|54=2|55=RAPT4|56=DROPCOPY|60=20211127-17:40:25.016|75=2021-11-27|128=GATEWAY|150=F|151=0|207=BVMF|581=39|453=1|448=SMITH|447=D|452=36|10=127|
8=FIX.4.4|9=284|35=8|1=498213|6=19.99|11=158|14=20800|17=GOAU400052|31=19.99|32=1000|34=10299|37=158|38=21500|39=1|40=2|44=19.99|49=SYSTEM|52=20211127-17:54:49.997|54=2|55=GOAU4|56=DROPCOPY|60=20211127-17:54:49.997|75=2021-11-27|128=GATEWAY|150=F|151=700|207=BVMF|581=39|453=1|448=BROWN|447=D|452=36|10=150|
8=FIX.4.4|9=280|35=8|1=981727|6=10.38|11=163|14=6500|17=PETR400024|31=10.38|32=6500|34=10300|37=163|38=6500|39=2|40=2|44=10.38|49=SYSTEM|52=20211127-14:36:38.300|54=2|55=PETR4|56=DROPCOPY|60=20211127-14:36:38.300|75=2021-11-27|128=GATEWAY|150=F|151=0|207=BVMF|581=39|453=1|448=BROWN|447=D|452=36|10=127|
8=FIX.4.4|9=288|35=8|1=879865|6=13.13|11=164|14=3200|17=VALE300027|31=13.13|32=3200|34=10301|37=164|38=16500|39=1|40=2|44=13.13|49=SYSTEM|52=20211127-13:01:05.201|54=1|55=VALE3|56=DROPCOPY|60=20211127-13:01:05.201|75=2021-11-27|128=GATEWAY|150=F|151=13300|207=BVMF|581=39|453=1|448=MARTINEZ|447=D|452=36|10=016|
8=FIX.4.4|9=286|35=8|1=879865|6=13.13|11=164|14=16500|17=VALE300028|31=13.13|32=13300|34=10302|37=164|38=16500|39=2|40=2|44=13.13|49=SYSTEM|52=20211127-14:08:16.617|54=1|55=VALE3|56=DROPCOPY|60=20211127-14:08:16.617|75=2021-11-27|128=GATEWAY|150=F|151=0|207=BVMF|581=39|453=1|448=MARTINEZ|447=D|452=36|10=221|
8=FIX.4.4|9=283|35=8|1=498213|6=19.99|11=158|14=21400|17=GOAU400053|31=19.99|32=600|34=10303|37=158|38=21500|39=1|40=2|44=19.99|49=SYSTEM|52=20211127-17:57:25.159|54=2|55=GOAU4|56=DROPCOPY|60=20211127-17:57:25.159|75=2021-11-27|128=GATEWAY|150=F|151=100|207=BVMF|581=39|453=1|448=BROWN|447=D|452=36|10=058|
8=FIX.4.4|9=286|35=8|1=879865|6=14.18|11=165|14=20500|17=BPAC1100032|31=14.18|32=20500|34=10304|37=165|38=20500|39=2|40=2|44=14.18|49=SYSTEM|52=20211127-11:24:03.315|54=2|55=BPAC11|56=DROPCOPY|60=20211127-11:24:03.315|75=2021-11-27|128=GATEWAY|150=F|151=0|207=BVMF|581=39|453=1|448=MILLER|447=D|452=36|10=094|
8=FIX.4.4|9=288|35=8|1=918239|6=12.69|11=166|14=14700|17=BPAC1100033|31=12.69|32=14700|34=10305|37=166|38=16500|39=1|40=2|44=12.69|49=SYSTEM|52=20211127-11:25:53.035|54=1|55=BPAC11|56=DROPCOPY|60=20211127-11:25:53.035|75=2021-11-27|128=GATEWAY|150=F|151=1800|207=BVMF|581=39|453=1|448=DAVIS|447=D|452=36|10=199|
8=FIX.4.4|9=281|35=8|1=498213|6=19.99|11=158|14=21500|17=GOAU400054|31=19.99|32=100|34=10306|37=158|38=21500|39=2|40=2|44=19.99|49=SYSTEM|52=20211127-17:59:11.186|54=2|55=GOAU4|56=DROPCOPY|60=20211127-17:59:11.186|75=2021-11-27|128=GATEWAY|150=F|151=0|207=BVMF|581=39|453=1|448=BROWN|447=D|452=36|10=210|
8=FIX.4.4|9=286|35=8|1=918239|6=12.69|11=166|14=14800|17=BPAC1100034|31=12.69|32=100|34=10307|37=166|38=16500|39=1|40=2|44=12.69|49=SYSTEM|52=20211127-14:46:48.464|54=1|55=BPAC11|56=DROPCOPY|60=20211127-14:46:48.464|75=2021-11-27|128=GATEWAY|150=F|151=1700|207=BVMF|581=39|453=1|448=DAVIS|447=D|452=36|10=125|
8=FIX.4.4|9=283|35=8|1=849651|6=13.91|11=167|14=18500|17=ITUB400016|31=13.91|32=18500|34=10308|37=167|38=18500|39=2|40=2|44=13.91|49=SYSTEM|52=20211127-13:40:22.236|54=1|55=ITUB4|56=DROPCOPY|60=20211127-13:40:22.236|75=2021-11-27|128=GATEWAY|150=F|151=0|207=BVMF|581=39|453=1|448=JONES|447=D|452=36|10=015|
8=FIX.4.4|9=286|35=8|1=918239|6=12.69|11=166|14=15900|17=BPAC1100035|31=12.69|32=1100|34=10309|37=166|38=16500|39=1|40=2|44=12.69|49=SYSTEM|52=20211127-15:38:40.048|54=1|55=BPAC11|56=DROPCOPY|60=20211127-15:38:40.048|75=2021-11-27|128=GATEWAY|150=F|151=600|207=BVMF|581=39|453=1|448=DAVIS|447=D|452=36|10=113|
8=FIX.4.4|9=283|35=8|1=918239|6=12.69|11=166|14=16500|17=BPAC1100036|31=12.69|32=600|34=10310|37=166|38=16500|39=2|40=2|44=12.69|49=SYSTEM|52=20211127-16:25:20.195|54=1|55=BPAC11|56=DROPCOPY|60=20211127-16:25:20.195|75=2021-11-27|128=GATEWAY|150=F|151=0|207=BVMF|581=39|453=1|448=DAVIS|447=D|452=36|10=207|
8=FIX.4.4|9=283|35=8|1=987453|6=10.65|11=168|14=6200|17=RAPT400042|31=10.65|32=6200|34=10311|37=168|38=9500|39=1|40=2|44=10.65|49=SYSTEM|52=20211127-12:13:00.449|54=1|55=RAPT4|56=DROPCOPY|60=20211127-12:13:00.449|75=2021-11-27|128=GATEWAY|150=F|151=3300|207=BVMF|581=39|453=1|448=SMITH|447=D|452=36|10=014|
8=FIX.4.4|9=282|35=8|1=987453|6=10.65|11=168|14=7100|17=RAPT400043|31=10.65|32=900|34=10312|37=168|38=9500|39=1|40=2|44=10.65|49=SYSTEM|52=20211127-14:50:00.112|54=1|55=RAPT4|56=DROPCOPY|60=20211127-14:50:00.112|75=2021-11-27|128=GATEWAY|150=F|151=2400|207=BVMF|581=39|453=1|448=SMITH|447=D|452=36|10=204|
8=FIX.4.4|9=280|35=8|1=987453|6=10.65|11=168|14=9500|17=RAPT400044|31=10.65|32=2400|34=10313|37=168|38=9500|39=2|40=2|44=10.65|49=SYSTEM|52=20211127-17:00:33.098|54=1|55=RAPT4|56=DROPCOPY|60=20211127-17:00:33.098|75=2021-11-27|128=GATEWAY|150=F|151=0|207=BVMF|581=39|453=1|448=SMITH|447=D|452=36|10=140|
8=FIX.4.4|9=284|35=8|1=987453|6=10.83|11=169|14=700|17=IGTI300048|31=10.83|32=700|34=10314|37=169|38=20500|39=1|40=2|44=10.83|49=SYSTEM|52=20211127-16:17:47.554|54=2|55=IGTI3|56=DROPCOPY|60=20211127-16:17:47.554|75=2021-11-27|128=GATEWAY|150=F|151=19800|207=BVMF|581=39|453=1|448=GARCIA|447=D|452=36|10=074|
8=FIX.4.4|9=283|35=8|1=164532|6=13.76|11=170|14=10500|17=PETR400025|31=13.76|32=10500|34=10315|37=170|38=10500|39=2|40=2|44=13.76|49=SYSTEM|52=20211127-16:57:22.627|54=1|55=PETR4|56=DROPCOPY|60=20211127-16:57:22.627|75=2021-11-27|128=GATEWAY|150=F|151=0|207=BVMF|581=39|453=1|448=SMITH|447=D|452=36|10=024|
8=FIX.4.4|9=286|35=8|1=987453|6=10.83|11=169|14=3100|17=IGTI300049|31=10.83|32=2400|34=10316|37=169|38=20500|39=1|40=2|44=10.83|49=SYSTEM|52=20211127-16:31:56.151|54=2|55=IGTI3|56=DROPCOPY|60=20211127-16:31:56.151|75=2021-11-27|128=GATEWAY|150=F|151=17400|207=BVMF|581=39|453=1|448=GARCIA|447=D|452=36|10=143|
8=FIX.4.4|9=284|35=8|1=918237|6=15.47|11=171|14=1400|17=ITUB400017|31=15.47|32=1400|34=10317|37=171|38=3500|39=1|40=2|44=15.47|49=SYSTEM|52=20211127-14:12:04.466|54=1|55=ITUB4|56=DROPCOPY|60=20211127-14:12:04.466|75=2021-11-27|128=GATEWAY|150=F|151=2100|207=BVMF|581=39|453=1|448=GARCIA|447=D|452=36|10=041|
8=FIX.4.4|9=284|35=8|1=987453|6=10.83|11=169|14=20500|17=IGTI300050|31=10.83|32=17400|34=10318|37=169|38=20500|39=2|40=2|44=10.83|49=SYSTEM|52=20211127-16:57:16.070|54=2|55=IGTI3|56=DROPCOPY|60=20211127-16:57:16.070|75=2021-11-27|128=GATEWAY|150=F|151=0|207=BVMF|581=39|453=1|448=GARCIA|447=D|452=36|10=045|
8=FIX.4.4|9=288|35=8|1=164532|6=10.04|11=172|14=10200|17=BPAC1100037|31=10.04|32=10200|34=10319|37=172|38=18500|39=1|40=2|44=10.04|49=SYSTEM|52=20211127-12:13:54.720|54=2|55=BPAC11|56=DROPCOPY|60=20211127-12:13:54.720|75=2021-11-27|128=GATEWAY|150=F|151=8300|207=BVMF|581=39|453=1|448=SMITH|447=D|452=36|10=153|
8=FIX.4.4|9=280|35=8|1=981727|6=15.56|11=173|14=3500|17=PETR400026|31=15.56|32=3500|34=10320|37=173|38=3500|39=2|40=2|44=15.56|49=SYSTEM|52=20211127-14:34:35.160|54=1|55=PETR4|56=DROPCOPY|60=20211127-14:34:35.160|75=2021-11-27|128=GATEWAY|150=F|151=0|207=BVMF|581=39|453=1|448=SMITH|447=D|452=36|10=133|
8=FIX.4.4|9=280|35=8|1=849651|6=12.23|11=174|14=4500|17=GOAU400055|31=12.23|32=4500|34=10321|37=174|38=4500|39=2|40=2|44=12.23|49=SYSTEM|52=20211127-16:38:45.333|54=1|55=GOAU4|56=DROPCOPY|60=20211127-16:38:45.333|75=2021-11-27|128=GATEWAY|150=F|151=0|207=BVMF|581=39|453=1|448=DAVIS|447=D|452=36|10=087|
8=FIX.4.4|9=284|35=8|1=164532|6=10.04|11=172|14=18500|17=BPAC1100038|31=10.04|32=8300|34=10322|37=172|38=18500|39=2|40=2|44=10.04|49=SYSTEM|52=20211127-12:23:40.386|54=2|55=BPAC11|56=DROPCOPY|60=20211127-12:23:40.386|75=2021-11-27|128=GATEWAY|150=F|151=0|207=BVMF|581=39|453=1|448=SMITH|447=D|452=36|10=225|
8=FIX.4.4|9=281|35=8|1=918237|6=15.47|11=171|14=3500|17=ITUB400018|31=15.47|32=2100|34=10323|37=171|38=3500|39=2|40=2|44=15.47|49=SYSTEM|52=20211127-14:18:42.659|54=1|55=ITUB4|56=DROPCOPY|60=20211127-14:18:42.659|75=2021-11-27|128=GATEWAY|150=F|151=0|207=BVMF|581=39|453=1|448=GARCIA|447=D|452=36|10=171|
8=FIX.4.4|9=286|35=8|1=918239|6=13.82|11=175|14=24500|17=GOAU400056|31=13.82|32=24500|34=10324|37=175|38=24500|39=2|40=2|44=13.82|49=SYSTEM|52=20211127-17:37:41.991|54=1|55=GOAU4|56=DROPCOPY|60=20211127-17:37:41.991|75=2021-11-27|128=GATEWAY|150=F|151=0|207=BVMF|581=39|453=1|448=WILLIAMS|447=D|452=36|10=001|
